:100000000C94F1010C94101B0C940E020C940E0233
:100010000C940E020C940E020C940E020C940E0220
:100020000C940E020C940E020C94E2220C94B52354
:100030000C94D51D0C940E020C940E020C940E021E
:100040000C940E020C940E020C940E020C940E02F0
:100050000C940E020C948D1E0C940E020C940E0245
:100060000C940E020C940E020C940E020C940E02D0
:100070000C940E020C940E020C940E020C940E02C0
:100080000C940E020C940E020C940E020C940E02B0
:100090000C940E020C940E020C940E020C940E02A0
:1000A0000C940E020C940E020C940E02010001003E
:1000B00001000100010001002B0014001A000800DB
:1000C00015001700E00004001600070009000A00F0
:1000D000E1001D001B0006001900050000000000E3
:1000E0000100010029422C41000000000100010034
:1000F00028000100010001000100010001000100D1
:100100001C0018000C00120013002D000B000D0045
:100110000E000F00330034001100100036003700CD
:10012000380031002A000100010001000000000039
:100130000100E225010001000000000001000100B3
:10014000010001000100010035001E001F00200019
:10015000210022000100E300E200E000E1002F00A6
:100160000100010001000100010001000000000089
:100170000100010001000100000000000100010079
:100180000100010001000100010001000100010067
:10019000230024002500260027002E003000010047
:1001A0000100010001000100010001000100010047
:1001B0000100010001000100010001000000000039
:1001C0000100010001000100000000000100010029
:1001D000010001000100010045003A003B003C0025
:1001E0003D003E000100E300E2004B004E004600EF
:1001F00001000100010001000100010000000000F9
:1002000001000100010001000000000001000100E8
:1002100001000100010001000100010001000100D6
:100220003F004000410042004300440050005100A4
:1002300052004F004C0001000100010001000100CC
:1002400001000100010001000100010000000000A8
:100250000100390001000100000000002C034400EF
:1002600061006300740079006C002D004D00610096
:100270006E00750066006F0072006D00200028009F
:10028000350078003600290000000E03740073006A
:1002900068006F0072007400000004030904090282
:1002A0003B00020100A0FA09040000010301010063
:1002B0000921110100012240000705810308000106
:1002C00009040100010300000009211101000122BD
:1002D000B6000705820320000112010002000000A1
:1002E000084D44363501000102000105010902A153
:1002F0000185020901A10005091901290815002538
:100300000195087501810205010930093115812522
:100310007F95027508810609381581257F9501753D
:10032000088106050C0A38021581257F950175089C
:100330008106C0C005010980A101850319012AB702
:1003400000150126B700950175108100C0050C0944
:1003500001A101850419012AA002150126A0029518
:100360000175108100C005010906A1018506050778
:1003700019E029E715002501950875018102050797
:10038000190029EF1500250195F075018102050876
:1003900019012905950575019102950175039101D2
:1003A000C005010906A101050719E029E715002587
:1003B00001950875018102950175088101050719EC
:1003C0000029FF150026FF00950675088100050825
:1003D0001901290595057501910295017503910192
:1003E000C00011241FBECFEFDAE0DEBFCDBF11E0A9
:1003F000A0E0B1E0E6E7FDE402C005900D92AC3A62
:10040000B107D9F723E0ACEAB1E001C01D92AD30ED
:10041000B207E1F70E94D9140C9428260C9400002E
:100420008330B8F46C30A8F4463098F4E42FF0E050
:1004300096E0699FE00DF11D112498E4899FE00D7D
:10044000F11D1124EE0FFF1FE455FF4F859194918C
:10045000089581E090E008950E941002089581E0DF
:10046000089581E008950E943102089508950E9440
:1004700036020895A5E0B0E0E0E4F2E00C949425A3
:1004800049835A833091B30189819A81311119C00E
:10049000662399F0222389F00E945508182F682FAF
:1004A00089819A810E94310869817A81812F0E9415
:1004B0000E0F2596E3E00C94B0250E944308182FF8
:1004C000F3CF0E94550869817A81F1CFFC01262F74
:1004D000408151816281738184810E943A02089532
:1004E00081E00895CF93DF93D82FC92F60E00E9459
:1004F00066026D2F7C2F0E943702DF91CF91089505
:1005000008950E94FD060E9480022FEF84E39CE084
:10051000215080409040E1F700C0000008950E9403
:1005200081020E94B11E08950E9481020E94C21E93
:1005300008950F931F93CF93DF938C0161E00E9486
:100540006602EC01B8010E9433028823B1F1B801C0
:10055000CE010E942D1A882381F1B801CE010E949C
:100560007F17882351F1B801CE010E949319882387
:1005700021F1F8018281882381F0CA35FCE7DF0789
:1005800039F178F4C130ECE7DE07F9F0C330FCE76D
:10059000DF07C9F0C115DC4771F0C8010E942F02C6
:1005A0000DC0CB35ECE7DE07B1F0CC35DC47A9F761
:1005B0000E946A0CF2CF0E948F0280E0DF91CF91FF
:1005C0001F910F9108950E947C0C0E949402F5CF18
:1005D0000E94740CE2CF0E94780CDFCF0E94B21D03
:1005E0000E94150308950E9419030E94B71D0895E3
:1005F000089581E008950895CF93DF93D82F0E9446
:10060000F902C82F882319F08D2F0E94FB028C2F2E
:10061000DF91CF9108950895CF93C82F0E94F802DB
:100620008C2F0E94FC02CF91089580E00E940C0361
:1006300008950E94351C0E940C030895CF930E94D8
:10064000351CC82F8091AE018C1779F0C093AE0194
:100650000E94411E6093AF017093B0018093B1017D
:100660009093B2018C2F0E940C03CF910895ABE0C0
:10067000B0E0EDE3F3E00C9495254F83588769874C
:100680007A878B8761110E94B30B1E8285E0FE0181
:100690003796DE01119601900D928A95E1F79981C6
:1006A0008A812C813D81232B61F449815A816B81A0
:1006B0007C818D819E810E94D90A2B96E2E00C9468
:1006C000B12589238F3F89F3CE0101960E947002E4
:1006D0008111EBCFF2CFFC01808191810E948708CC
:1006E0000895662329F00E946A150E942B1608952A
:1006F0000E94B315FACFCF93C82F8823C9F0823850
:10070000C9F40E94351C81FD13C089E30E94680B67
:100710000E94D40B2FEF37EE83E021503040804011
:10072000E1F700C0000089E30E94700B0E94D40B27
:10073000CF9108958338A1F40E94351C80FDF8CF35
:1007400083E50E94680B0E94D40B9FEF21EE34E0FA
:10075000915020403040E1F700C0000083E5E4CF35
:100760008438A1F40E94351C82FDE2CF87E40E9408
:10077000680B0E94D40B8FEF91EE24E081509040E3
:100780002040E1F700C0000087E4CECF8CEF8C0F53
:10079000813AB8F48C2F0E94CD188111C9CF6C2FEB
:1007A00080910001909101010E94D51C882329F0BD
:1007B0008C2F0E94700B0E94D40B8C2F0E94680B10
:1007C000B5CF80E28C0F883048F4C77081E001C05B
:1007D000880FCA95EAF70E94940BA8CF8BE58C0F7F
:1007E000833038F42C2F2452330BC9010E94731C20
:1007F0009FCFE8E5EC0FEB3150F4F0E0EE0FFF1F78
:10080000EE5CFE4F808191810E94991C91CF83E321
:100810008C0F833108F08CCF61E08C2F0E94710324
:1008200087CF882309F456C0823879F40E94351C9A
:1008300081FF50C089E30E94680B0E94D40B89E3BA
:100840000E94700B0E94D40B0895833859F40E94C3
:10085000351C80FF3FC083E50E94680B0E94D40BCB
:1008600083E5EECF843859F40E94351C82FF32C0F4
:1008700087E40E94680B0E94D40B87E4E1CF9CEFD1
:10088000980F913AE8F290E2980F983050F4877000
:1008900091E001C0990F8A95EAF7892F0E949A0B7F
:1008A000D1CF9BE5980F933028F480E090E00E9430
:1008B000731C089598E5980F9B3128F480E090E030
:1008C0000E94991C089593E3980F933118F460E007
:1008D0000E94710308951F93CF93DF93182FEB01AC
:1008E0000E947B03209739F4812F0E941104DF912D
:1008F000CF911F9108958FE99FE00197F1F700C014
:1009000000002197EFCF60E070E0893311F460E5DB
:1009100070E00E946B040895882321F00E94940BDC
:100920000E94D40B0895882321F00E949A0B0E9404
:10093000D40B0895A0E0B0E0E0EAF4E00C948F2539
:100940006C01D62FC72FFC011281058102950F7013
:100950000E94890BE82E8823E9F0E12E1123D1F0C3
:100960008C2F807F803451F080E28D0F8830E8F04A
:10097000011104C08C2F807E8032B9F08091E10299
:1009800082FF13C082E00E94370C0E94890B91E025
:10099000E82EE926EC2FE295EF70C03C08F062C02B
:1009A000F0E0E65DF94D0C947F25E12CF3CF0C2FA0
:1009B0000F70C03110F00295007F112399F00023D1
:1009C00059F080E28D0F883010F0D11107C0802FD0
:1009D0000E94940B0E94D40B8D2F42C0802F0E9446
:1009E000A50BF8CF8D2F0E9411040023D9F180E2CE
:1009F0008D0F883010F0D11104C0802F0E949A0B07
:100A000003C0802F0E94AB0B0E94D40B2BC0FC2F85
:100A1000FF70FF2EC07FC03219F0F29480EFF822F1
:100A2000DD2381F0D13009F45EC0112309F466C0E2
:100A3000002309F45DC0F601858180FFCDCF8F7062
:100A4000858356C08091E10282FD2BC0112311F1F4
:100A5000FF2029F08F2D0E94940B0E94D40B80E080
:100A60000E947B03EE2089F00E94850B80FD0DC063
:100A7000F60112820E947F0B0E948E07C6010E941F
:100A8000BE060E947F0B0E949E07CDB7DEB7E8E04E
:100A90000C94AB2580E00E941104FF2019F38F2DE8
:100AA000ADCF112381F0011106C00E94B60B8F2932
:100AB0000E948C04D7CF0130C1F70E94B60B8F295A
:100AC0000E94BD0BCFCF011106C00E94CA0B8F2D13
:100AD0000E949304C7CF013029F28F2D0E94930406
:100AE0000E94CA0BBFCF112329F0063008F0BACFFD
:100AF0008F2DDECF053008F0B5CFE9CF002339F3D5
:100B0000D93349F4FFEF27EE83E0F15020408040D5
:100B1000E1F700C000008D2F0E941104A3CF8C2F9D
:100B2000869586958370882369F0813009F09ACF85
:100B30008D2F9C2F9370111102C080E090E00E94D5
:100B4000991C90CF8D2F9C2F9370111102C080E0C3
:100B500090E00E94731C86CF612F8D2F0E9471033D
:100B600081CF8C2F8370811139C0111129C04D2F75
:100B7000429546954770440F440F2D2F2F7030E05B
:100B8000042E02C0220F331F0A94E2F780E090E0A7
:100B9000D4FF09C08FE090E002C0880F991F4A95EA
:100BA000E2F780959095C695C695C370822B932BDE
:100BB000C23071F0C33079F0C13039F00E945E0765
:100BC0000E94351C0E940C034DCF0E945507F8CFA0
:100BD0000E946707F5CF0E945207F2CF112361F1FF
:100BE000C0FFEECF4D2F429546954770440F440FFE
:100BF0002D2F2F7030E0042E02C0220F331F0A94D5
:100C0000E2F780E090E0D4FF09C08FE090E002C0FE
:100C1000880F991F4A95E2F780959095C695C695DD
:100C2000C370822B932BC23069F0C33071F0C13096
:100C300031F00E94C907C4CF823010F2D3CF0E9496
:100C4000C007BECF0E94D207BBCF0E947607B8CFA5
:100C5000CF70112339F08C2F0E948E078D2F0E94A8
:100C60008C04AECF8D2F0E9493048C2F0E949E0780
:100C7000A7CFD23F31F170F4D03FB9F0D13FB1F1FD
:100C8000112309F451C0002309F44BC08D2F0E9499
:100C90007B0396CFD33FE1F0D43F21F11111F3CF85
:100CA000011150C08C2F8F71E1CF112341F005301D
:100CB00008F086CF8C2F8F710E94B00781CF05304E
:100CC000F7CF8C2F8F711111D1CF0E948E0778CF63
:100CD000112329F08C2F8F710E94820771CF0E94FF
:100CE0007D076ECF8091E10282FD06C08C2F8F714F
:100CF000112309F4BBCFE9CF112349F0CF718C2F19
:100D00000E948E0763E08C2F0E94190C59CF81E05E
:100D10000E94370C023008F453CF82E00E94370C57
:100D20004FCF8C2F8F71D1CF002309F4BBCFD93394
:100D300049F49FEFE7EEF3E09150E040F040E1F737
:100D400000C000008D2F0E9411043ACF0F931F9313
:100D5000CF93DF93EC01688179818A810E949408A6
:100D60008C010E94DB070E945107B801CE010E944E
:100D70009A04DF91CF911F910F910895CF93DF9344
:100D8000EC01988189812B813C81232BB1F089234F
:100D90008F3F99F0CE010E949902811111C00E94EB
:100DA000890B882351F08A81882339F08091E102F0
:100DB00082FF03C082E00E94370CDF91CF9108953B
:100DC000CE010E94A606CE010E947202F6CF80E0FC
:100DD00090E00E94731C80E090E00E94991C0E94A9
:100DE000B30B0E94D40B0E9448160E942B16089544
:100DF0000E94780B0E94E70608950E94A20B0E94B1
:100E0000F8060895282F92959F70963091F060F41F
:100E1000925F9F70923030F481E0203F79F030F49F
:100E2000283E30F080E008959A5FF3CF243FD1F759
:100E3000089581E0283EE0F3213FF9CF0895FC01B9
:100E400083819481892B61F08181908189238F3FF7
:100E500039F0808191810E9487080E9402070895DD
:100E600080E00895A5E0B0E0E8E3F7E00C94952574
:100E70002596E2E00C94B125A6E0B0E0E2E4F7E0CC
:100E80000C9495252696E2E00C94B12508950E94D5
:100E9000460708950E9447079093DB018093DA018B
:100EA000089508950E944A0708952091DA0130912B
:100EB000DB01822B932B0E944A0708952091DA01CF
:100EC0003091DB01822393230E944A0708952091E9
:100ED000DA013091DB01822793270E944A070895A7
:100EE0000E94460708950E94700708950E947307A4
:100EF0009093D9018093D801089580E090E00E94FA
:100F00007607089521E030E0A90102C0440F551F83
:100F10008A95E2F7CA010E947607089521E030E041
:100F200002C0220F331F8A95E2F78091D801909179
:100F3000D901822B932B0E947607089521E030E09F
:100F400002C0220F331F8A95E2F7209530958091D9
:100F5000D8019091D901822393230E9476070895A6
:100F600021E030E002C0220F331F8A95E2F7809122
:100F7000D8019091D901822793270E94760708957E
:100F80002091D8013091D901822B932B0E947607B2
:100F900008952091D8013091D901822393230E9492
:100FA000760708952091D8013091D901822793279F
:100FB0000E947607089508959B01677091E001C033
:100FC000990F6A95EAF763E0369527956A95E1F7F8
:100FD000220F331F220F331FFA01E20FF31F40E0ED
:100FE00050E0682F70E08191DF0111979B01042E82
:100FF00002C0369527950A94E2F72170219528279B
:10100000292328272C934F5F5F4F4430510559F710
:1010100008959C01982F977083E0369527958A95BF
:10102000E1F7220F331F220F331FFB01E20FF31FE3
:1010300040E050E080E0219130E0092E02C036957A
:1010400027950A94E2F721703327042E01C0220F5E
:101050000A94EAF7822B4F5F5F4F4430510559F7EE
:101060000895282F862F9C3068F4263058F4622F7C
:1010700070E026E0929F600D711D112444EB51E059
:101080000E94DC070895292F9C3068F4863058F4BC
:1010900090E064EB71E036E0239F800D911D1124F8
:1010A0000E940908089580E00895A0E0B0E0EBE513
:1010B000F8E00C948E258C01E090D801F090D901D5
:1010C0008091DA019091DB01E82AF92ACFE0D0E0A3
:1010D000CC24C394D12CC6010C2E02C0880F991FBA
:1010E0000A94E2F78E219F21892B49F4219798F7E2
:1010F000B12C8B2DCDB7DEB7E9E00C94AA25BC2E20
:10110000B8018C2F0E941A0F019781F3F2CFCF9371
:10111000DF93D82FC92F0E9455086D2F7C2F0E9476
:101120001A0FDF91CF9108951F93CF93DF93162F5E
:10113000D72F9091B301992341F0862F972F0E94CA
:101140008708DF91CF911F910895882381F0862F22
:10115000972F0E945508C82F682F812F9D2F0E941E
:101160003108612F7D2F8C2F0E941A0FEACF862F16
:10117000972F0E944308C82FF4CF0F931F93CF934C
:10118000E091DC01C6E08091DD018E1304C0CF91B7
:101190001F910F9108950E2F10E0CE9FF0011124A2
:1011A000E252FE4F40815181628173818481958139
:1011B0000E943C07F8013196E770E5CF40910E029E
:1011C00050910F02609110027091110280911202F1
:1011D000909113020E943C0708951F93CF93DF93D1
:1011E00080911302803108F04CC080911002882356
:1011F00009F447C08091DC012091DD0130910E029D
:1012000060910F02C0911102D0911202732F7623C8
:101210002817B9F190E0209709F443C016E07F3F0A
:1012200009F43FC0189FF001199FF00D1124DF0150
:10123000A252BE4F11964C91119746132CC04C915F
:10124000431329C012964C91129741111EC0139658
:101250004D915C914C1B5D0B483C5105E0F4809135
:1012600013028F70806180931302ED51FE4F8081D5
:101270008F70806180838EE092E00E94BE060E94A3
:10128000BD08DF91CF911F9108950196877099272E
:101290002813C8CFF6CF0196877099272813BFCFA0
:1012A000F0CF01968770B4CFABE0B0E0EAE5F9E0AB
:1012B0000C948D258C0185E0F801DE0117960190D4
:1012C0000D928A95E1F7D8011296EC901297139639
:1012D000CD90DC9014975EE0A52E52E0B52E2091C3
:1012E0000E0230910F02809111029091120200972C
:1012F00009F440C1422F43234F3F09F43BC1F09012
:101300001002A601481B590BFF2009F409C1809166
:101310001302483C510508F0DBC011969C911197CF
:10132000803108F096C0391314C03C91321311C0BB
:10133000E1105AC08F708061809313020E94DE0812
:10134000C5010E94BE0680911302F8018583F12C2D
:101350002CC08F81C114D10409F443C0282F292344
:101360002F3F09F43EC0E1103FC0A091DC01309155
:10137000DD01EA2F46E0E42EA3131CC02F3F39F312
:1013800026E0E31337C08F8198850E948708292FB4
:1013900022952F70903408F441C02A5F2F702230BC
:1013A00008F451C0C8010E94BE068F2D2B96EAE0BA
:1013B0000C94A9254A2F50E0EA9ED0011124A25294
:1013C000BE4F11966C911197691307C06C91681309
:1013D00004C012966C916111E1C0DA011196A770F8
:1013E000CBCFEE2009F4B3CF8091130281608093BC
:1013F0001302ADCF4E2F50E02E9FF0011124E25288
:10140000FE4F6181961306C06081861303C062811E
:1014100061119DCFFA013196E770B3CF9F702230F2
:1014200040F0992359F0D80115969C91903130F4F1
:101430008ECF992319F0882309F489CF805E8830F4
:1014400008F485CFAFCF803F08F481CF815F823031
:10145000F7CF391317C0F8019081921313C0E11030
:1014600011C08583C8010E94BE0686E0F801AEE087
:10147000B2E001900D928A95E1F70E94DE08FF2408
:10148000F39493CFC8010E941F07882309F466C014
:10149000EE2009F463C080911302803270F0209135
:1014A0000E0230910F023A8329831B82DD82CC82A7
:1014B0008E83CE0101960E94BE0686E0F801AEE062
:1014C000B2E001900D928A95E1F70E94ED08D5CF28
:1014D000803198F44F81588569857A858B850E9483
:1014E00032078EE092E00E94BE0686E0D5011D9292
:1014F0008A95E9F70E94DE082ACFF80191819313BB
:10150000C1CF90819213BECFE110BCCF8583C801BB
:101510000E94BE0686E0D5011D928A95E9F7AFCFFD
:10152000483C5105F8F4EE20C9F0F801818183139D
:101530000BC08081821308C086E0AEE0B2E001906B
:101540000D928A95E1F79BCFC8010E941F07811178
:10155000B4CF80911302816080931302C8010E946E
:10156000BE068DCF4F81588569857A858B850E940F
:101570003207BBCFEE2091F3C8010E941F078823DA
:1015800069F386E0F801AEE0B2E001900D928A9531
:10159000E1F78EE092E00E946B0397CF8EE092E03D
:1015A0000E94BE06EEE0F2E0DF011D92EA94E9F748
:1015B000A1CFACE0B0E0EFEDFAE00C9494254F83BE
:1015C000588769877A878B879C87CE0107960E9408
:1015D00054098823D9F08A859B85892B61F04F8136
:1015E0005885842F85238F3F31F069857A858B85D7
:1015F0009C850E943C0716E08091DC019091DD0102
:10160000891344C02C96E3E00C94B02586E0FE01DB
:101610003796DE01119601900D928A95E1F78F8140
:1016200098852091DD014091DC016A857B85672BDF
:1016300011F389238F3FF9F230E0C90101968770D9
:10164000992750E08417950771F40E94FD061092C7
:10165000DD011092DC0186E0EEE0F2E0DF011D9298
:101660008A95E9F7C8CF96E0929FD001939FB00D7D
:101670001124A252BE4FFE01319601900D929A950F
:10168000E1F78093DD010E94BD08B5CF189FC0012E
:10169000112482529E4F0E945409882309F4B2CF2C
:1016A000E091DC011E9FF0011124E252FE4F4081C7
:1016B000518162817381848195810E943C07809170
:1016C000DC0190E00196877099278093DC0194CF2C
:1016D000682F80910001909101010E945C1D089586
:1016E000682F80910001909101010E946A1D089568
:1016F00080910001909101010E94781D08958091D0
:10170000340285958595859508958091340287707A
:10171000089590913402977081E0911101C080E0AA
:10172000089580915702089590915702982B9093B5
:1017300057020895982F909580915702892380939E
:101740005702089510925702089590915602982BCF
:10175000909356020895982F909580915602892370
:101760008093560208951092560208958091350292
:10177000089508950E94B90B08959091E10292FF97
:1017800008C090913502981721F0809335020E948D
:10179000BA0B089580913502882329F01092350202
:1017A00080E00E94BA0B0895CF93DF93E09100018F
:1017B000F0910101809157028083E0910001F09146
:1017C0000101808190915602892B8083909135028E
:1017D000992381F0E0910001F09101018081892B32
:1017E000808380910001909101010E94BF1C8111B2
:1017F0000E94CA0BC0910001D091010140E250E06B
:1018000064E172E0CE010E94D025892B59F080E27C
:10181000FE01A4E1B2E001900D928A95E1F7CE01BC
:101820000E94491CDF91CF91089508950E94150CE4
:1018300008959091E10292FF11C098E0899F900174
:101840001124622B609334020E948E07809134022F
:101850008595859585950E94160C08950E948E07A2
:1018600008951092340280E00E94160C0895209191
:1018700034028095822380933402982F97709111BF
:1018800013C030E0482F082E000C550B24173507E5
:1018900059F09091E10292FF07C085958595859555
:1018A0000E949E070E94310C08959091E10292FBE4
:1018B000222720F9281769F080FB92F99093E10222
:1018C0008091E0029091E1020E949D0C82E00E94D2
:1018D000370C08958091E10282FB882780F991E01E
:1018E00089270E94550C089581E00E94550C0895A7
:1018F00080E00E94550C08956FEF7FEF80E090E04C
:101900000E941226089580E090E00E94EE259C013E
:1019100081E0273E3E4F09F080E0089582E090E0AC
:101920000E94E625089583E090E00E94E625089550
:1019300084E090E00E94EE250895BC0184E090E0F0
:101940000E9412260895AB01BC018FE090E00E9436
:1019500006260895AB01BC0183E190E00E940626B3
:10196000089560E070E0CB010E94AA0C089560E049
:1019700070E0CB010E94A30C0E94B10C089567EEA9
:101980007EEF80E090E00E94122660E082E090E02E
:101990000E94F42560E083E090E00E94F42510921C
:1019A000DB011092DA0160E074E184E090E00E94D3
:1019B000122660E086E090E00E94F4256FEF87E059
:1019C00090E00E94F42540E050E0BA0188E090E009
:1019D0000E94062660E08DE090E00E94F42540E041
:1019E00050E0BA0188E190E00E94062660E087E1BD
:1019F00090E00E94F42540E050E0BA018CE190E0D4
:101A00000E94062660E070E080E290E00E941226CC
:101A100040E050E0BA0188E190E00E9406260E9472
:101A2000B70C08950E94BF0C0895682F8EE090E0D7
:101A30000E94F4250895A5E0B0E0E1E2FDE00C94F9
:101A400093250E94351E8C01809158029091590275
:101A50008017910791F08FEF89838A831B820E9400
:101A6000351E8160782F49815A816B81892F0E94B0
:101A7000370310935902009358022596E4E00C9422
:101A8000AF250E94411E60936A0270936B0280939F
:101A90006C0290936D02609366027093670280936C
:101AA0006802909369020895089508950E94550D63
:101AB000089508950E94590D089581E008958FE6D4
:101AC00090E10E942B1C0E94540D0E94560D089517
:101AD0000E945E120895089508950E946B0D0E9461
:101AE0006C0D08950E9472100E940B0308950E94CD
:101AF0002C1E0E9406100E94AD120E94A2110E948C
:101B0000720D0E9465170E94B7120E945A0D089527
:101B1000A5E0B0E0EEE8FDE00C948D250E945D0D9F
:101B200081110EC00E941B0D0E945E120E94851240
:101B30000E9469160E941E032596EAE00C94A925CE
:101B40000E94C6118AE5A82E82E0B82E750110E029
:101B5000F70101917F01812F0E9498101F5F1C30B7
:101B600009F440C00817A1F380916E0281FD0E9424
:101B70009E100E94680DC82E00E0802F0E949810D1
:101B8000182FF50191915F01891731F1D82ED926CF
:101B9000F12CEE24E3948E2D8D218823A9F0CC2006
:101BA00099F0F9820A8391E08E2D8123811101C081
:101BB00090E09B830E94351E8160782F49815A8175
:101BC0006B81892F0E943703F394EE0CF6E0FF122D
:101BD000E2CFF501319710830F5F0C3071F60E9450
:101BE000410DA2CF0813C0CF9DCF1F93CF93DF939A
:101BF0000E941F0FEC01811522E5920708F053C0E7
:101C0000811540E5940708F0DDC0803E9105F8F4A9
:101C10008D3C910508F0AEC0883A910580F4853A74
:101C2000910508F099C08130910521F00497813A1F
:101C3000910550F4CE01DF91CF911F910895885AFC
:101C400091094B9708F48BC0C0E0D0E0F3CF811529
:101C500050E49507F8F4C11580E2D80708F0CBC02E
:101C6000C83ED10538F3CE019A9581159F4160F7A2
:101C70008D2F0E94C30F182FCE0199270E941F0F8E
:101C8000212F30E0322F2227E901CC27DF71C82B2A
:101C9000D92BD0CF99270E941F0FCC27DF70C82BDC
:101CA000D92BD06AC7CF803842E59407C8F5803673
:101CB00052E5950708F067C0C03482E5D807B0F058
:101CC0008C2F86958695877020E2829FC001112413
:101CD000C37021E030E0A90102C0440F551FCA952E
:101CE000E2F7EA01C82BD92BDC68A4CFC03252E559
:101CF000D50708F041C08C2F8695869520E2829FFB
:101D0000C0011124C37021E030E0A90102C0440FDA
:101D1000551FCA95E2F7EA01C82BD92BDD688ACF97
:101D2000803C52E5950760F48F71C03AD24508F0C7
:101D30003FC090E0982F8827EC01C46FD06A7ACF1B
:101D4000805C9245809708F07FCFDC2FCC27CC2792
:101D5000DF71C06FD06A6ECFA497D0646BCFC85AC2
:101D6000D0E0CC0FDD1FC859DE4F0990D881C02DBF
:101D7000D46460CFD0655ECFCF71D0E0DC2FCC27AC
:101D8000C16FD06A57CF86958695877020E2829F73
:101D9000C0011124C37021E030E0A90102C0440F4A
:101DA000551FCA95E2F7EA01C82BD92BDA6842CF52
:101DB0000E94C30FC82FD0E0DC2FCC27CC27DF71C7
:101DC000D06238CF8F710E94C30F65E0D695C7955A
:101DD0006A95E1F7CF70D0E0DC2FCC27282F30E0D8
:101DE00084FF05C054E0220F331F5A95E1F7C22B40
:101DF000D32BD0691FCF8D2F8F710E94C30F182F47
:101E0000CE0199270E941F0F212F30E0322F222769
:101E100022273F71282B392BE901D2CF462F672F7C
:101E20007C3028F4463018F40E942C02089580E09B
:101E300090E008950E940E0F0E94F50D0895803ED7
:101E40009105D1F1C8F48133910509F47FC048F4BC
:101E50008932910509F46FC08A32910509F47DC079
:101E6000089589339105E1F082389105C9F08533F1
:101E7000910509F45BC00895843E9105D1F148F4C1
:101E8000823E910531F1833E910541F181EE90E072
:101E90000895863E9105C1F1873E9105E1F10895CF
:101EA0002091E0022370211165C02091E10223FFFF
:101EB00014C089E290E008952091E00220FD43C023
:101EC0003091E10230FF09C024FF4EC080E090E075
:101ED00008952091E00222FDF7CF08952091E002BD
:101EE00022FD45C03091E10230FD44C024FFF5CF12
:101EF000EDCF2091E10221FFF0CF8091E00284FD3F
:101F0000E5CF87EE90E008952091E00223FFE5CF32
:101F100024FDDCCFF6CF2091E00223FD2EC03091CE
:101F2000E10231FFE3CF84EE90E008952091E002DA
:101F300025FFD3CFBECF2091E00225FD21C0209107
:101F4000E10223FFCACF89E390E008952091E002E7
:101F500026FFC3CF8AE290E008952091E00226FF99
:101F6000BCCF81E390E0089583EE90E0089582EE87
:101F700090E0089580EE90E0089586EE90E0089558
:101F800085E390E0AACF9091E00292FF06C0282F4F
:101F900028712830F9F4877F846093FF06C0282FCA
:101FA00028712831F1F4877E84612091E10220FFBD
:101FB00006C0382F38713830D9F4877F816021FF0F
:101FC00006C0282F28712831D1F4877E816194FDC5
:101FD000877E0895282F24712430F9F68B7F88603E
:101FE000DCCF282F2471243101F78B7E8861DDCF6F
:101FF000382F3171313019F78E7F8860E0CF282F6C
:102000002171213121F78E7E8861E1CF1092DC02AF
:102010001092DD021092DE021092DF020895CF923C
:10202000DF92EF92FF92CF93DF9300D000D0CDB735
:10203000DEB76B017C010E945E12811112C00E940A
:10204000411E69837A838B839C83C61AD70AE80A68
:10205000F90AC092DC02D092DD02E092DE02F09238
:10206000DF020F900F900F900F90DF91CF91FF90B4
:10207000EF90DF90CF900895A4E0B0E0E2E4F0E1CB
:102080000C9495250E945E12882371F00E94411ED7
:1020900069837A838B839C8369817A818B819C811C
:1020A0002496E2E00C94B1250E94411E69837A8354
:1020B0008B839C838091DC029091DD02A091DE02F3
:1020C000B091DF0229813A814B815C81280F391F51
:1020D0004A1F5B1F29833A834B835C83DDCF80E0FB
:1020E000089508950E94830C811102C00E94120D70
:1020F0000E948E0C80936E020E94980C9093E102D5
:102100008093E0020E9471100E94930C90E00E9464
:1021100052078091D8019091D9010E9473070895C8
:1021200008950E949010089508950E9494100895B3
:10213000E82FF0E0E151FD4F80810895089580EA95
:102140008A95F1F7089500C008950E949F100895A0
:1021500008950E94A8100895A6E0B0E0E2EBF0E137
:102160000C9490250E945E12182F6091FB02882328
:1021700009F445C01A821982FE01339684E0DF011A
:102180001D928A95E9F7862F90E032977F01BF0173
:1021900081519D4F0E94C712DE2C0F2D8823B9F06C
:1021A0008091E20290E046E050E0B70181519D4FFE
:1021B0000E94D02521E020936F02892B99F410E032
:1021C0000E949510812F2696E7E00C94AC25809113
:1021D0006F028823A1F386E0D7011D928A95E9F763
:1021E00010926F02A091E202B0E0A151BD4F86E0D3
:1021F000ED2DF02F01900D928A95E1F7E1CF70E07F
:1022000061517D4F8091E20290E081519D4F0E948B
:1022100050130E94A910D6CFF894E82FE295EF70E2
:10222000F0E041A18F7021E030E0B90102C0660FFB
:10223000771F8A95E2F7CB01962F9095942391A36F
:1022400092A1892B82A3789408950F931F93CF9323
:10225000DF93C4EAD1E089918F3F11F00E940C1105
:1022600081E0CA3AD807B9F7CEE9D1E004EA11E033
:1022700089918F3F11F00E940C110C171D07C1F7B7
:10228000DF91CF911F910F910895A0E0B0E0EBE4B2
:10229000F1E10C948F25EC01D62E062F10E0C80139
:1022A0008C559E4F7C01FC0180818F3F09F445C015
:1022B000F894E82FE295EF70F0E091A18F7021E0A3
:1022C00030E001C0220F8A95EAF7892F822B81A383
:1022D00082A12095282322A378940E94A310EEE9DE
:1022E000F1E091E0C12C81918F3F81F0A82FA29560
:1022F000AF70A05EB0E02C9130E08F7002C03595D9
:1023000027958A95E2F72170892F211180E0C82A4C
:10231000990F81E0E43AF80731F7F70180818F3FA8
:1023200011F00E940C1161E0C11001C060E08D2D20
:102330000E94A510C00FD11FC882CDB7DEB7E8E05C
:102340000C94AB25809102018091020190E08111F3
:1023500001C096E09093FB0286E0891B8093E20225
:102360000E9425118CE0EFEEF2E0DF01982F1D9224
:102370009A95E9F7E3EEF2E0DF011D928A95E9F71D
:1023800086E00E9407120E9491100895ACE0B0E030
:10239000ECECF1E10C9492251A821982FE0133963D
:1023A0008AE0DF011D928A95E9F7F12C8E010F5F1B
:1023B0001F4F6F2DC8010E944511F394B6E0FB1228
:1023C000F8CF4CE050E0B80183EE92E00E94D025B7
:1023D00021E0892B99F420E06091FB0270E06151CB
:1023E0007D4F46E083EE92E00E940812182F0E9473
:1023F000AC10812B2C96E5E00C94AE258CE0F80116
:10240000A3EEB2E001900D928A95E1F7E5CF089531
:10241000A0E0B0E0EEE0F2E10C949025D82EE92E99
:10242000F62E072FC42F222349F081E080937202F9
:102430000E94351E90937102809370021091720277
:10244000111107C010E0812FCDB7DEB7E7E00C9483
:10245000AC2580917002909171020E945E1E0597DA
:1024600088F3D0E0AE016D2D7E2D8F2D902F0E9430
:10247000D025892B51F0AE016D2D7E2D8F2D902F03
:102480000E94DD2510927202DECF10E0FBCF0E9489
:10249000411E609377027093780280937902909343
:1024A0007A02089580937602089580917B028A30A3
:1024B00010F010927602809176020895CF93DF9308
:1024C00080917502811114C0C8ECD0E00E9465258E
:1024D000811117C08FE39CE90197F1F700C000005C
:1024E0002197209799F782E0809375020E946025DA
:1024F00081E090917502913009F080E0DF91CF91F9
:10250000089581E080937502F3CFA4E0B0E0EBE89A
:10251000F2E10C94952580917602811117C00E94FA
:102520005E12811113C08091770290917802A09180
:102530007902B0917A02BC01CD010E946D1E653313
:1025400078408105910510F00E94C21E2496E2E0B9
:102550000C94B1250E945E1208950E94AA128093E5
:1025600002010E945E1281110E94FD1208950E94D4
:102570005E12811104C00E9400130E944712089548
:1025800081E090917B029A3008F080E008950F93EB
:102590001F93CF93DF93EC01162F072F80917B02BF
:1025A0008A3090F4612F702FCE010E944D1381115B
:1025B00021C080917B028F3FB1F40E94351E909321
:1025C00074028093730209C0809173029091740227
:1025D0000E945E1E843F914028F780E0DF91CF91FA
:1025E0001F910F9108958F5F80937B028A3028F7A7
:1025F00081E0F4CF10927B02FBCF0E94C81A0895AD
:102600000E94CB1A0895A0E0B0E0E9E0F3E10C9459
:102610008F25FA0169017801C82F880FDD0B3097EB
:10262000B1F0DE0193E0AA0FBB1F9A95E1F7AD5F11
:10263000BE4F11968D919C91129784589D4F4C914D
:1026400050E0E417F50708F4AF010E94DD25CE0144
:102650000E94B61B182F8823D1F0E114F104B9F0C1
:1026600083E0CC0FDD1F8A95E1F7FE01ED5FFE4FA1
:10267000438150E0E416F50608F4A701CD5FDE4F74
:102680006C817D8164587D4FC6010E94DD25812FBC
:10269000CDB7DEB7E8E00C94AB250E946E14089528
:1026A0000E9492140895A1E0B0E0E9E5F3E10C94F2
:1026B000932581E089830E94551281110FC000E0AB
:1026C00010E020E030E041E050E0BE016F5F7F4F5E
:1026D00083E00E94031389830E945212898121960C
:1026E000E4E00C94AF25A8E0B0E0E9E7F3E10C9456
:1026F00093258091960290919702A0919802B091B3
:102700009902BC01CD010E946D1E11E06436710575
:102710008105910520F10E943C10DC01CB0102965D
:10272000A11DB11D89839A83AB83BC8300E010E0B7
:1027300020E030E044E050E0BE016F5F7F4F82E078
:102740000E940313182F882351F00E94411E6093AA
:102750009602709397028093980290939902812F2A
:102760002896E4E00C94AF25ABE0B0E0EAEBF3E1AF
:102770000C948D257B01A090AA01B090AB0101E0E3
:1027800010E09E01295F3F4F40E050E060E070E0C4
:1027900080E00E940313182F882309F44DC06501BF
:1027A0008FEFC81AD80A8091920290919302A0915B
:1027B0009402B0919502BC01CD010E946D1E688704
:1027C00079878A879B87643671058105910560F159
:1027D00006E010E09E012F5F3F4F40E050E060E0D8
:1027E00070E081E00E940313182F66E070E0C601DC
:1027F0000E9466179F8198132AC0112341F10E94FD
:10280000411E60939202709393028093940290937E
:10281000950286E0FE013196ACE8B2E001900D929F
:102820008A95E1F781E014C066E070E0C6010E947D
:1028300066179F818913CCCF86E0F5013196DE01C2
:10284000119601900D928A95E1F71111E2CF80E087
:1028500096E0ECE8F2E0D70101900D929A95E1F74D
:102860002B96EAE00C94A925A0E0B0E0EAE3F4E1BD
:102870000C948D25F82EE92EB62EA72E8A010E94E3
:10288000C012CC24C394D12C882319F08AE0C82E1E
:10289000D12CC1E0D0E06B2D7A2D8F2D9E2DF8012B
:1028A0000995811116C02196CC16DD0694F0CC9FB7
:1028B000C001CD9F900D900D112420E030E045E344
:1028C0004A95F1F700002F5F3F4F28173907B9F7F6
:1028D000E2CFCDB7DEB7EAE00C94A9250F931F93A2
:1028E000CF93DF93D82FC92F8B0144EB53E10E9484
:1028F0003414811106C080E0DF91CF911F910F91B8
:10290000089543E753E1B8018D2F9C2F0E943414A2
:10291000882389F343E553E1B8018D2F9C2F0E9452
:102920003414EACF0F931F93CF93DF93FB01C09131
:10293000AA01D091AB01CE01019626E0DC01019005
:102940000D922A95E1F766E070E00E946617888391
:102950006F81788589859A85009188021091890216
:1029600020918A0230918B026017710782079307CA
:1029700051F0609388027093890280938A02909349
:102980008B020E940F108B850E945212DF91CF9113
:102990001F910F9108950E943A200E94770D0E9486
:1029A000472008950E944C200E94880D0E946620B6
:1029B00008950E94CE1D0E9420200E945F0D0E945B
:1029C000CB140E94D2140E946D0DFBCF8091A20205
:1029D00080FF0DC06091270170E0660F771F60389F
:1029E0007105C0F561157105B9F1862F089581FF54
:1029F00007C06091270184E0689FB0011124EFCFE8
:102A000082FF04C06091270188E0F6CF8091A10287
:102A10008823E9F0909126016091270170E08917E1
:102A200030F093E0660F771F9A95E1F7D8CF869F35
:102A30009001879F300D112483E0220F331F8A9568
:102A4000E1F7692F70E0C9010E946B25C8CF68E0EB
:102A500070E0CBCF8FE7089581E008958091A202C6
:102A600080FF0CC06091240170E0759567957595A5
:102A700067956115710561F1862F089581FF06C084
:102A80006091240170E075956795F3CF6091240102
:102A900070E082FD15C02091A0022223B1F0909138
:102AA00023016091240170E0291750F4269FA001B2
:102AB000279F500D1124692F70E0CA010E946B25D9
:102AC00060387105B0F28FE7089561E070E0D4CF0F
:102AD00081E00895E3E3E80FE331E0F5F0E0EA5C3C
:102AE000F94D0C947F250E94E61481958093A602EF
:102AF00008950E94E614FACF0E94E614819580930F
:102B0000A50208950E94E614FACF0E942E15809324
:102B1000A70208950E942E158195F9CF0E942E15C7
:102B200081958093A80208950E942E15FACF815DA9
:102B3000990B21E030E001C0220F8A95EAF78091DD
:102B4000A402822B8093A40208958091A202816046
:102B50008093A20208958091A2028260F9CF8091B1
:102B6000A2028460F5CF4091A5028D3C59F480917A
:102B7000A60287FF0DC01092A602442359F41092BA
:102B8000A10208C08E3C81F48091A60218169CF325
:102B9000442381F08091A7029091A802892B811192
:102BA00059C01092A00208958F3C41F447FFF0CF26
:102BB0001092A5028091A6028823E0CF803D19F4EF
:102BC0001416B4F3E5CF9091A702893D29F41916A4
:102BD000FCF61092A702DCCF8A3D19F497FFD8CFFC
:102BE000F8CF9091A8028B3D29F497FFD1CF109296
:102BF000A802CECF8C3D19F41916CCF3C9CF9FE2B1
:102C0000980F983090F4815D990B21E030E0B90184
:102C100002C0660F771F8A95E2F7CB0180959091ED
:102C2000A40289238093A402B3CF8D3D31F4809117
:102C3000A2028E7F8093A202ABCF8E3D21F48091C1
:102C4000A2028D7FF7CF8F3D09F0A2CF8091A20223
:102C50008B7FF0CF08950E94351E2091A502309100
:102C6000A602232B222321F080939E0290939F02A1
:102C70002091A7023091A802232B222321F08093D8
:102C80009C0290939D0283EA92E00E94641C089546
:102C900086E0E3EAF2E0DF011D928A95E9F71092FF
:102CA000A1021092A0021092A2020895FC0182815A
:102CB00081110DC0838181110AC08481811107C0F7
:102CC00081E09581911101C080E08170089581E0DB
:102CD000FCCFA6E0B0E0EFE6F6E10C94922586E0AA
:102CE000E3EAF2E09E012F5F3F4FD90101900D9280
:102CF0008A95E1F71092A5021092A6021092A702FF
:102D00001092A8028B819C81892B8901882391F0E4
:102D100080919E0290919F020E945E1E9C01809174
:102D2000A1028823C9F14091280150E042175307BE
:102D300008F43FC08D819E81892B882399F0809172
:102D40009C0290919D020E945E1E9C018091A002B7
:102D5000882309F46DC04091250150E042175307C4
:102D600008F474C0B80183EA92E00E948A1D8111C0
:102D700005C083EA92E00E94561681110E942B162C
:102D800086E0F801A3EAB2E001900D928A95E1F79E
:102D90002696E5E00C94AE2540919B029AE0499F6F
:102DA000A00111244217530728F68F5F8093A102D8
:102DB00002C08F3FD1F7FB80FF2059F00E94E6143C
:102DC00091E01F140CF09FEF899F802D11248093B8
:102DD000A502FC80FF2059F00E94E61491E01F1428
:102DE0000CF09FEF899F802D11248093A6023091D3
:102DF000A502332309F49ECF2091A602222309F4D1
:102E000099CF45EB3403C0011124892F911101C0E2
:102E100081E08093A50245EB240390011124332324
:102E200019F03093A60286CF81E08093A60282CF6C
:102E300040919A029AE0499FA0011124421753073A
:102E400008F090CF8F5F8093A00202C08F3FD1F730
:102E5000FD80FF2059F00E942E1591E01F140CF008
:102E60009FEF899F802D11248093A702FE80FF2071
:102E700059F00E942E1591E01F140CF09FEF899FCE
:102E8000802D11248093A8023091A702332309F4E6
:102E900069CF2091A802222309F464CF45EB3403C3
:102EA000C0011124892F911101C081E08093A702F4
:102EB00045EB240390011124332319F03093A80229
:102EC00051CF81E08093A8024DCF0895FC01680F97
:102ED000791F8FEF91E3E617F70709F40895219121
:102EE000822728E030E087FF08C0880F892721501B
:102EF000310921153105B9F7EECF880FF8CFCF93FF
:102F0000DF93EC01FB018281882309F4D2C09E018A
:102F100030572332310508F0B2C00E94980C9093CC
:102F2000E1028093E002FE01E150F047E232F10558
:102F300020F4E75BF94D0C947F258091E0028160DD
:102F40008093E00293C08091E10288608093E10267
:102F50008DC08091E0028260F3CF8091E0028460B6
:102F6000EFCF8091E0028860EBCF8091E102816039
:102F7000EDCF8091E1028260E9CF8091E002806133
:102F8000DFCF8091E0028062DBCF8091E00280643D
:102F9000D7CF0E94FD068091E0028068D1CF80915A
:102FA000E0028C60CDCF8091E1028360CFCF809131
:102FB000E0028E7FC5CF8091E102877FC7CF8091ED
:102FC000E0028D7FBDCF8091E0028B7FB9CF8091F1
:102FD000E002877FB5CF8091E1028E7FB7CF8091ED
:102FE000E1028D7FB3CF8091E0028F7EA9CF8091E7
:102FF000E0028F7DA5CF8091E0028F7BA1CF0E9460
:10300000FD068091E0028F779BCF8091E002837F65
:1030100097CF8091E1028C7F99CF8091E00282FB73
:10302000992790F921E0922790FB82F990FB83F990
:1030300087CF8091E102982F909591708E7F892B98
:1030400090FB81F983CF9091E002892F8F7B96FFCF
:10305000806476CF0E94FD069091E002892F97FB55
:1030600087F980586DCF81E00E94150D8091E002B4
:103070009091E1020E949D0C0E94FD0680E0DF918C
:10308000CF91089580E0F0CF9091E002892F8F7E5C
:1030900094FF806155CF9091E002892F8E7F90FF41
:1030A00081604ECF9091E102892F877F93FF8860E6
:1030B0004DCF81E0E4CFEBEFE80FEF3308F066C0CF
:1030C000F0E0E559F94D0C947F250E94120D81E046
:1030D000089580916E02807F80936E0281E08093DC
:1030E000AC02F5CF0E948F02F2CF90916E02892F31
:1030F0008E7F90FF816080936E0280FDE8CF817F9C
:1031000080936E02E4CF90916E02892F8D7F91FFA4
:10311000826080936E0281FFDACF80916E028160BF
:10312000EFCF90916E02892F8B7F92FF8460809306
:103130006E0282FDF2CFCBCF90916E02892F877FF6
:1031400093FF886080936E0283FDE7CFC0CF0E941B
:10315000FD069091E002892F97FB87F980588093B4
:10316000E002B5CF81E090E00E9452070E94FD0688
:10317000AECF895321E030E0A90102C0440F551FB2
:103180008A95E2F7CA01F0CF8D51F4CF80E008951F
:1031900080E008950E94C8180895CF93C82F8091A9
:1031A000AC028130A1F08230A9F18111B8C00E9437
:1031B000910B823209F0B5C08C2F0E94C818811182
:1031C00011C08C2F0E945B188170CF9108950E94CE
:1031D000910B823289F38C2F0E94CA18882329F020
:1031E00081E0F2CF81E090E0EFCFC43161F030F4C4
:1031F000CB30B1F3C03151F080E0E6CFC93219F0E5
:10320000C83371F3F9CF1092AC02F6CF82E080930D
:10321000AC02E6CFCF3409F46FC068F4C83248F48A
:10322000CE3150F5C73009F44BC0C431D1F081E044
:10323000CCCFC932FBCFC13509F453C091E0C235C0
:1032400009F45BC0C03599F7E091A902F091AA0298
:10325000309769F380818A50990B97FF5EC0108286
:10326000E6CF8091AB02882311F31092AB0210924B
:10327000AA021092A902DBCFCD51C093AB02C43099
:10328000C9F078F488E291E0C23031F087E291E051
:10329000C33011F08BE992E09093AA028093A902C7
:1032A000C6CFC53051F083E291E0C630A9F3109249
:1032B000AB02BDCF86E291E0EFCF84E291E0ECCFAC
:1032C00010929B0284E180932801C09327018CE334
:1032D0008093260188E08093240188E28093230173
:1032E000A6CFE091A902F091AA02309709F49FCFEE
:1032F00080818150990BB1CF9AE0E091A902F091C1
:10330000AA02309709F493CF8081890F9927991FDA
:103310008F3F910511F00CF08FEF808388CF1092D2
:10332000AC0280E052CFCF93DF93EB0186319C4714
:1033300019F50E94910B9A819923A1F08A7A91E064
:10334000811101C090E09093AD02882349F085E39C
:103350000E94680B0E94D40B80E0DF91CF9108950A
:1033600089E2F6CF8091AD02882321F085E30E94A7
:10337000700BF0CF89E2FBCF81E0EFCF0F931F936B
:10338000CF93DF93C42FD22FFC0182818823C9F011
:103390004093B0020E94351E9093AF028093AE021C
:1033A00080E28C0F883040F4C77081E001C0880F44
:1033B000CA95EAF70E948C04DF91CF911F910F917B
:1033C00008951091B00214133CC08091AE02909108
:1033D000AF020E945E1E883C910598F5C0E2CD0FB9
:1033E0001D1741F180E2810F883040F4177081E0B1
:1033F00001C0880F1A95EAF70E949304C83020F0A4
:10340000802F0E948304D8CF91E08D2F877001C058
:10341000990F8A95EAF7892F0E948C04802F0E94C9
:103420008304D77081E001C0880FDA95EAF70E9423
:103430009304C2CF802F0E948304C83008F0BCCF11
:10344000F0CF80E28C0F883008F0B6CFC77081E0F3
:1034500001C0880FCA95EAF7EACF0F93FC01CB01B0
:10346000E851FC47E730F10590F5E655F94D0C942D
:103470007F2506E221EE41EE6AE17CE70E94BE195B
:1034800080E00F91089507E225EE45EE6BE17CE7C1
:10349000F5CF06E221EE40EE68E17CE7EFCF07E2F0
:1034A00025EE44EE69E17CE7E9CF06E221EE42EE4B
:1034B0006CE17CE7E3CF07E225EE46EE6DE17CE7C9
:1034C000DDCF08E221E045EE6EE17CE7D7CFFB01DE
:1034D000828181111092B00281E0D3CF8EE1489BAE
:1034E00003C081508111FBCF489BFECF08955898AF
:1034F00080E28A95F1F7589A0895FC012BE02A950D
:10350000F1F728E090E080E031E040E14A95F1F702
:10351000880F489B02C08160932742E04A95F1F7EB
:10352000000040E14A95F1F721502111EECF20E152
:103530002A95F1F729B132E03A95F1F7000040E120
:103540004A95F1F7217092272081920F9083089578
:10355000A1E0B0E0EEEAFAE10C94912519828C0129
:103560007C01E60EF11C0E151F0541F481E09981E6
:10357000911180E02196E6E00C94AD250E946E1A30
:10358000CE0101960E947D1AF80181938F01EBCF45
:10359000509A589A08955098589AE89AE9E6F0E0B7
:1035A00080818C7F808308956150770B91E001C00A
:1035B000990F6A95EAF7692F90E021E0611108C040
:1035C000992399F0589A80E28A95F1F758980895CE
:1035D000362F3823332339F0589A922730E23A9520
:1035E000F1F76695EBCF5898F9CF5898ECCFFF924A
:1035F0000F931F93CF93DF93EC018C01060F111DE6
:10360000C017D10729F4CDB7DEB7E5E00C94AE259D
:10361000F9900E94771A68E08F2D0E94D41AF0CF9B
:103620001F920F920FB60F9211240F931F932F9397
:103630003F934F935F936F937F938F939F93AF933A
:10364000BF93EF93FF93CF93DF930F92CDB7DEB786
:1036500019820E946E1ACE0101960E947D1A082FCF
:10366000069506950695982F92959570202F2570B2
:10367000920F292F237096959695920F9827977001
:103680008981892B81115CC0053008F059C080E127
:103690008A95F1F7589A509A82E08A95F1F700C01E
:1036A000589888E0089F80011124D801AD5FBE4F73
:1036B0001696ED91FC9117973097A9F06091AA01A9
:1036C0007091AB0114962D913C911597260F371FE1
:1036D00011968D919C911297680F791F13964C91BA
:1036E00013978C910995F801ED5FFE4F6381662376
:1036F00051F02091AA013091AB0184819581820F14
:10370000931F0E94F71A0E94771A80E18A95F1F7B9
:1037100058985098589A80E18A95F1F7F801ED5F32
:10372000FE4F6081662351F02091AA013091AB01D8
:1037300081819281820F931F0E94A81A0E946E1AA3
:103740000F90DF91CF91FF91EF91BF91AF919F913A
:103750008F917F916F915F914F913F912F911F9129
:103760000F910F900FBE0F901F9018950F931F93FE
:10377000CF93DF938C0105970CF065C0F894509AB5
:10378000589885E08A95F1F70000C02FC695C5705E
:10379000802F8570C80F8C2F8370C695C69593E0D7
:1037A000000F111F9A95E1F7C80FC8018C2BEC018F
:1037B0000E94771A00C068E08C2F0E94D41A90E112
:1037C0009A95F1F75098589A489B35C087E090E059
:1037D000489933C0F801ED5FFE4F6381662361F0C5
:1037E0002091AA013091AB0184819581820F931FB2
:1037F0000E94A81A882321F10E946E1A80E28A95FD
:10380000F1F75898509A90E19A95F1F7F801ED5F29
:10381000FE4F6081662351F02091AA013091AB01E7
:1038200081819281820F931F0E94F71A0E94771A5A
:10383000789481E009C000C0C7CF0197009749F490
:10384000509A589A789480E0DF91CF911F910F9110
:10385000089500C0BDCF9093AD018093AC01089551
:103860009093B7028093B60208950E945E12811170
:1038700003C08091B1020895E091B602F091B702C1
:10388000309729F00190F081E02D0995089580E0AE
:103890000895DC01E091B602F091B702309799F0FB
:1038A00080913101882351F08091E00287FF06C0AA
:1038B0008C9111968C93119786E08C930280F38102
:1038C000E02DCD0109950895DC01E091B602F0915B
:1038D000B702309739F082E08C930480F581E02DB7
:1038E000CD0109950895A3E0B0E0E9E7FCE10C946F
:1038F00095259C018091B4029091B502821793079F
:10390000A1F03093B5022093B402E091B602F09199
:10391000B702309751F083E089833B832A83068086
:10392000F781E02DCE01019609952396E2E00C94F3
:10393000B125A3E0B0E0EFE9FCE10C9495259C01F2
:103940008091B2029091B30282179307A1F0309355
:10395000B3022093B202E091B602F091B702309721
:1039600051F084E089833B832A830680F781E02D30
:10397000CE01019609952396E2E00C94B1259C01B5
:103980002E5F3F4F80913101882321F08091E0022A
:103990009DE187FF95E080E0F90140812F5F3F4F77
:1039A00041118F5F9150C0F708959C01662301F18A
:1039B000809131018823F1F08091E00287FF1AC0E5
:1039C000462F469546954695603F90F4677081E096
:1039D00090E002C0880F991F6A95E2F7240F311D0D
:1039E000F901228130E02823392381E0232B71F46F
:1039F00080E00895F9013296285F3F4F8191861744
:103A000021F0E217F307D1F7F3CF81E008959C018D
:103A1000FC0132968FEF90E04191461751F08F3FB5
:103A200019F4411101C0892F9F5F9630A9F78F3F8C
:103A300009F40895280F311D87FD3A95F901628335
:103A400008959C01FC013296285F3F4F81918613B7
:103A500003C0DF0111971C92E217F307B9F708952D
:103A6000FC01862F869586958695603F60F4E80F69
:103A7000F11D677021E030E001C0220F6A95EAF77E
:103A80008281822B82830895FC01862F86958695FC
:103A90008695603F80F4E80FF11D677081E090E04B
:103AA0009C0102C0220F331F6A95E2F7B9016095AD
:103AB000828168236283089520913101222339F0A5
:103AC0002091E00227FF03C00E94301D08950E944C
:103AD000071D089520913101222339F02091E00241
:103AE00027FF03C00E94441D08950E94211D0895D0
:103AF000FC01329680913101882351F08091E002DF
:103B000087FF06C08EE1DF011D928A95E9F70895CF
:103B100086E0F9CF46E050E00E94D0259C0181E08C
:103B2000232B09F480E0089508950E94941D0895C0
:103B30008F5F8093B8020E94951D089583E0809363
:103B4000B8020E94951D08950E94981D089581E075
:103B50008093B8020E94951D08950E94A71D0895A4
:103B6000089508950E94B11D0895089508950E9432
:103B7000B01D0895CF930E94B51D0E94C6110E94EA
:103B8000B61DC0E08C2F0E949810811105C0CF5F38
:103B9000CC30C1F7CF91089581E0FCCF85B7806824
:103BA00085BF85B7806885BF08951F921FB61F9295
:103BB00011248F939F93AF93BF938091B90281118A
:103BC00013C08091FC029091FD02A091FE02B09181
:103BD000FF024196A11DB11D8093FC029093FD024E
:103BE000A093FE02B093FF02BF91AF919F918F917E
:103BF0001F901FBE1F90189580910403843031F1EF
:103C00000E94EE021092B90288E190E020E40FB623
:103C1000F894A895809360000FBE2093600083B74E
:103C2000817F846083BF83B7816083BF78948895E8
:103C300083B78E7F83BF0FB6F894A89580916000FC
:103C4000886180936000109260000FBE08950E940A
:103C5000FD060E94F302089582E084BD93E095BDC5
:103C60009AEF97BD80936E0008952FB7F8948091D6
:103C7000FC029091FD02A091FE02B091FF022FBFC5
:103C80000895A4E0B0E0E7E4FEE10C9495258FB739
:103C9000F8942091FC023091FD024091FE02509177
:103CA000FF0229833A834B835C838FBF69817A81CA
:103CB0008B819C812496E2E00C94B1259C014FB746
:103CC000F8948091FC029091FD02A091FE02B091C7
:103CD000FF024FBF821B930B0895A4E0B0E0E3E71F
:103CE000FEE10C949325462F572FBC012FB7F89473
:103CF0008091FC029091FD02A091FE02B091FF0222
:103D00002FBF8C019D01041B150B260B370BC9011E
:103D1000B8012496E4E00C94AF2578941F921FB666
:103D20001F9211248F939F93AF93BF938091FC02B6
:103D30009091FD02A091FE02B091FF020196A11D9B
:103D4000B11D8093FC029093FD02A093FE02B093FC
:103D5000FF02BF91AF919F918F911F901FBE1F9047
:103D6000189587E797E7909301088093000888E10A
:103D70009AE00FB6F894A895809360000FBE9093D8
:103D80006000FFCF88E19AE00FB6F894A895809381
:103D900060000FBE90936000FFCF8091DA0208951B
:103DA000282FCB01BA01309104033430E1F42F7095
:103DB0002093E9002FEF3091E80035FD07C035ED85
:103DC0003A95F1F7000021502111F5CF2091E8003C
:103DD00025FF09C040E050E00E94DE208091E8000D
:103DE0008E778093E8000895BC0143E050E082E0C4
:103DF0000E94D01E0895BC0146E050E082E00E947F
:103E0000D01E0895CF93DF93D82FC92F8091310111
:103E1000811113C048E050E06D2F792F81E00E949E
:103E2000D01E80E2ED2FFC2FAAEBB2E001900D92A4
:103E30008A95E1F7DF91CF9108958091E00287FDA7
:103E400006C048E081E050E06D2F7C2FE8CF40E2D3
:103E500082E0F9CF80910303811109C00E9466229C
:103E60000E94C3228091E20084608093E200089562
:103E70001092030308950E94A71D08956091000306
:103E800081E0611101C080E00E949E1D0895909123
:103E9000040381E0943009F080E0609100030E9407
:103EA000A41D089542E061EC81E00E94E22142E21B
:103EB00061EC82E00E94E2219091040381E0943061
:103EC00009F080E0609100030E94981D08958091A0
:103ED0000603893089F148F4823009F4A0C08330A8
:103EE00009F45AC0813041F008958A3009F487C03E
:103EF0008B3009F46CC0089580910503813A09F074
:103F00004AC08091E800877F8093E8008091090390
:103F100090910A03892B61F060E080E090E070E00E
:103F20000E942D218091E8008B778093E80008950E
:103F300060E28AEB92E0F3CF80910503813259F57C
:103F40008091090390910A03029728F58091E80077
:103F5000877F8093E8008091E80082FF18C09091ED
:103F6000F3008091F200029731F48091F1008130EA
:103F700011F0863021F48091F1008093DA02809173
:103F8000E8008B778093E8000E94162204C080919D
:103F900004038111E0CF089580910503813AD9F798
:103FA0008091090390910A03892BA9F78091E80079
:103FB000877F8093E8008091E80080FFFCCF8091AC
:103FC00031018093F1008091E8008E77DBCF809102
:103FD0000503813201F78091090390910A03892B2F
:103FE000D1F68091E800877F8093E8000E94162236
:103FF00080910703809331010E94FD06089580910E
:104000000503813241F68091E800877F8093E800C4
:104010000E941622809108038093DB02089580910C
:104020000503813A09F0B7CF8091E800877F80933C
:10403000E8008091E80080FFFCCF8091DB02C1CFD7
:1040400084B7877F84BF0FB6F894A89580916000ED
:10405000886180936000109260000FBE80E890E05D
:104060000FB6F89480936100909361000FBE0E9498
:10407000AD1D08950E9466220E94C322E2EEF0E088
:1040800080818460808378940E944625089589E227
:1040900091E00E94301C089580910403853031F432
:1040A00080910403853019F00E94271E08950E9414
:1040B000FC1D80910203882399F30E94BA1D882376
:1040C00079F30E94C8200E94FD06EACF08959A0164
:1040D00040910B0350910C030E946F200895AC0196
:1040E000CB01D901252F332723303105E1F058F4D6
:1040F00021303105C9F122303105D9F180E090E05D
:1041000020E030E01EC02132310521F1223231059C
:10411000A9F7892BC1F16130710581F786EB90E039
:104120002BEE32E00EC0CA019927413069F082308F
:10413000910569F0EAE9F2E0892B01F7849190E0BA
:104140009F012D933C930895EAE8F2E0F7CFECE568
:10415000F2E0F4CF892B91F06130710579F689E0B6
:1041600090E029EC32E0EDCF82E190E029ED32E001
:10417000E8CF8BE390E02EE932E0E3CF89E090E0F6
:1041800020EB32E0DECF80E490E021EA33E0D9CFCB
:1041900080E189BD82E189BD09B400FEFDCF809137
:1041A000D8008F7D8093D8008091E000826080935A
:1041B000E0008091E00081FDFCCF0895AF92BF92B6
:1041C000CF92DF92FF920F931F93CF93DF936C01F7
:1041D000EB018A010E943522F82E811123C00115BE
:1041E000110539F0F80180819181C81BD90BC80EE7
:1041F000D91EA12CB12C2097A9F08091E80085FD53
:1042000022C08091E8008E778093E80001151105A7
:10421000A1F0F801808191818A0D9B1D918380839B
:1042200085E0F82E8F2DDF91CF911F910F91FF9098
:10423000DF90CF90BF90AF9008950E9435228823E1
:10424000E1F2F82EEFCFF60181916F018093F1003A
:104250002197FFEFAF1ABF0ACECFFC019B018091DF
:104260000B0390910C038617970718F0672B61F0EA
:10427000C90140E0009771F441110CC08091E80041
:1042800082FF35C080E008958091E8008E778093AA
:10429000E800EECF209104032223A9F12530A9F1F3
:1042A0002091E80023FD2DC02091E80022FDE6CFFB
:1042B0002091E80020FFDECF3091F3002091F20042
:1042C000009719F02830310558F041E028303105C9
:1042D00009F040E02091E8002E772093E800CACF53
:1042E00041914093F10001972F5F3F4FE9CF8091BB
:1042F0000403882341F0853041F08091E80083FF7A
:10430000BDCF81E0089582E0089583E00895FC0127
:104310009B0180910B0390910C038617970718F06F
:10432000672B61F0C90140E0009771F441110CC0A6
:104330008091E80082FF36C080E008958091E80017
:104340008E778093E800EECF209104032223B1F111
:104350002530B1F12091E80023FD2EC02091E80026
:1043600022FDE6CF2091E80020FFDECF3091F30060
:104370002091F200009719F02830310558F041E003
:104380002830310509F040E02091E8002E77209395
:10439000E800CACF44914093F100319601972F5F16
:1043A0003F4FE8CF80910403882341F0853041F0EE
:1043B0008091E80083FFBCCF81E0089582E00895FA
:1043C00083E00895982F973028F08F708093E9004C
:1043D00081E008959093E900242F762F50E09817FC
:1043E00031F07091EC002091ED005091F00021FD32
:1043F00002C09F5FE8CF3091EB003E7F3093EB002F
:104400003091ED003D7F3093ED003091EB00316055
:104410003093EB007093EC002093ED005093F0008C
:104420002091EE0027FDE5CF80E0089580910503FF
:1044300087FF13C08091E80082FF06C08091E800EA
:104440008B778093E80004C0809104038111F2CF40
:104450000895809104038823D9F38091E80080FFB8
:10446000F8CF8091E8008E77ECCF2091E400309176
:10447000E50095E6A9018091EC008170882331F078
:104480008091E80080FF06C080E008952091E80058
:1044900022FD1BC080910403882391F0853091F0A8
:1044A0008091EB0085FD10C02091E4003091E50083
:1044B0004217530701F391509111DCCF84E0089526
:1044C00082E0089583E0089581E008950E94D52256
:1044D0000E94DD22E0EEF0E0808181608083E8EDE3
:1044E000F0E080818F77808319BCA7EDB0E08C91DC
:1044F0008E7F8C9380818F7E80831092030308953A
:104500000F931F93CF93DF930E94D5220E94DD2249
:10451000C8EDD0E088818F77888388818068888320
:1045200088818F7D888319BC109204031092000348
:10453000109202031092010300EE10E0F801808156
:104540008B7F808388818160888342E060E080E0A7
:104550000E94E221E1EEF0E080818E7F8083E2EE36
:10456000F0E0808181608083808188608083F801B1
:1045700080818E7F8083888180618883DF91CF9165
:104580001F910F910895E8EDF0E080818F7E808388
:10459000E7EDF0E080818160808384E082BF81E08C
:1045A000809303030E9480220895E8EDF0E080816B
:1045B0008E7F80831092E20008951092DA001092AC
:1045C000E10008951F920F920FB60F9211242F93BE
:1045D0003F934F935F936F937F938F939F93AF938B
:1045E000BF93EF93FF938091E10082FF0BC0809116
:1045F000E20082FF07C08091E1008B7F8093E100A1
:104600000E9445258091DA0080FF19C08091D80072
:1046100080FF15C08091DA008E7F8093DA00809150
:10462000D90080FF94C080E189BD82E189BD09B4D1
:1046300000FEFDCF81E0809304030E942A1F809139
:10464000E10080FF19C08091E20080FF15C08091D9
:10465000E2008E7F8093E2008091E200806180938F
:10466000E2008091D80080628093D80019BC85E078
:10467000809304030E943E1F8091E10084FF29C0C3
:104680008091E20084FF25C080E189BD82E189BD7F
:1046900009B400FEFDCF8091D8008F7D8093D800B3
:1046A0008091E1008F7E8093E1008091E2008F7E17
:1046B0008093E2008091E20081608093E20080912B
:1046C0000003882309F449C084E0809304030E9416
:1046D000471F8091E10083FF29C08091E20083FFA2
:1046E00025C08091E100877F8093E10082E0809384
:1046F0000403109200038091E1008E7F8093E1001B
:104700008091E2008E7F8093E2008091E2008061E0
:104710008093E20042E060E080E00E94E22180912C
:10472000F00088608093F0000E943B1FFF91EF91A2
:10473000BF91AF919F918F917F916F915F914F91B9
:104740003F912F910F900FBE0F901F90189519BC9D
:10475000109204030E94381F72CF8091E30087FFFC
:1047600002C083E0B2CF81E0B0CF1F920F920FB6AC
:104770000F921124FF920F931F932F933F934F9308
:104780005F936F937F938F939F93AF93BF93CF93D9
:10479000DF93EF93FF9309EE10E0F8018081C09161
:1047A000EC00C795CC27C7958F70FC2EF82A108295
:1047B000C0EFD0E08881877F888378940E94FE23B1
:1047C000F8011082888188608883CF2DCF70C083E4
:1047D000FF91EF91DF91CF91BF91AF919F918F9119
:1047E0007F916F915F914F913F912F911F910F9109
:1047F000FF900F900FBE0F901F901895AAE2B0E0A7
:10480000E4E0F4E20C94942585E093E0FC01019649
:104810002091F100208323E08D309207B9F70E94A8
:10482000671F8091E80083FF38C080910503909155
:1048300006039A3090F5E92FF0E0EF54F94D0C940F
:104840007F25803889F0823841F5809109038F7087
:10485000873018F58093E9008091EB0085FB88276D
:1048600080F91092E90006C0809101039091020343
:10487000911182609091E800977F9093E800809377
:10488000F1001092F1008091E8008E7723C0811131
:1048900016C080910703813011F18091E80083FFF9
:1048A0000AC08091E800877F8093E8008091EB0048
:1048B00080628093EB00AA96E3E00C94B0258230EE
:1048C00061F780910703882389F01092E9008091B5
:1048D000E800877F8093E8000E941622DECF81E007
:1048E000933009F080E080930203EFCF80910903B9
:1048F0008F702FEF280F263080F68093E9002091EB
:10490000EB0020FFE2CF933031F48091EB00806226
:104910008093EB00DACF9091EB0090619093EB00E5
:1049200021E030E0A90102C0440F551F8A95E2F74B
:104930004093EA001092EA008091EB008860E8CF93
:104940008111ABCF109107031F778091E30080782E
:10495000812B8093E3008091E800877F8093E800BB
:104960000E9416228091E80080FFFCCF8091E30036
:1049700080688093E30083E0111101C082E080939E
:1049800004038BCF8058823008F087CF80910703D3
:10499000909108038C3D53E0950799F583E08A8355
:1049A0008AE289834FB7F894DE01139620E03EE057
:1049B00051E2E32FF0E050935700849120FF03C0B1
:1049C00082958F703F5F8F708A30C8F0895C90E06D
:1049D0008D939D932F5F243161F74FBF8091E80045
:1049E000877F8093E8006AE270E0CE0101960E9422
:1049F0002D218091E8008B778093E8004ECF805D79
:104A0000E6CF6091090370910A03AE014F5F5F4FDB
:104A10000E946720BC01892B09F43FCF8091E800F8
:104A2000877F8093E80089819A810E948721E1CF66
:104A3000803809F032CF8091E800877F8093E800CA
:104A4000809100038093F1001ECF811126CF9091B9
:104A50000703923008F021CF8091E800877F809390
:104A6000E800909300030E9416228091000388239F
:104A700031F084E0809304030E94521F0ECF809196
:104A8000E30087FDF6CF81E0F5CF0895CF938091C5
:104A90000403882399F08091E900C091EC00C79548
:104AA000CC27C7958F70C82B1092E9008091E80041
:104AB00083FD0E94FE23CF70C093E900CF9108953B
:104AC0000E9466221092040308958091E300881FDB
:104AD0008827881F089597FB072E16F4009407D0A7
:104AE00077FD09D00E94BC2507FC05D03EF49095C7
:104AF00081959F4F0895709561957F4F0895EE0FB2
:104B0000FF1F0590F491E02D09942F923F924F9250
:104B10005F926F927F928F929F92AF92BF92CF924D
:104B2000DF92EF92FF920F931F93CF93DF93CDB756
:104B3000DEB7CA1BDB0B0FB6F894DEBF0FBECDBFCE
:104B400009942A88398848885F846E847D848C849F
:104B50009B84AA84B984C884DF80EE80FD800C81A8
:104B60001B81AA81B981CE0FD11D0FB6F894DEBF8B
:104B70000FBECDBFED010895AA1BBB1B51E107C0BD
:104B8000AA1FBB1FA617B70710F0A61BB70B881FDD
:104B9000991F5A95A9F780959095BC01CD0108956C
:104BA000FB01DC0104C08D910190801921F441507A
:104BB0005040C8F7881B990B0895FB01DC0102C027
:104BC00001900D9241505040D8F70895F999FECFC9
:104BD00092BD81BDF89A992780B50895A8E1B0E00B
:104BE00042E050E00C941A26262FF999FECF92BD90
:104BF00081BDF89A019700B4021639F01FBA20BDA2
:104C00000FB6F894FA9AF99A0FBE08950396272FD3
:104C10000E94F5250E94F425252F0E94F525242FBA
:104C20000C94F5250196272F0E94F5250C94F42568
:104C3000DC01CB01FC01F999FECF06C0F2BDE1BD5C
:104C4000F89A319600B40D9241505040B8F708954B
:104C5000F894FFCFD704D704070507058F05AC05E7
:104C600032053205B105280639063906731579155E
:104C70007C15821597159715971597159715971504
:104C80009715971585158A158E159415A515AB15CD
:104C9000AF15D7174B18DF17A917AD17E317B117C3
:104CA000E717F317BD174418C117F717C517FB17F8
:104CB0002318C917FF172A18CF1705180D18B5178D
:104CC000EB17B917EF17D31709181918331842182B
:104CD000A317DB1752187218691875186718C618C9
:104CE000C6186718C618C6189118C6189C18A718B1
:104CF000C618C618C618C6186718C618C618671882
:104D0000C6188318C618C618C418C418C418C418FE
:104D1000C418C418C418C418C418B218C618721815
:104D20006518C618C618C618C618C618C618C618F4
:104D3000C618C618C618B218C618C6186718C618F6
:104D4000B918B918B918B918B918B918B918B918DB
:104D5000B918B218491A4F1A391A431A551A5B1A58
:104D6000611A212447244D2447244D24A024C22421
:064D70004D241825252545
:104D760036020100000001000000000000000601EC
:104D86000000000407000000000000010B00000006
:104D96000000002808503C0714CD1E021FFB1EF41D
:104DA6001E01E200E900EA00B500B600B700CD003A
:104DB6008301CC008A01920194012102230224027C
:104DC6002502260227022A02B300B4006F007000F3
:104DD6009F01CB019F02A002E200E900EA00B500B4
:104DE600B600B700CD008301CC008A019201940180
:104DF6002102230224022502260227022A02B300E8
:104E0600B4006F0070009F01CB019F02A002946660
:0C4E160097C63435F6F7313332367C0293
:00000001FF
