:100000000C94A9010C94201A0C94C6010C94C601FE
:100010000C94C6010C94C6010C94C6010C94C60144
:100020000C94C6010C94C6010C94D9210C94AD22F9
:100030000C94DD1C0C94C6010C94C6010C94C601F2
:100040000C94C6010C94C6010C94C6010C94C60114
:100050000C94C6010C94801D0C94C6010C94C6012E
:100060000C94C6010C94C6010C94C6010C94C601F4
:100070000C94C6010C94C6010C94C6010C94C601E4
:100080000C94C6010C94C6010C94C6010C94C601D4
:100090000C94C6010C94C6010C94C6010C94C601C4
:1000A0000C94C6010C94C6010C94C60129001E00D4
:1000B0001F002000210022002B0014001A0008005D
:1000C00015001700E00004001600070009000A00F0
:1000D000E1001D001B0006001900050000000000E3
:1000E0003500010021522C00000000003900E20020
:1000F0002800E300230024002500260027002D000F
:100100001C0018000C00120013002E000B000D0044
:100110000E000F00330034001100100036003700CD
:10012000380031002A00E1002F00300000000000FC
:100130002800E20046004C000000000045003A00A4
:100140003B003C003D003E0001001E001F0020005F
:100150002100220001004A004B004E004D004600E5
:10016000010001000100010001002F00000000005B
:100170000100010001000100000000000100010079
:10018000010001003F0040004100420043004400E4
:100190002300240025002600270001005000510004
:1001A00052004F0001000100300001000100010079
:1001B0000100010001000100D100D2000000000098
:1001C0000100010001000100000000002C034400B8
:1001D00061006300740079006C002D004D00610027
:1001E0006E00750066006F0072006D002000280030
:1001F000350078003600290000000E0374007300FB
:1002000068006F0072007400000004030904090212
:100210003B00020100A0FA090400000103010100F3
:100220000921110100012240000705810308000196
:10023000090401000103000000092111010001224D
:10024000B600070582032000011201000200000031
:10025000084D44363501000102000105010902A1E3
:100260000185020901A100050919012908150025C8
:1002700001950875018102050109300931158125B3
:100280007F95027508810609381581257F950175CE
:10029000088106050C0A38021581257F950175082D
:1002A0008106C0C005010980A101850319012AB793
:1002B00000150126B700950175108100C0050C09D5
:1002C00001A101850419012AA002150126A00295A9
:1002D0000175108100C005010906A1018506050709
:1002E00019E029E715002501950875018102050728
:1002F000190029EF1500250195F075018102050807
:100300001901290595057501910295017503910162
:10031000C005010906A101050719E029E715002517
:10032000019508750181029501750881010507197C
:100330000029FF150026FF009506750881000508B5
:100340001901290595057501910295017503910122
:10035000C00011241FBECFEFDAE0DEBFCDBF11E039
:10036000A0E0B1E0E8E3FBE402C005900D92AA3AF8
:10037000B107D9F723E0AAEAB1E001C01D92A53088
:10038000B207E1F70E94FD130C941C250C940000A9
:100390008230B8F46C30A8F4463098F450E096E01F
:1003A000699F400D511D1124FA0198E4899FE00DC9
:1003B000F11D1124EE0FFF1FE455FF4F859194911D
:1003C000089581E090E008950E94C801089581E0B9
:1003D000089581E008950E94E901089508950E941A
:1003E000EE010895A5E0B0E0E8EFF1E00C94882478
:1003F00049835A833091B10189819A81311119C0A1
:10040000662399F0222389F00E940408182F682F90
:1004100089819A810E94E00769817A81812F0E94F7
:10042000ED0E2596E3E00C94A4240E94F207182F09
:10043000F3CF0E94040869817A81F1CFFC01262F55
:10044000408151816281738184810E94F20108950B
:1004500081E00895CF93DF93EC0160E00E941E02DB
:10046000BE010E94EF01DF91CF91089508950E948F
:10047000AF060E9436022FEF84E39CE021508040BB
:100480009040E1F700C0000008950E9437020E94EA
:10049000A41D08950E9437020E94B51D08950F9370
:1004A0001F93CF93DF938C0161E00E941E02EC0149
:1004B000B8010E94EB01811106C080E0DF91CF916D
:1004C0001F910F910895B801CE010E943E19882313
:1004D000A1F3B801CE010E94A616882371F3B801DA
:1004E000CE010E94B018882341F3F801828188234D
:1004F00061F0C330FCE7DF07E9F058F4C115ECE721
:10050000DE07A9F0C130DC47B9F0C8010E94E7015D
:10051000D5CFCB358CE7D807A9F0CC35ECE7DE0793
:1005200071F0CA35DC4789F70E944E0CEECF0E946D
:100530004502C3CF0E94560C0E944A02BECF0E94C1
:10054000440CE3CF0E94520CE0CF0E94BA1C0E94E0
:10055000CC0208950E94D0020E94BF1C0895089505
:1005600081E008950895CF93DF93D82F0E94B002C1
:10057000C82F882319F08D2F0E94B2028C2FDF9193
:10058000CF9108950895CF93C82F0E94AF028C2F6A
:100590000E94B302CF91089580E00E94C3020895A3
:1005A0000E94461B0E94C3020895CF930E94461BDF
:1005B000C82F8091AC018C1779F0C093AC010E94D8
:1005C000491D6093AD017093AE018093AF0190938C
:1005D000B0018C2F0E94C302CF910895ABE0B0E030
:1005E000E4EFF2E00C9489244F83588769877A8777
:1005F0008B8761110E948F0B1E821D8285E0FE0198
:100600003796DE01119601900D928A95E1F78C8163
:100610009D81892B61F449815A816B817C818D8117
:100620009E810E94B70A2B96E2E00C94A524898152
:100630009A8189238F3F79F3CE0101960E94280287
:100640008111E9CFF0CFFC01808191810E943608B1
:100650000895662329F00E9481140E94541508957C
:100660000E94DB14FACFCF93C82F8823C9F08238B9
:10067000C9F40E94461B81FD13C089E30E94470B09
:100680000E94B00B2FEF87EE93E021508040904006
:10069000E1F700C0000089E30E944F0B0E94B00BFD
:1006A000CF9108958338A1F40E94461B80FDF8CFB6
:1006B00083E50E94470B0E94B00B2FEF81EE94E080
:1006C000215080409040E1F700C0000083E5E4CF76
:1006D0008438A1F40E94461B82FDE2CF87E40E9489
:1006E000470B0E94B00B2FEF81EE94E02150804029
:1006F0009040E1F700C0000087E4CECF8CEF8C0F74
:10070000813AB8F48C2F0E94F4178111C9CF6C2F55
:1007100080910001909101010E94E01B882329F043
:100720008C2F0E944F0B0E94B00B8C2F0E94470B06
:10073000B5CF80E28C0F883048F4C77081E001C0EB
:10074000880FCA95EAF70E94720BA8CFEBE5EC0F71
:10075000E33040F4F0E0E05AFE4F808190E00E94E8
:10076000821B9ECFE8E5EC0FEB3150F4F0E0EE0F8A
:10077000FF1FE65DFE4F808191810E94A71B90CFF5
:1007800083E38C0F833108F08BCF61E08C2F0E94C4
:10079000290386CF882309F456C0823879F40E9451
:1007A000461B81FF50C089E30E94470B0E94B00B9B
:1007B00089E30E944F0B0E94B00B0895833859F4CF
:1007C0000E94461B80FF3FC083E50E94470B0E94AA
:1007D000B00B83E5EECF843859F40E94461B82FFAC
:1007E00032C087E40E94470B0E94B00B87E4E1CF40
:1007F0009CEF980F913AE8F290E2980F983050F4FD
:10080000877091E001C0990F8A95EAF7892F0E94BD
:10081000780BD1CF9BE5980F933028F490E080E0DF
:100820000E94821B089598E5980F9B3128F490E070
:1008300080E00E94A71B089593E3980F933118F46A
:1008400060E00E94290308951F93CF93DF93182F30
:10085000EB010E943303209739F4812F0E94CA03D1
:10086000DF91CF911F9108958FE99FE00197F1F7F4
:1008700000C000002197EFCF70E060E0893311F4F1
:1008800060E570E00E9424040895882321F00E940E
:10089000720B0E94B00B0895882321F00E94780B00
:1008A0000E94B00B0895B0E0A0E0E9E5F4E00C94FC
:1008B00082246C01D62FC72FFC011281058102957D
:1008C0000F700E94680BE82E8823E9F0E12E1123B7
:1008D000D1F08C2F807F803451F080E28D0F8830F2
:1008E000F8F0011104C08C2F807E8032C9F0809115
:1008F000D90282FF15C082E00E94130C0E94680B8F
:1009000091E0E82EE926BC2EB2949FE0B922FBE0EC
:10091000FB15B8F1EB2DF0E0E25EFA4D0C94732478
:10092000E12CF1CF0C2F0F70C07F11F00295007FEA
:10093000112399F0002359F080E28D0F883010F0D8
:10094000D11107C0802F0E94720B0E94B00B8D2F17
:1009500063C0802F0E94820BF8CF8D2F0E94CA03A4
:10096000002379F080E28D0F883010F0D11104C09F
:10097000802F0E94780B03C0802F0E94880B0E945A
:10098000B00B2B2D2850330B2430310520F40E945E
:10099000461B0E94C302EE2089F00E94640B80FD7A
:1009A0000DC0F60112820E945E0B0E943E07C60136
:1009B0000E946F060E945E0B0E944E07CDB7DEB705
:1009C000E9E00C949E242C2F2F70F22EC07FC032B1
:1009D00019F0F29480EFF822DD2381F0D13009F490
:1009E00049C0112309F451C0002309F448C0F6019D
:1009F000858180FFACCF8F70858341C08091D90203
:100A000082FD15C0112359F0FF2029F08F2D0E947F
:100A1000720B0E94B00B80E00E943303B2CF80E0E3
:100A20000E94CA03FF2009F4ACCF8F2DA2CF11235F
:100A300081F0011106C00E94920B8F290E9445048B
:100A4000A0CF0130C1F70E94920B8F290E94990B11
:100A500098CF011106C00E94A60B8F2D0E944C0456
:100A600090CF013009F48DCF8F2D0E944C040E944D
:100A7000A60B87CF112329F0063008F082CF8F2DE7
:100A8000DDCF053008F07DCFE8CF002331F3D93337
:100A900049F4FFEF27EE33E0F15020403040E1F71A
:100AA00000C000008D2F0E94CA036BCF8C2F86954B
:100AB0008695837069F0813009F063CF8D2F9C2F6C
:100AC0009370111102C080E090E00E94A71B59CFE3
:100AD0008D2F9C2F9370111102C080E090E00E9436
:100AE000821B4FCF612F8D2F0E9429034ACF8C2F5D
:100AF0008370A1F5111145CF4D2F42954695477052
:100B0000440F440F2D2F2F7030E0042E02C0220F0F
:100B1000331F0A94E2F790E080E0D4FF09C08FE031
:100B200090E002C0880F991F4A95E2F78095909552
:100B3000C695C695C370822B932BC23049F058F4EA
:100B4000C13019F00E940E071CCF0E94050719CF73
:100B50000E94170716CF0E94020713CF8695112314
:100B600011F08C2F8170882309F40BCF4D2F429503
:100B700046954770440F440F2D2F2F7030E0042E00
:100B800002C0220F331F0A94E2F790E080E0D4FF06
:100B900009C08FE090E002C0880F991F4A95E2F7E4
:100BA00080959095C695C695C370822B932BC230C5
:100BB00049F058F4C13019F00E947907E2CE0E9442
:100BC0007007DFCE0E948207DCCE0E942607D9CEB6
:100BD000CF70112329F08C2F0E943E078D2F2ECF2E
:100BE0008D2F0E944C048C2F0E944E07CACED23FFC
:100BF00041F160F4D03FB9F0D13F81F0112309F405
:100C000046C00111A4CE8C2F8F711FC0D33F01F1BC
:100C1000D43FA1F78091D90282FD24C08C2F8F711F
:100C2000112311F312C0112341F0053008F0A9CEB1
:100C30008C2F8F710E946007A4CE063008F0A1CEE1
:100C4000F7CF8C2F8F711111CFCF0E943E0799CE15
:100C5000112329F08C2F8F710E94320792CE0E94AF
:100C60002D078FCE112349F0CF718C2F0E943E07A4
:100C700063E08C2F0E94F50B84CE81E00E94130C60
:100C8000023008F47ECE82E00E94130C7ACE00235C
:100C900059F0D93309F006CF8FEF97EEE3E081509A
:100CA0009040E040E1F7FCCE8C2F8F719DCF0F93E9
:100CB0001F93CF93DF93EC01688179818A810E9431
:100CC00041088C010E948B070E940107B801CE01E8
:100CD0000E945304DF91CF911F910F910895CF93FC
:100CE000DF93EC018B819C81892B29F0888199818C
:100CF00089238F3F51F4DF91CF910895CE010E9457
:100D00005706CE010E942A02F6CFCE010E944F0262
:100D10008111F4CF0E94680B882369F38A818823AC
:100D200051F38091D90282FFE6CF82E00E94130C3A
:100D3000E2CF90E080E00E94821B90E080E00E9481
:100D4000A71B0E948F0B0E94B00B0E9470150E947F
:100D5000541508950E94570B0E94990608950E9409
:100D60007F0B0E94AA06089592959F70963091F08D
:100D700058F4925F9F70923058F4803F19F030F42D
:100D8000883E30F481E008959A5FF4CF843FD1F338
:100D900080E00895883EB0F3813FD1F7F3CFFC01A6
:100DA00083819481892B29F08081918189238F3FD0
:100DB00011F480E00895808191810E9436080E949C
:100DC000B4060895A5E0B0E0E8EEF6E00C948924BE
:100DD0002596E2E00C94A524A6E0B0E0E2EFF6E070
:100DE0000C9489242696E2E00C94A52408950E9490
:100DF000F60608950E94F7069093D9018093D801D2
:100E0000089508950E94FA0608952091D80130911E
:100E1000D901822B932B0E94FA0608952091D801C4
:100E20003091D901822393230E94FA0608952091DC
:100E3000D8013091D901822793270E94FA0608959C
:100E40000E94F60608950E94200708950E94230735
:100E50009093D7018093D601089590E080E00E949E
:100E60002607089521E030E0A90102C0440F551F74
:100E70008A95E2F7CA010E942607089521E030E032
:100E800002C0220F331F8A95E2F78091D60190911C
:100E9000D701822B932B0E942607089521E030E092
:100EA00002C0220F331F8A95E2F72095309580917A
:100EB000D6019091D701822393230E94260708959B
:100EC00021E030E002C0220F331F8A95E2F78091C3
:100ED000D6019091D701822793270E942607089573
:100EE0002091D6013091D701822B932B0E942607A7
:100EF00008952091D6013091D701822393230E9437
:100F0000260708952091D6013091D7018227932793
:100F10000E94260708950895262F277091E001C0AA
:100F2000990F2A95EAF723E0769567952A95E1F7D8
:100F3000660F771F660F771FFA01E60FF71F50E065
:100F400040E0682F70E08191DF0111979B01042E32
:100F500002C0369527950A94E2F72170219528273B
:100F6000292328272C934F5F5F4F4430510559F7B1
:100F70000895A82FA77023E0969587952A95E1F705
:100F8000880F991F880F991FFB01E80FF91F50E088
:100F900040E080E0219130E00A2E02C0369527958E
:100FA0000A94E2F721703327042E01C0220F0A941D
:100FB000EAF7822B4F5F5F4F4430510559F7089590
:100FC000262F9C3070F4863060F4682F70E086E045
:100FD000989F600D711D112442EB51E0822F0E94F9
:100FE0008C070895292F9C3068F4863058F490E0DF
:100FF00062EB71E036E0239F800D911D11240E9469
:10100000B907089580E00895B0E0A0E0EAE0F8E0D4
:101010000C9482247C010091D6011091D70180911B
:10102000D8019091D901082B192BCFE0D0E0CC2426
:10103000C394D12CBC2EC6010C2E02C0880F991F60
:101040000A94E2F780239123892B49F4219790F7A2
:10105000B12C8B2DCDB7DEB7E9E00C949E24B701FF
:101060008C2F0E94F90E019789F3F3CFCF93DF9372
:10107000EC010E940408BE010E94F90EDF91CF919D
:1010800008951F93CF93DF93EB019091B1019923C2
:1010900039F0CB010E943608DF91CF911F9108955E
:1010A000882369F0CB010E940408182F682FCE0115
:1010B0000E94E007BE01812F0E94F90EEDCFCB0107
:1010C0000E94F207182FF6CF1F93CF93DF93C091A2
:1010D000DA0116E08091DB018C1304C0DF91CF911F
:1010E0001F910895D0E01C9FF0011D9FF00D112469
:1010F000E452FE4F408151816281738184819581E8
:101100000E94EC062196C770E5CF40910C025091E9
:101110000D0260910E0270910F0280911002909169
:1011200011020E94EC0608952091DA019091DB01F2
:1011300056E0291302C080E0089530E0529FF0018C
:10114000539FF00D1124E452FE4F7181761306C0B7
:101150007081781303C07281741304C02F5F3F4FF6
:101160002770E7CF81E008951F93CF93DF9380919D
:101170001102807F09F04BC080910E02882309F490
:1011800046C08091DA01C091DB0140910C02509180
:101190000D0260910F0270911002D42FD52316E03A
:1011A000C817A9F190E061157105A9F1DF3F99F128
:1011B000189FF001199FF00D1124DF01A452BE4FBA
:1011C00011962C911197251326C02C91241323C01E
:1011D00012962C91129721111EC013962D913C91BD
:1011E000261B370B283C3105B0F4809111028F701B
:1011F000806180931102EF51FE4F80818F7080617A
:1012000080838CE092E00E946F060E946408DF9168
:10121000CF911F91089501968770C2CFA1E1B0E0F0
:10122000E4E1F9E00C947F248C0185E0F801DE0113
:101230001D9601900D928A95E1F7D8011296EC90D7
:1012400012978CE0A82E82E0B82E40910F025091A8
:1012500010024115510509F471C190910C022091C1
:101260000D02892F82238F3F09F468C1CC9011961B
:10127000DC90119713968D909C901497F0900E022D
:10128000F401E41BF50BFF2009F406C18091110263
:10129000382F307FE83CF10508F0C0C031118BC019
:1012A000FE2C2D1117C09C1115C0E11013C08F70BA
:1012B0008061809311020E948508C5010E946F061B
:1012C00080911102D80115968C938F2D6196ECE0D8
:1012D0000C949B2481149104E9F08C2D8D218F3F77
:1012E000C9F081E08E2580FF17C04E2D6D2D8C2D0D
:1012F0000E949408882381F08CE092E00E946F069F
:1013000086E0ECE0F2E0DF011D928A95E9F70E94A9
:1013100085084FC080E0E7CF8114910449F18C2DFE
:101320008D218F3F29F181E08E25B82FB170BB2E22
:1013300080FF37C04E2D6D2D8C2D0E949408A82E55
:1013400081112FC0CD86DE868D859E850E94360850
:10135000292F22952F70243068F49F70223098F046
:101360009923A9F0F8019581907F89F4FA2CADCFEB
:1013700080E0DBCF2A5F2F70223068F0C8010E9426
:101380006F06AB2CF3CF992311F0882379F3805E9D
:10139000883060F3F3CF803F48F3815F833070F78C
:1013A000E5CFEE2009F491CF809111028160809306
:1013B0001102F12C8ACF2D1105C09C1103C0EE2023
:1013C00009F487C0C8010E94CF06882319F1EE20D6
:1013D00009F180911102803270F020910C0230915D
:1013E0000D0238872F8319869B868A868C87CE01CB
:1013F00007960E946F0686E0F801ACE0B2E001902B
:101400000D928A95E1F70E94B4080E948508FF2496
:10141000F3945BCFC8010E946F06F9CF311112C05F
:10142000782D998A888AA6016E2D89890E94E20604
:101430008CE092E00E946F0686E0F50111928A9599
:10144000E9F765CF2D110FC09C110DC0E1100BC045
:1014500015968C93C8010E946F0686E0F5011192E3
:101460008A95E9F732CFC8010E94CF06882391F20E
:10147000EE2081F280911102803208F4BCCF2091DD
:101480000C0230910D023A8329831B829D828C824B
:101490008E83CE010196ADCFE83CF10508F040C047
:1014A000FE2CEE2009F4B6CF2D112CC09C112AC0C1
:1014B0008091110280FD1DC0982F907FD1F015966C
:1014C0008C931597903F39F0982F907F905F8F7095
:1014D000892B15968C93C8010E946F0686E0F8014F
:1014E000ACE0B2E001900D928A95E1F70E94850888
:1014F000ECCE86E0F801ACE0B2E001900D928A9566
:10150000E1F7E3CEC8010E94CF06811174CF80912C
:101510001102816080931102C8010E946F06D5CE2E
:10152000782D998A888AA6016E2D89890E94E20603
:1015300086E0F50111928A95E9F7D8CFEE2009F4FB
:1015400069CFC8010E94CF06F82E882309F462CF24
:1015500086E0F801ACE0B2E001900D928A95E1F7E7
:101560008CE092E00E9423030E94B408BFCFACE05D
:10157000B0E0EDEBFAE00C9488244F83588769873C
:101580007A878B879C87CE0107960E940E09882355
:10159000B1F08A859B85892B39F04F815885842F3E
:1015A00085238F3F09F06CC016E08091DA0190919D
:1015B000DB01891343C02C96E3E00C94A42486E05D
:1015C000FE013796DE01119601900D928A95E1F7A2
:1015D0008A859B85892B41F38F81988589238F3F4D
:1015E00019F32091DB0130E0C9010196877099273A
:1015F0004091DA014817190671F40E94AF06109263
:10160000DB011092DA0186E0ECE0F2E0DF011D92EE
:101610008A95E9F7C9CF96E0929FD001939FB00DCC
:101620001124A452BE4FFE01319601900D929A955D
:10163000E1F78093DB010E946408B6CF819FC0016F
:10164000112484529E4F0E940E09882309F4B3CFBF
:10165000E091DA011E9FF0011124E452FE4F408117
:10166000518162817381848195810E94EC06809111
:10167000DA0190E00196877099278093DA0195CF7F
:1016800069857A858B859C850E94EC068DCF682FB5
:1016900080910001909101010E94601C0895682FC3
:1016A00080910001909101010E946E1C089580912B
:1016B0000001909101010E947C1C089580913202EA
:1016C0008595859585950895809132028770089556
:1016D00090913202977081E009F480E00895809142
:1016E0005502089590915502892B809355020895D3
:1016F00080959091550298239093550208951092E9
:101700005502089590915402892B809354020895B4
:1017100080959091540298239093540208951092CA
:101720005402089580913302089508950E94950B04
:1017300008959091D90292FF08C0909133029817B2
:1017400021F0809333020E94960B0895809133021A
:10175000882329F01092330280E00E94960B0895AE
:10176000CF93DF93E0910001F09101018091550248
:101770008083E0910001F0910101808190915402F9
:10178000892B808390913302992381F0E0910001AD
:10179000F09101018081892B8083809100019091DB
:1017A00001010E94CC1B81110E94A60BC091000177
:1017B000D091010140E250E062E172E0CE010E946E
:1017C000C424892B59F080E2FE01A2E1B2E001902D
:1017D0000D928A95E1F7CE010E945A1BDF91CF91BD
:1017E000089508950E94F10B08959091D90292FFF7
:1017F00011C098E0899F90011124622B60933202FE
:101800000E943E07809132028595859585950E94BC
:10181000F20B08950E943E0708951092320280E074
:101820000E94F20B08959091320280958923809353
:101830003202282F277091F4282F082E000C330B2A
:101840009217130659F09091D90292FF07C085951F
:10185000859585950E944E070E940D0C08959091E4
:10186000D90292FB222720F9281769F080FB92F910
:101870009093D9028091D8029091D9020E94770C5E
:1018800082E00E94130C08958091D90282FB882780
:1018900080F991E089270E942F0C089581E00E9431
:1018A0002F0C089580E00E942F0C08956FEF7FEFBA
:1018B00090E080E00E940625089590E080E00E947C
:1018C000E22421E0873E9E4F09F020E0822F089518
:1018D00082E090E00E94DA24089583E090E00E9484
:1018E000DA24089584E090E00E94E2240895BC0187
:1018F00084E090E00E9406250895AB01BC018FE0D2
:1019000090E00E94FA240895AB01BC0183E190E0CD
:101910000E94FA24089560E070E0CB010E94840CDC
:10192000089560E070E0CB010E947D0C0E948B0C5A
:10193000089567EE7EEF90E080E00E94062560E06B
:1019400082E090E00E94E82460E083E090E00E9462
:10195000E8241092D9011092D80160E074E184E08B
:1019600090E00E94062560E086E090E00E94E82476
:101970006FEF87E090E00E94E82440E050E0BA0179
:1019800088E090E00E94FA2460E08DE090E00E9400
:10199000E82440E050E0BA0188E190E00E94FA2497
:1019A00060E087E190E00E94E82440E050E0BA0166
:1019B0008CE190E00E94FA2470E060E080E290E028
:1019C0000E94062540E050E0BA0188E190E00E94C4
:1019D000FA240E94910C08950E94990C0895682F92
:1019E0008EE090E00E94E8240895A5E0B0E0EBEFDF
:1019F000FCE00C9487240E943D1D8C0180915602CE
:101A00009091570280179107A1F08FEF89838A8305
:101A10001B820E943D1D8160782F9D838C834981AC
:101A20005A816B818D810E94EE02109357020093C0
:101A300056022596E4E00C94A3240E94491D60936D
:101A400068027093690280936A0290936B026093BC
:101A50006402709365028093660290936702089512
:101A6000089508950E94310D089508950E94350D3E
:101A7000089581E0089583E290E10E943C1B0E945A
:101A8000300D0E94320D08950E94EB1108950895C3
:101A900008950E94470D0E94480D08950E94261047
:101AA0000E94C20208950E94341D0E94E30F0E940A
:101AB00014120E944C110E944E0D0E948E160E941C
:101AC0001E120E94360D0895A5E0B0E0EAE6FDE0A2
:101AD0000C9481240E94390D81110CC00E94F50CD8
:101AE0000E94EB110E9492150E94D5022596EAE011
:101AF0000C949D240E946F1188E5A82E82E0B82ED8
:101B0000750110E0F70101917F01812F0E944C10B7
:101B10001F5F1C3009F440C00817A1F380916C02CC
:101B200081FD0E9452100E94440DC82E10E0812FAA
:101B30000E944C10082FF50181915F01081731F1C7
:101B4000D02ED826F12CEE24E3948D2D8E21B1F0E9
:101B5000CC20A1F0F9821A8391E0802F8E2109F424
:101B600090E09B830E943D1D8160782F9D838C8334
:101B700049815A816B818D810E94EE02F394EE0CB3
:101B8000F6E0FF12E2CFF501319700831F5F1C30B2
:101B900071F60E941D0DA4CF0813C0CF9FCF1F93D5
:101BA000CF93DF930E94FE0EEC01C11580E5D807AC
:101BB000F0F5C11580E4D80708F09CC0C03ED105FF
:101BC00020F5CD3CD10508F082C0C83AD10578F4A3
:101BD000C53AD10508F073C0C130D10519F120977D
:101BE00009F1C430D105F0F4D0E0C0E01BC0C33C23
:101BF000D105D0F7C85AD0E0CC0FDD1FCD59DE4F4C
:101C00000990D881C02DD4640DC0C11580E2D807D9
:101C100008F0D1C0C11581E0D80708F05AC0C83E0D
:101C2000D10510F7CE01DF91CF911F910895C036F5
:101C300082E5D80718F5C03482E5D80708F06BC0F4
:101C4000C03282E5D80708F05FC0C11582E5D80729
:101C500008F497C02C2F2695269580E2289F9001A6
:101C600011248C2F8370C1E0D0E002C0CC0FDD1FA7
:101C70008A95E2F7C22BD32BDD68D4CFC03A82E538
:101C8000D80760F4C03882E5D80708F459C0CF718E
:101C9000D0E0DC2FCC27C46FD06AC4CFC03C82E533
:101CA000D80708F462C0C03E82E5D80708F09CCF90
:101CB000DC2FCC27CC27DF71C06FD06AB3CFC55AD9
:101CC000D0E0C756DE4FC881D0E0D064ABCFD0653E
:101CD000A9CF8D2F0E94A00F182FCE0199270E9407
:101CE000FE0EC12FD0E0DC2FCC27CC27DF71C82B14
:101CF000D92B98CFCE0199270E94FE0ECC27DF70FA
:101D0000C82BD92BD06A8ECFCF71D0E0DC2FCC2757
:101D1000C16FD06A87CF2C2F26952695277080E239
:101D2000289F900111248C2F8370C1E0D0E002C065
:101D3000CC0FDD1F8A95E2F7C22BD32BDC6872CF64
:101D40002C2F26952695277080E2289F900111243C
:101D50008C2F8370C1E0D0E002C0CC0FDD1F8A95CC
:101D6000E2F7C22BD32BDA685DCF8C2F8F710E94E4
:101D7000A00FC82FD0E0DC2FCC27CC27DF71D0629A
:101D800051CF8C2F8F710E94A00F55E0D695C7952B
:101D90005A95E1F7CF70D0E0DC2FCC27282F30E028
:101DA00084FF05C044E0220F331F4A95E1F7C22BA0
:101DB000D32BD06937CF8D2F8F710E94A00F182F92
:101DC000CE0199270E94FE0EC12FD0E0DC2FCC2738
:101DD000CC27DF71C82BD92BD2CF462F7C3030F4E3
:101DE000663020F4672F0E94E401089590E080E0BF
:101DF00008950E94ED0E0E94CF0D0895823891053E
:101E0000B9F1B0F48133910509F47DC048F4893209
:101E1000910509F46DC08A32910509F47BC00895DB
:101E20008533910509F45FC08933910509F108955F
:101E3000833E9105D9F138F4803E910529F1823E27
:101E4000910579F10895863E9105D9F1873E910576
:101E500009F43EC0843E910541F52091D90221FF4D
:101E600024C08091D80284FD19C087EE90E00895C7
:101E70002091D802237009F05AC02091D90223FF83
:101E800014C089E290E008952091D80220FD38C066
:101E90003091D90230FF09C024FF43C090E080E0B8
:101EA00008952091D80222FDF7CF08952091D802FD
:101EB00022FD3AC03091D90230FD39C024FFF5CF60
:101EC000EDCF2091D80223FFF0CF24FDE7CFCDCF77
:101ED0002091D80223FD2EC03091D90231FFEECFE0
:101EE00084EE90E008952091D80225FFDECFC9CF7F
:101EF0002091D80225FD21C02091D90223FFD5CF02
:101F000089E390E0D2CF2091D80226FFCECF8AE29B
:101F100090E008952091D80226FFC7CF81E390E09A
:101F2000089583EE90E0089582EE90E0089580EEAB
:101F300090E0089586EE90E0089585E390E008959E
:101F40009091D80292FF06C0282F28712830F9F40A
:101F5000877F846093FF06C0282F28712831F1F411
:101F6000877E84612091D90220FF06C0382F387106
:101F70003830D9F4877F816021FF06C0282F28716F
:101F80002831D1F4877E816194FD877E0895282FC2
:101F900024712430F9F68B7F8860DCCF282F2471E0
:101FA000243101F78B7E8861DDCF382F31713130DC
:101FB00019F78E7F8860E0CF282F2171213121F71A
:101FC0008E7E8861E1CF1092D4021092D5021092D9
:101FD000D6021092D7020895CF92DF92EF92FF922D
:101FE0006B017C010E94EB1181110EC00E94491D02
:101FF000C61AD70AE80AF90AC092D402D092D502CA
:10200000E092D602F092D702FF90EF90DF90CF904F
:1020100008950F931F930E94EB11882329F00E94CB
:10202000491D1F910F9108950E94491D0091D402EE
:102030001091D5022091D6023091D702600F711F06
:10204000821F931FEECF80E0089508950E945D0CDB
:10205000811102C00E94EC0C0E94680C80936C02FB
:102060000E94720C9093D9028093D8020E9425108E
:102070000E946D0C90E00E9402078091D601909121
:10208000D7010E942307089508950E9444100895DF
:1020900008950E9448100895E82FF0E0E951FD4F9F
:1020A00080810895089580EA8A95F1F7089500C027
:1020B00008950E945310089508950E945C10089599
:1020C000A6E0B0E0E6E6F0E10C9485240E94EB1176
:1020D000F82E6091F302882309F440C086E0E82ED0
:1020E0008E010F5F1F4FF8018E2D11928A95E9F72F
:1020F000862F90E0B80189519D4F0E942C128823B1
:10210000B9F08091DA0290E046E050E0B8018951E0
:102110009D4F0E94C42421E020936D02892B91F4ED
:10212000F12C0E9449108F2D2696E6E00C94A124F4
:1021300080916D028823A1F3F8011192EA94E9F7E6
:1021400010926D02A091DA02B0E0A951BD4F86E075
:10215000F80101900D928A95E1F7E3CF70E06951A3
:102160007D4F8091DA0290E089519D4F0E94B31219
:102170000E945D10D8CFF894E82FE295EF70F0E060
:1021800031A1282F2F7081E090E001C0880F2A959F
:10219000EAF7982F9095932391A392A1892B82A37C
:1021A00078940895CF93DF93C2EAD1E089918F3F6D
:1021B00011F00E94BB1081E0C83AD807B9F7CCE90A
:1021C000D1E089918F3F11F00E94BB1081E0C23AAB
:1021D000D807B9F7DF91CF910895B0E0A0E0E3EF21
:1021E000F0E10C948324EC01D62E062F10E0C801F8
:1021F0008E559E4F7C01FC0180818F3F09F445C0C4
:10220000F894E82FE295EF70F0E091A18F7021E053
:1022100030E001C0220F8A95EAF7892F822B81A333
:1022200082A12095282322A378940E945710ECE9DC
:10223000F1E042EA51E031E0C12C21912F3F51F110
:10224000A22FA295AF70B0E090968C9190E02F7085
:1022500002C0959587952A95E2F780FD1BC0832FD4
:10226000C82A330F4E175F0741F7F70180818F3F70
:1022700011F00E94BB1061E0C11001C060E08D2D23
:102280000E945910C00FD11FC882CDB7DEB7E8E059
:102290000C949F2480E0E4CF8091020180910201A0
:1022A00096E0811190E09093F30286E0891B809381
:1022B000DA020E94D2108CE0E7EEF2E0DF01982F04
:1022C0001D929A95E9F7EBEDF2E0DF011D928A95F8
:1022D000E9F786E00E94AD110E9445100895ACE038
:1022E000B0E0E5E7F1E10C9486248E010F5F1F4F0B
:1022F0008CE0F80111928A95E9F7F12C6F2DC80155
:102300000E94ED10F394F6E0FF12F8CF4CE050E09D
:10231000B8018BED92E00E94C42421E0009709F4FB
:1023200020E0892B41F08CE0F801ABEDB2E00190A8
:102330000D928A95E1F76091F30270E069517D4F4B
:1023400046E08BED92E00E94AE11182F0E946010C3
:10235000812B2C96E5E00C94A2240895CF92DF9275
:10236000EF92FF920F931F93CF936C017B01042F89
:10237000222349F081E0809370020E943D1D9093DA
:102380006F0280936E02C0917002C1110AC0C0E05A
:102390008C2FCF911F910F91FF90EF90DF90CF90F6
:1023A000089580916E0290916F020E94551D0597CD
:1023B00070F310E0A801B601C7010E94C424892B64
:1023C00041F0A801B601C7010E94D1241092700209
:1023D000DFCFC0E0FBCFCF93DF93809173028111F9
:1023E00017C0C8ECD0E00E94592481110EC08FE3C1
:1023F0009CE90197F1F700C000002197A1F782E066
:10240000809373020E94542403C081E0809373027E
:1024100081E090917302913009F080E0DF91CF91DB
:1024200008950E94EB1108950E94111280930201F9
:102430000E94EB1181110E94621208950E94EB111B
:10244000811102C00E946512089581E0909174028A
:102450009A3008F080E008950F931F93CF93DF9395
:10246000EC018B01809174028A30B8F4B801CE017E
:102470000E94B012C82F811122C0809174028F3F38
:10248000B9F40E943D1D90937202809371028C2FCB
:10249000DF91CF911F910F910895809171029091DA
:1024A00072020E94551D843F914000F7C0E0EFCFBB
:1024B0008F5F809374028A3020F7C1E0E8CF1092DA
:1024C0007402E5CF0E94DA1908950E94DD1908957B
:1024D000B0E0A0E0EEE6F2E10C9484247901C82F8C
:1024E000880FDD0B41155105A9F0FE0193E0EE0FB9
:1024F000FF1F9A95E1F7ED5FFE4F818192818B5826
:102500009D4F208130E04217530708F49A01A9013A
:102510000E94D124CE010E94C61AD82E8823D1F061
:1025200001151105B9F083E0CC0FDD1F8A95E1F7A5
:10253000FE01ED5FFE4F438150E00417150708F4DC
:10254000A801CD5FDE4F6C817D816B587D4FC70147
:102550000E94D1248D2DCDB7DEB7E7E00C94A024E6
:102560000E94A21308950E94B9130895A4E0B0E058
:10257000ECEBF2E10C94872460918E0270918F0253
:1025800080919002909191020E94641D11E0643646
:1025900071058105910518F10E9409106E5F7F4F4A
:1025A0008F4F9F4F69837A838B839C8310E000E079
:1025B00030E020E044E050E0BE016F5F7F4F82E0FA
:1025C0000E946812182F882351F00E94491D6093C1
:1025D0008E0270938F028093900290939102812FCC
:1025E0002496E4E00C94A324B0E0A0E0EAEFF2E14A
:1025F0000C9481247C015B016A010E94251201E098
:1026000010E0882311F00AE010E0C1E0D0E0B5014D
:10261000C701F6010995811104C021960C171D0709
:102620002CF4CDB7DEB7EAE00C949D24CC9F90014A
:10263000CD9F300D300D112490E080E045E34A95A8
:10264000F1F70000019682179307C1F7E0CFA7E0EA
:10265000B0E0EDE2F3E10C9481247B01C090A8018D
:10266000D090A90101E010E09E01295F3F4F50E0AA
:1026700040E070E060E080E00E946812182F88233C
:1026800009F448C056018FEFA81AB80A60918A026F
:1026900070918B0280918C0290918D020E94641D3A
:1026A000643671058105910568F106E010E09E0130
:1026B0002F5F3F4F50E040E070E060E081E00E941B
:1026C0006812D82E66E070E0C5010E948F1611E0F6
:1026D0009F81981310E01D2141F10E94491D6093D4
:1026E0008A0270938B0280938C0290938D0286E015
:1026F000FE013196A4E8B2E001900D928A95E1F7CF
:1027000011E013C066E070E0C5010E948F169F8142
:102710008913CBCF86E0F6013196DE011196019048
:102720000D928A95E1F71111E2CF86E0E4E8F2E03C
:10273000D70101900D928A95E1F7812F2796EAE063
:102740000C949D240F931F93CF93DF93EC018B0187
:1027500047E253E10E94F412882331F046EB52E144
:10276000B801CE010E94F412DF91CF911F910F9119
:1027700008950F931F93CF93DF93C091A801D09139
:10278000A901CE01019626E0FB01DC0101900D922A
:102790002A95E1F766E070E00E948F1688836F81CA
:1027A000788589859A850091800210918102209117
:1027B000820230918302601771078207930751F0FC
:1027C00060938002709381028093820290938302CF
:1027D0000E94EC0FDF91CF911F910F9108950E94FD
:1027E0002A1F0E94530D0E94371F08950E943C1F0C
:1027F0000E94640D0E94561F08950E94D61C0E94DC
:10280000101F0E943B0D0E94EF130E94F6130E94BE
:10281000490DFBCF80919A0280FF0DC060911F018E
:1028200070E0660F771F6038710570F561157105EE
:1028300069F1862F089581FF07C060911F0184E030
:10284000689FB0011124EFCF60911F0182FD0AC083
:10285000809199028823A9F020911E0160911F01A7
:10286000821710F088E0ECCF869FC001112433E07E
:10287000880F991F3A95E1F7622F70E00E945F245C
:10288000D2CF68E070E0D5CF8FE7089581E008955A
:1028900080919A0280FF0CC060911C0170E07595D8
:1028A0006795759567956115710549F1862F0895AE
:1028B00081FF06C060911C0170E075956795F3CFAC
:1028C00060911C0182FD0BC0909198029923A1F0A8
:1028D00060911B0180911C01961738F0682F70E001
:1028E0006038710500F38FE70895899FC0011124B6
:1028F00070E00E945F24F4CF61E070E0D7CF81E008
:1029000008958D3C31F40E940A14819580939E02B3
:1029100008958E3C19F40E940A14F8CF8F3C31F4CC
:102920000E940A14819580939D020895803D19F4B8
:102930000E940A14F8CF893D29F40E94481480931C
:102940009F0208958A3D21F40E9448148195F7CF93
:102950008B3D31F40E94481481958093A002089524
:102960008C3D19F40E944814F8CF9FE2980F9830DC
:1029700070F4815D990B21E030E001C0220F8A954F
:10298000EAF780919C02822B80939C0208958D3DF2
:1029900031F480919A02816080939A0208958E3D6D
:1029A00021F480919A028260F7CF8F3DB9F7809130
:1029B0009A028460F1CF40919D028D3C59F4809140
:1029C0009E0287FF0DC010929E0241110BC0109213
:1029D000990208C08E3C81F480919E0218169CF3E7
:1029E000442381F080919F029091A002892B09F0ED
:1029F0005AC01092980208958F3C49F447FFF0CFD7
:102A000010929D0280919E028111ECCFE0CF803D1B
:102A100019F41416ACF3E4CF90919F02893D29F488
:102A20001916F4F610929F02DBCF8A3D19F497FF36
:102A3000D7CFF8CF9091A0028B3D29F497FFD0CF4C
:102A40001092A002CDCF8C3D19F41916CCF3C8CF4B
:102A50009FE2980F983090F4815D990B21E030E06F
:102A6000B90102C0660F771F8A95E2F7CB01809506
:102A700090919C02892380939C02B2CF8D3D31F4CA
:102A800080919A028E7F80939A02AACF8E3D21F484
:102A900080919A028D7FF7CF8F3D09F0A1CF809171
:102AA0009A028B7FF0CF08950E943D1D9C0190916A
:102AB0009D0280919E02982B21F0309397022093E3
:102AC000960290919F028091A002982B21F0309362
:102AD0009502209394028BE992E00E94741B089562
:102AE00086E0EBE9F2E0DF011D928A95E9F71092AA
:102AF00099021092980210929A020895FC01828124
:102B000081110EC0838181110BC08481811108C0A5
:102B100091E08581811101C090E0892F8170089535
:102B200081E0FCCFA6E0B0E0E8E9F5E10C94882470
:102B300086E0EBE9F2E0DE01119601900D928A95B4
:102B4000E1F710929D0210929E0210929F02109245
:102B5000A0028B819C81892B89F0809196029091B3
:102B600097020E94551DAC01909199029923C9F1D9
:102B7000809120018417150608F440C08D819E8144
:102B8000892B91F080919402909195020E94551D9D
:102B9000AC0190919802992309F471C080911D01B4
:102BA0008417150608F479C0BE016F5F7F4F8BE96B
:102BB00092E00E948E1C811105C08BE992E00E9478
:102BC0007E1581110E94541586E0FE013196ABE915
:102BD000B2E001900D928A95E1F72696E3E00C941D
:102BE000A424209193028AE0289F900111242417A5
:102BF000350720F69F5F9093990202C09F3FD1F75F
:102C00001B81112359F00E940A149FEF11160CF436
:102C100091E0899F802D112480939D021C811123B6
:102C200059F00E940A149FEF11160CF491E0899F4D
:102C3000802D112480939E0230919D02332309F44C
:102C40009DCF20919E02222309F498CF45EB3403B7
:102C5000C0011124992359F090939D0245EB240360
:102C600090011124332339F030939E0287CF81E005
:102C700080939D02F3CF81E080939E027FCF2091CD
:102C800092028AE0289F900111242417350708F04A
:102C90008BCF9F5F9093980202C09F3FD1F71D8119
:102CA000112359F00E9448149FEF11160CF491E083
:102CB000899F802D112480939F021E81112359F03A
:102CC0000E9448149FEF11160CF491E0899F802D0B
:102CD00011248093A00230919F02332309F464CF22
:102CE0002091A002222309F45FCF45EB3403C001F9
:102CF0001124992359F090939F0245EB24039001EE
:102D00001124332339F03093A0024ECF81E0809319
:102D10009F02F3CF81E08093A00246CF0895FC018B
:102D2000680F791F8FEF91E36E177F0709F40895FD
:102D30002191822728E030E087FF06C0880F89278D
:102D400021503109C9F7F0CF880FFACFCF93DF9325
:102D5000EC01FB018281882309F4D2C09E01305727
:102D60002332310508F0B2C00E94720C9093D90250
:102D70008093D802FE01E150F047E232F10520F4E1
:102D8000E65DFA4D0C9473248091D80281608093A3
:102D9000D80293C08091D90288608093D9028DC0F7
:102DA0008091D8028260F3CF8091D8028460EFCF07
:102DB0008091D8028860EBCF8091D9028160EDCFFD
:102DC0008091D9028260E9CF8091D8028061DFCF03
:102DD0008091D8028062DBCF8091D8028064D7CF07
:102DE0000E94AF068091D8028068D1CF8091D8022E
:102DF0008C60CDCF8091D9028360CFCF8091D802F3
:102E00008E7FC5CF8091D902877FC7CF8091D802AE
:102E10008D7FBDCF8091D8028B7FB9CF8091D802B2
:102E2000877FB5CF8091D9028E7FB7CF8091D902AD
:102E30008D7FB3CF8091D8028F7EA9CF8091D802A9
:102E40008F7DA5CF8091D8028F7BA1CF0E94AF0646
:102E50008091D8028F779BCF8091D802837F97CFC4
:102E60008091D9028C7F99CF8091D80282FB9927DB
:102E700090F921E0922790FB82F990FB83F987CFAC
:102E80008091D902982F909591708E7F892B90FB1D
:102E900081F983CF9091D802892F8F7B96FF806430
:102EA00076CF0E94AF069091D802892F97FB87F9C1
:102EB00080586DCF81E00E94EF0C8091D8029091F4
:102EC000D9020E94770C0E94AF0680E0DF91CF917B
:102ED000089580E0F0CF9091D802892F8F7E94FFE3
:102EE000806155CF9091D802892F8E7F90FF8160AD
:102EF0004ECF9091D902892F877F93FF88604DCF65
:102F000081E0E4CFEBEFE80FEF3308F066C0F0E0CC
:102F1000E45BFA4D0C9473240E94EC0C81E008955C
:102F200080916C02807F80936C0281E08093A40288
:102F300008950E944502F2CF90916C02892F8E7FF6
:102F400090FF816080936C0280FDE8CF817F809349
:102F50006C02E4CF90916C02892F8D7F91FF82608B
:102F600080936C0281FFDACF80916C028160EFCF99
:102F700090916C02892F8B7F92FF846080936C020A
:102F800082FDF2CFCBCF90916C02892F877F93FF88
:102F9000886080936C0283FDE7CFC0CF0E94AF06AC
:102FA0009091D802892F97FB87F980588093D80297
:102FB000B5CF81E090E00E9402070E94AF06AECF3D
:102FC000895321E030E0A90102C0440F551F8A95C2
:102FD000E2F7CA01F0CF8D51F4CF80E0089580E090
:102FE00008950E94EF170895CF93C82F8091A402EF
:102FF0008130B9F0882331F08230A1F11092A4021F
:1030000080E00DC00E946F0B8232D1F78C2F0E949E
:10301000EF1781111BC08C2F0E9482178170CF91F6
:1030200008950E946F0B823289F38C2F0E94F11752
:1030300081110AC0C43199F060F4CB3029F0C0315D
:1030400069F782E08093A40281E0E8CF81E090E01C
:10305000E5CFC93221F0C833B9F380E0DFCF109259
:10306000A402FBCFC93209F43FC0E8F4C431E1F156
:1030700028F4C73009F45BC081E0D1CF82EE8C0F19
:103080008A30D0F7CD51C093A302C33009F446C0B3
:10309000B0F5C13009F43FC080E291E0C230B1F137
:1030A0001092A302E9CFC03509F452C0B8F48AE007
:1030B000CF3411F7E091A102F091A2023097E1F232
:1030C0002081082E000C990B820F911D8F3F9105D6
:1030D00009F00CF441C08FEF8083CECFC135D1F120
:1030E00081E0C23539F39BCF8091A302882321F27E
:1030F0001092A3021092A2021092A102BDCFC5307D
:1031000099F078F08BE191E0C63051F69093A202ED
:103110008093A102B1CF83E992E0F8CF8FE191E0F3
:10312000F5CF8EE191E0F2CF8CE191E0EFCF1092FC
:10313000930284E180932001C0931F018CE380936C
:103140001E0188E080931C0188E280931B0194CFCC
:1031500086EFB0CF8FEFAECF97FFBECF10828CCF70
:10316000CF93DF93EB0186319C4711F50E946F0BE3
:103170009A81992399F08A7A91E009F490E09093EA
:10318000A502811109C089E20E94470B0E94B00B81
:1031900080E0DF91CF91089585E3F6CF8091A5027D
:1031A000811104C089E20E944F0BF0CF85E3FBCF71
:1031B00081E0EFCF0F931F93CF93DF93C42FD22FD4
:1031C000FC0182818823C9F04093A8020E943D1D22
:1031D0009093A7028093A60280E28C0F883040F47F
:1031E000C77081E001C0880FCA95EAF70E944504C4
:1031F000DF91CF911F910F9108951091A8021413A0
:1032000032C08091A6029091A7020E94551D883C71
:10321000910548F5C0E2CD0F1D17B9F080E2810F8E
:10322000883040F4177081E001C0880F1A95EAF7E2
:103230000E944C04C83048F481E09D2F977001C073
:10324000880F9A95EAF70E944504802F0E943C045B
:10325000C83070F6D77081E001C0880FDA95EAF7C0
:103260000E944C04C5CF80E28C0F883008F6C770EE
:1032700081E001C0880FCA95EAF7F2CF0F93DB0116
:1032800088519C4787309105A0F5FC01E557FA4D20
:103290000C94732406E221EE41EE6AE17CE7CD0155
:1032A0000E94DA1880E00F91089507E225EE45EEBE
:1032B0006BE17CE7F4CF06E221EE40EE68E17CE7CB
:1032C000EECF07E225EE44EE69E17CE7E8CF06E2C7
:1032D00021EE42EE6CE17CE7E2CF07E225EE46EE1E
:1032E0006DE17CE7DCCF08E221E045EE6EE17CE7B2
:1032F000D6CF12968C91882319F01092A802D3CFC2
:1033000081E0D1CF8EE1489B02C08150E1F7489B1C
:10331000FECF0895589880E28A95F1F7589A08955B
:10332000FC013BE03A95F1F798E020E080E031E0E5
:1033300040E14A95F1F7880F489B02C0816023273E
:1033400042E04A95F1F7000040E14A95F1F79150CB
:1033500079F790E19A95F1F799B132E03A95F1F762
:10336000000040E14A95F1F7917092272081920F79
:1033700090830895A1E0B0E0E0ECF9E10C9485249D
:1033800019828C017C01E60EF11C0E151F0541F41B
:1033900081E09981911180E02196E6E00C94A124CE
:1033A0000E948219CE0101960E949019F801819322
:1033B0008F01EBCF509A589A08955098589AE89AEE
:1033C000E9E6F0E080818C7F808308956150770B7F
:1033D00091E001C0990F6A95EAF720E031E0911180
:1033E00008C0222391F0589A80E28A95F1F7589804
:1033F0000895492F482339F0589A232740E24A95E7
:10340000F1F79695ECCF5898F9CF5898EDCFFF92F9
:103410000F931F93CF93DF93EC018C01060F111DC7
:10342000C017D10729F4CDB7DEB7E5E00C94A2248C
:10343000F9900E948A1968E08F2D0E94E619F0CF5A
:103440001F920F920FB60F9211240F931F932F9379
:103450003F934F935F936F937F938F939F93AF931C
:10346000BF93EF93FF93CF93DF930F92CDB7DEB768
:1034700019820E948219CE0101960E949019082F8C
:10348000069506950695282F22952570902F957004
:10349000290F922F937026952695920F9827977053
:1034A0008981982B09F05CC0043008F059C080E194
:1034B0008A95F1F7589A509A82E08A95F1F700C000
:1034C000589888E0089F80011124D801AD5FBE4F55
:1034D0001696ED91FC9117973097A9F06091A8018D
:1034E0007091A90114962D913C911597260F371FC5
:1034F00011968D919C911297680F791F13964C919C
:1035000013978C910995F801ED5FFE4F6381662357
:1035100051F02091A8013091A90184819581820FF9
:10352000931F0E94071A0E948A1980E18A95F1F779
:1035300058985098589A80E18A95F1F7F801ED5F14
:10354000FE4F6081662351F02091A8013091A901BE
:1035500081819281820F931F0E94BA190E94821961
:103560000F90DF91CF91FF91EF91BF91AF919F911C
:103570008F917F916F915F914F913F912F911F910B
:103580000F910F900FBE0F901F9018950F931F93E0
:10359000CF93DF93EC0104970CF04CC0F894509A51
:1035A000589885E08A95F1F700009C2F96959570C4
:1035B0008C2F8570980F892F83709695969523E0B0
:1035C000CC0FDD1F2A95E1F7980F8E01092B0E9481
:1035D0008A1900C068E0802F0E94E61980E18A9570
:1035E000F1F75098589A489B1EC087E090E04899A0
:1035F0001CC0FE01ED5FFE4F63816623F9F0209150
:10360000A8013091A90184819581820F931F0E94A6
:10361000BA19811113C0509A589A7894DF91CF91BA
:103620001F910F91089500C0DECF019729F4509AA1
:10363000589A789480E0F2CF00C0D9CF0E948219C6
:1036400080E28A95F1F75898509A80E18A95F1F7CF
:10365000CD5FDE4F6881662351F02091A801309143
:10366000A90189819A81820F931F0E94071A0E94E3
:103670008A19789481E0D2CF9093AB018093AA010C
:1036800008959093AF028093AE0208950E94EB11CB
:10369000811103C08091A9020895E091AE02F091DA
:1036A000AF02309729F00190F081E02D099508953F
:1036B00080E00895E091AE02F091AF02309799F06A
:1036C00020912901222359F02091D80227FF07C019
:1036D000DC012C9111962C93119726E02C930280FB
:1036E000F381E02D09950895E091AE02F091AF02CB
:1036F000309739F022E0DC012C930480F581E02D35
:1037000009950895A3E0B0E0E8E8FBE10C94892472
:103710002091AC023091AD0228173907A1F09093A7
:10372000AD028093AC02E091AE02F091AF0230970F
:1037300051F023E029839B838A830680F781E02D63
:10374000CE01019609952396E2E00C94A524A3E00E
:10375000B0E0EDEAFBE10C9489242091AA023091BB
:10376000AB0228173907A1F09093AB028093AA020D
:10377000E091AE02F091AF02309751F024E029833E
:103780009B838A830680F781E02DCE0101960995FF
:103790002396E2E00C94A524FC0132968091290145
:1037A000882321F08091D8029EE187FF96E080E097
:1037B000915008F4089521912223D1F38F5FF8CF1F
:1037C000662301F1209129012223F1F02091D802F2
:1037D00027FF1AC0462F4695469546954E3190F4E0
:1037E000677021E030E002C0220F331F6A95E2F7D4
:1037F000840F911DFC01828190E02823392381E010
:10380000232B69F480E00895FC01329608962191FB
:10381000261721F0E817F907D1F7F4CF81E00895D2
:103820009C01FC0132969FEF80E04191461751F0D8
:103830009F3F19F4411101C0982F8F5F8630A9F77F
:103840009F3F09F40895290F311D97FD3A95F9011D
:1038500062830895FC01329608962191261303C0D5
:10386000DF0111971C92E817F907B9F70895E62FC1
:10387000E695E695E695EE3168F4E80FF92FF11D2F
:10388000677021E030E001C0220F6A95EAF782817B
:10389000822B82830895E62FE695E695E695EE3134
:1038A00070F4E80FF92FF11D677021E030E001C0DE
:1038B000220F6A95EAF720958281282322830895B2
:1038C00020912901222339F02091D80227FF03C03B
:1038D0000E94371C08950E94101C08952091290110
:1038E000222339F02091D80227FF03C00E944B1CED
:1038F00008950E942A1C0895FC01329680912901A6
:10390000882351F08091D80287FF06C08EE1DF0145
:103910001D928A95E9F7089586E0F9CF46E050E0D8
:103920000E94C42421E0892B09F420E0822F08950D
:1039300008950E94981C0895811106C081E080932B
:10394000B0020E94991C089582E0F9CF83E0809331
:10395000B0020E94991C08950E949C1C089581E069
:103960008093B0020E94991C08950E94AF1C089594
:10397000089508950E94B91C0895089508950E941D
:10398000B81C0895CF930E94BD1C0E946F110E9425
:10399000BE1CC0E08C2F0E944C10811105C0CF5F6F
:1039A000CC30C1F7CF91089581E0FCCF85B7806816
:1039B00085BF85B7806885BF08951F921FB61F9287
:1039C00011248F939F93AF93BF938091B102811184
:1039D00013C08091F4029091F502A091F602B0918B
:1039E000F7024196A11DB11D8093F4029093F50258
:1039F000A093F602B093F702BF91AF919F918F9180
:103A00001F901FBE1F9018958091FC02843031F1E9
:103A10000E94A5021092B10288E190E020E40FB666
:103A2000F894A895809360000FBE2093600083B740
:103A3000817F846083BF83B7816083BF78948895DA
:103A400083B78E7F83BF0FB6F894A89580916000EE
:103A5000886180936000109260000FBE08950E94FC
:103A6000AF060E94AA02089582E084BD93E095BD4E
:103A70009AEF97BD80936E0008952FB7F8948091C8
:103A8000F4029091F502A091F602B091F7022FBFD7
:103A900008952FB7F8946091F4027091F502809127
:103AA000F6029091F7022FBF08959C014FB7F8944A
:103AB0008091F4029091F502A091F602B091F70284
:103AC0004FBF821B930B0895CF92DF92EF92FF922C
:103AD0002FB7F894C090F402D090F502E090F6026F
:103AE000F090F7022FBFA7019601261B370B480B5A
:103AF000590BCA01B901FF90EF90DF90CF90089564
:103B000078941F921FB61F9211248F939F93AF93A7
:103B1000BF938091F4029091F502A091F602B091CA
:103B2000F7020196A11DB11D8093F4029093F50256
:103B3000A093F602B093F702BF91AF919F918F913E
:103B40001F901FBE1F90189587E797E79093010875
:103B50008093000888E19AE00FB6F894A8958093C6
:103B600060000FBE90936000FFCF88E19AE00FB62F
:103B7000F894A895809360000FBE90936000FFCFEB
:103B80008091D20208959B01BA019091FC02943079
:103B9000E9F48F708093E9009FEF8091E8009150E5
:103BA00085FD06C085ED8A95F1F700009111F5CFEE
:103BB0008091E80085FF0AC050E040E0C9010E9402
:103BC000CD1F8091E8008E778093E800089543E050
:103BD00050E0BC0182E00E94C31D089546E050E021
:103BE000BC0182E00E94C31D0895CF93DF93EC01D6
:103BF00080912901811111C048E050E0BE0181E0AF
:103C00000E94C31D80E2FE01A2EBB2E001900D9282
:103C10008A95E1F7DF91CF9108958091D80287FFCF
:103C200005C040E282E050E0BE01EACF48E081E01A
:103C3000FACF8091FB02811109C00E945D210E9490
:103C4000BA218091E20084608093E200089510928E
:103C5000FB0208950E94AF1C08956091F80281E074
:103C6000611101C080E00E94A61C08959091FC02A1
:103C700081E0943009F080E06091F8020E94AC1C71
:103C8000089542E061EC81E00E94D92042E261ECBB
:103C900082E00E94D9209091FC0281E0943009F0EA
:103CA00080E06091F8020E949C1C08958091FE02C1
:103CB000833009F461C030F48130D1F1823009F4ED
:103CC0009EC008958A3009F48AC08B3009F46FC011
:103CD000893009F050C08091FD02813209F04BC05B
:103CE0008091010390910203029708F044C08091F3
:103CF000E800877F8093E8008091E80082FF37C06A
:103D00009091F3008091F200029731F48091F100DC
:103D1000813011F0863021F48091F1008093D2023D
:103D20008091E8008B778093E8000E940D2123C0EA
:103D30008091FD02813AF9F48091E800877F8093B9
:103D4000E8008091010390910203892B61F460E205
:103D500082EB92E070E00E941C208091E8008B775B
:103D60008093E800089560E090E080E0F3CF8091D8
:103D7000FC028111C1CF08958091FD02813AD9F7EB
:103D80008091010390910203892BA9F78091E800AB
:103D9000877F8093E8008091E80080FFFCCF8091CE
:103DA00029018093F1008091E8008E77BCCF80914B
:103DB000FD02813201F78091010390910203892B6A
:103DC000D1F68091E800877F8093E8000E940D2162
:103DD0008091FF02809329010E94AF06089580918F
:103DE000FD02813241F68091E800877F8093E800F0
:103DF0000E940D21809100038093D3020895809149
:103E0000FD02813A09F0B7CF8091E800877F809367
:103E1000E8008091E80080FFFCCF8091D302C1CF01
:103E200084B7877F84BF0FB6F894A895809160000F
:103E3000886180936000109260000FBE80E890E07F
:103E40000FB6F89480936100909361000FBE0E94BA
:103E5000B51C08950E945D210E94BA21E2EEF0E0B7
:103E600080818460808378940E943924089581E25F
:103E700091E00E94411B08958091FC02853031F44D
:103E80008091FC02853019F00E942F1D08950E9438
:103E9000041D8091FA02882399F30E94C21C882392
:103EA00079F30E94B71F0E94AF06EACF08959A01E6
:103EB00040910303509104030E945F1F0895492F0E
:103EC00055274330510519F168F44130510509F483
:103ED00044C04230510509F445C090E080E050E014
:103EE00040E025C04132510549F142325105A9F760
:103EF00080E490E041E153E061157105C1F086EB8B
:103F000090E04BE552E06130710589F0E6CF9927EA
:103F10008130910581F0009729F00297F1F6ECECE1
:103F2000F1E002C0EAE0F2E0849190E0AF01F90133
:103F3000518340830895EAEFF1E0F6CF89E090E005
:103F400040E252E06115710591F389E090E049E3A8
:103F500052E06130710559F3C0CF82E190E049E44D
:103F600052E0E5CF8BE390E04EE052E0E0CF80E11D
:103F700089BD82E189BD09B400FEFDCF8091D800E2
:103F80008F7D8093D8008091E00082608093E00074
:103F90008091E00081FDFCCF0895AF92BF92CF9257
:103FA000DF92FF920F931F93CF93DF936C01EB018E
:103FB0008A010E942C21F82E811123C001151105C0
:103FC00039F0F80180819181C81BD90BC80ED91E28
:103FD000B12CA12C2097A9F08091E80085FD22C08A
:103FE0008091E8008E778093E80001151105A1F01B
:103FF000F80180819181A80EB91EB182A08285E06E
:10400000F82E8F2DDF91CF911F910F91FF90DF90B0
:10401000CF90BF90AF9008950E942C218823D1F2B9
:10402000F82EEFCFF60181916F018093F100219777
:10403000FFEFAF1ABF0ACECFFC018091030390912E
:10404000040386179707A0F06115710529F4909174
:10405000E8009E779093E80090E06115710551F4B7
:10406000911108C08091E80082FF34C080E008957B
:10407000BC01F2CF8091FC028823C1F18530C1F1EF
:104080008091E80083FD30C08091E80082FDEACF96
:104090008091E80080FFE1CF8091F3002091F20051
:1040A000382F6115710519F02830310558F091E06D
:1040B0002830310509F090E02091E8002E77209318
:1040C000E800CBCF81918093F100615071092F5F9F
:1040D0003F4FE7CF8091FC02882341F0853041F0CB
:1040E0008091E80083FFBECF81E0089582E00895CB
:1040F00083E00895FC0180910303909104038617E7
:104100009707A0F06115710529F48091E8008E777A
:104110008093E80090E06115710551F4911108C099
:104120008091E80082FF35C080E00895BC01F2CFA5
:104130008091FC028823C9F18530C9F18091E800A3
:1041400083FD31C08091E80082FDEACF8091E800D4
:1041500080FFE1CF8091F3002091F200382F6115AC
:10416000710519F02830310558F091E028303105FB
:1041700009F090E08091E8008E778093E800CBCF43
:1041800084918093F1003196615071092F5F3F4F08
:10419000E6CF8091FC02882341F0853041F0809188
:1041A000E80083FFBDCF81E0089582E0089583E0B9
:1041B0000895982F973028F08F708093E90081E060
:1041C00008959093E900242F762F50E0981731F04E
:1041D0007091EC002091ED005091F00021FD02C0A3
:1041E0009F5FE8CF3091EB003E7F3093EB00309142
:1041F000ED003D7F3093ED003091EB003160309366
:10420000EB007093EC002093ED005093F0002091B0
:10421000EE0027FDE5CF80E008958091FD0287FF45
:1042200013C08091E80082FF06C08091E8008B7780
:104230008093E80004C08091FC028111F2CF0895C0
:104240008091FC028823D9F38091E80080FFF8CFA9
:104250008091E8008E77ECCF2091E4003091E5006A
:1042600095E6A9012091EC00822F817020FF06C005
:104270008091E80080FF06C080E008952091E8006A
:1042800022FD1AC08091FC02882389F0853089F0D4
:104290008091EB0085FD0FC02091E4003091E50096
:1042A00042175307F9F29150E1F684E0089582E055
:1042B000089583E0089581E008950E94CC210E9432
:1042C000D421E0EEF0E0808181608083E8EDF0E0D1
:1042D00080818F77808319BCA7EDB0E08C918E7FB1
:1042E0008C9380818F7E80831092FB0208950F93C0
:1042F0001F93CF93DF930E94CC210E94D421C8ED5D
:10430000D0E088818F7788838881806888838881DE
:104310008F7D888319BC1092FC021092F8021092D3
:10432000FA021092F90200EE10E0F80180818B7F12
:10433000808388818160888342E060E080E00E9421
:10434000D920E1EEF0E080818E7F8083E2EEF0E024
:10435000808181608083808188608083F801808192
:104360008E7F8083888180618883DF91CF911F91C8
:104370000F910895E8EDF0E080818F7E8083E7ED76
:10438000F0E080818160808384E082BF81E080935F
:10439000FB020E9477210895E8EDF0E080818E7F96
:1043A00080831092E20008951092DA001092E100EA
:1043B00008951F920F920FB60F9211242F933F93DF
:1043C0004F935F936F937F938F939F93AF93BF931D
:1043D000EF93FF938091E10082FF0BC08091E20098
:1043E00082FF07C08091E1008B7F8093E1000E94F3
:1043F00038248091DA0080FF19C08091D80080FFB6
:1044000015C08091DA008E7F8093DA008091D90008
:1044100080FF96C080E189BD82E189BD09B400FEBC
:10442000FDCF81E08093FC020E94191E8091E10083
:1044300080FF19C08091E20080FF15C08091E200EA
:104440008E7F8093E2008091E20080618093E200A1
:104450008091D80080628093D80019BC85E0809359
:10446000FC020E942D1E8091E10084FF2BC08091F0
:10447000E20084FF27C080E189BD82E189BD89B562
:10448000982F917080FFFBCF8091D8008F7D809313
:10449000D8008091E1008F7E8093E1008091E2005E
:1044A0008F7E8093E2008091E20081608093E20041
:1044B0008091F802882309F449C084E08093FC02CB
:1044C0000E94361E8091E10083FF29C08091E200A6
:1044D00083FF25C08091E100877F8093E10082E027
:1044E0008093FC021092F8028091E1008E7F80930D
:1044F000E1008091E2008E7F8093E2008091E200F3
:1045000080618093E20042E060E080E00E94D92078
:104510008091F00088608093F0000E942A1EFF9135
:10452000EF91BF91AF919F918F917F916F915F912B
:104530004F913F912F910F900FBE0F901F901895A4
:1045400019BC1092FC020E94271E70CF8091E300DC
:1045500087FD93E09093FC02B3CF1F920F920FB6AA
:104560000F9211242F933F934F935F936F937F93F9
:104570008F939F93AF93BF93CF93DF93EF93FF936B
:10458000D091E900DF708091EC00C82FC17080FDF0
:10459000C0E81092E9008091F000877F8093F000DE
:1045A00078940E94F1221092E9008091F0008860D6
:1045B0008093F000CD2BCF70C093E900FF91EF9175
:1045C000DF91CF91BF91AF919F918F917F916F912B
:1045D0005F914F913F912F910F900FBE0F901F90C1
:1045E0001895AAE2B0E0E7EFF2E20C9488248DEF90
:1045F00092E02091F100FC012193CF01F3E085309E
:104600009F07B9F70E94561E8091E80083FF1EC1E4
:104610008091FD029091FE029A3008F017C1E92FB7
:10462000F0E0EE56FA4D0C947324803899F08238FD
:1046300009F00CC1809101038F70873008F006C12A
:104640008093E9008091EB0085FB882780F9109228
:10465000E90006C08091F9029091FA0291118260FE
:104660009091E800977F9093E8008093F10010927A
:10467000F1008091E8008E77E5C0882309F4D3C06B
:10468000823009F0E3C08091FF028111D6C0809191
:1046900001038F702FEF280F263008F0D7C08093CA
:1046A000E9002091EB0020FFC8C0933031F48091E5
:1046B000EB0080628093EB00C0C09091EB009061B2
:1046C0009093EB0021E030E001C0220F8A95EAF7D9
:1046D0002093EA001092EA008091EB008860EACF14
:1046E0008111B4C01091FF021F778091E3008078A0
:1046F000812B8093E3008091E800877F8093E8001E
:104700000E940D218091E80080FFFCCF8091E300A2
:1047100080688093E30082E0111183E08093FC02C3
:1047200095C08058823008F091C08091FF0290912E
:1047300000038C3D23E09207A1F583E08A838AE29F
:1047400089834FB7F894DE01139620E03EE051E2F2
:10475000E32FF0E050935700E49120FF03C0E2956F
:10476000EF703F5FEF708E2F90E0EA30C0F0C79699
:104770008D939D932F5F243159F74FBF8091E800AF
:10478000877F8093E8006AE270E0CE0101960E9484
:104790001C208091E8008B778093E80057C0C0967A
:1047A000E7CF6091010370910203AE014F5F5F4F4D
:1047B0000E94571FBC01892B09F448C09091E80062
:1047C000977F9093E80089819A810E947A20E1CFB7
:1047D0008038E1F58091E800877F8093E800809140
:1047E000F8028093F10045CF811130C09091FF0213
:1047F000923060F58091E800877F8093E800909385
:10480000F8020E940D218091F802882311F084E0C3
:1048100005C08091E30087FDFACF81E08093FC0220
:104820000E94411E13C08091FF02813079F481E023
:10483000933009F080E08093FA021092E9008091B1
:10484000E800877F8093E8000E940D218091E800B6
:1048500083FF0AC08091E800877F8093E800809101
:10486000EB0080628093EB00AA96E3E00C94A42412
:104870000895CF938091FC028823A1F0C091E900B4
:10488000CF709091EC00892F817090FD80E8C82B4B
:104890001092E9008091E80083FD0E94F122CF7020
:1048A000C093E900CF9108950E945D211092FC020F
:1048B00008958091E300881F8827881F089597FB3B
:1048C000072E16F4009407D077FD09D00E94B0247B
:1048D00007FC05D03EF4909581959F4F0895709503
:1048E00061957F4F0895EE0FFF1F0590F491E02D25
:1048F00009942F923F924F925F926F927F928F9284
:104900009F92AF92BF92CF92DF92EF92FF920F935E
:104910001F93CF93DF93CDB7DEB7CA1BDB0B0FB668
:10492000F894DEBF0FBECDBF09942A883988488825
:104930005F846E847D848C849B84AA84B984C884BB
:10494000DF80EE80FD800C811B81AA81B981CE0FB2
:10495000D11D0FB6F894DEBF0FBECDBFED01089597
:10496000AA1BBB1B51E107C0AA1FBB1FA617B70795
:1049700010F0A61BB70B881F991F5A95A9F78095B1
:104980009095BC01CD010895FB01DC0104C08D911F
:104990000190801921F441505040C8F7881B990BB1
:1049A0000895FB01DC0102C001900D92415050407E
:1049B000D8F70895F999FECF92BD81BDF89A99274D
:1049C00080B50895A8E1B0E042E050E00C940E25D7
:1049D000262FF999FECF92BD81BDF89A019700B4B8
:1049E000021639F01FBA20BD0FB6F894FA9AF99A58
:1049F0000FBE08950396272F0E94E9240E94E82401
:104A0000252F0E94E924242F0C94E9240196272FB6
:104A10000E94E9240C94E824DC01CB01FC01F99903
:104A2000FECF06C0F2BDE1BDF89A319600B40D92FA
:104A300041505040B8F70895F894FFCF9204920483
:104A4000E304E30456057205C104C1047705E805D3
:104A5000F705F705FE1672170617D016D4160A17B3
:104A6000D8160E171A17E4166B17E8161E17EC1651
:104A700022174A17F01626175117F6162C17341757
:104A8000DC161217E0161617FA16301740175A17C9
:104A90006917CA1602177917991790179C178E175E
:104AA000ED17ED178E17ED17ED17B817ED17C317A4
:104AB000CE17ED17ED17ED17ED178E17ED17ED1754
:104AC0008E17ED17AA17ED17ED17EB17EB17EB176E
:104AD000EB17EB17EB17EB17EB17EB17D917ED17D6
:104AE00099178C17ED17ED17ED17ED17ED17ED175B
:104AF000ED17ED17ED17ED17D917ED17ED178E1709
:104B0000ED17E017E017E017E017E017E017E017E0
:104B1000E017E017D9175B1961194A195519671978
:104B20006D19731915233D2326243D232624702354
:084B300091232624E823F4235D
:104B3800340201000000010000000000000006012E
:104B480000000004070000000000002808503C078F
:104B580014C01DF51DEE1DE71D01E200E900EA0085
:104B6800B500B600B700CD008301CC008A019201E0
:104B780094012102230224022502260227022A0286
:104B8800B300B4006F0070009F01CB019F02A00228
:104B9800818283E200E900EA00B500B600B700CDE3
:104BA800008301CC008A019201940121022302248E
:104BB800022502260227022A02B300B4006F007001
:104BC800009F01CB019F02A002818283946697C651
:0A4BD8003435F6F73133323675023A
:00000001FF
