:100000000C94A9010C94821A0C94C6010C94C6019C
:100010000C94C6010C94C6010C94C6010C94C60144
:100020000C94C6010C94C6010C943B220C940F2333
:100030000C943F1D0C94C6010C94C6010C94C6018F
:100040000C94C6010C94C6010C94C6010C94C60114
:100050000C94C6010C94E21D0C94C6010C94C601CC
:100060000C94C6010C94C6010C94C6010C94C601F4
:100070000C94C6010C94C6010C94C6010C94C601E4
:100080000C94C6010C94C6010C94C6010C94C601D4
:100090000C94C6010C94C6010C94C6010C94C601C4
:1000A0000C94C6010C94C6010C94C60129001E00D4
:1000B0001F002000210022002B0014001A0008005D
:1000C00015001700E00004001600070009000A00F0
:1000D000E1001D001B0006001900050000000000E3
:1000E0003500010021522C00000000003900E20020
:1000F0002800E300230024002500260027002D000F
:100100001C0018000C00120013002E000B000D0044
:100110000E000F00330034001100100036003700CD
:10012000380031002A00E1002F00300000000000FC
:10013000E200E22546004C000000000045003A00C5
:100140003B003C003D003E0001001E001F0020005F
:100150002100220001004A004B004E004D004600E5
:10016000010001000100010001002F00000000005B
:100170000100010001000100000000000100010079
:10018000010001003F0040004100420043004400E4
:100190002300240025002600270001005000510004
:1001A00052004F0001000100300001000100010079
:1001B0000100010001000100D100D2000000000098
:1001C0000100010001000100000000002C034400B8
:1001D00061006300740079006C002D004D00610027
:1001E0006E00750066006F0072006D002000280030
:1001F000350078003600290000000E0374007300FB
:1002000068006F0072007400000004030904090212
:100210003B00020100A0FA090400000103010100F3
:100220000921110100012240000705810308000196
:10023000090401000103000000092111010001224D
:10024000B600070582032000011201000200000031
:10025000084D44363501000102000105010902A1E3
:100260000185020901A100050919012908150025C8
:1002700001950875018102050109300931158125B3
:100280007F95027508810609381581257F950175CE
:10029000088106050C0A38021581257F950175082D
:1002A0008106C0C005010980A101850319012AB793
:1002B00000150126B700950175108100C0050C09D5
:1002C00001A101850419012AA002150126A00295A9
:1002D0000175108100C005010906A1018506050709
:1002E00019E029E715002501950875018102050728
:1002F000190029EF1500250195F075018102050807
:100300001901290595057501910295017503910162
:10031000C005010906A101050719E029E715002517
:10032000019508750181029501750881010507197C
:100330000029FF150026FF009506750881000508B5
:100340001901290595057501910295017503910122
:10035000C00011241FBECFEFDAE0DEBFCDBF11E039
:10036000A0E0B1E0ECEFFBE402C005900D92A23BEF
:10037000B107D9F723E0A2EBB1E001C01D92A33190
:10038000B207E1F70E945F140C947E250C940000E4
:100390008230B8F46C30A8F4463098F450E096E01F
:1003A000699F400D511D1124FA0198E4899FE00DC9
:1003B000F11D1124EE0FFF1FE455FF4F859194911D
:1003C000089581E090E008950E94C801089581E0B9
:1003D000089581E008950E94E901089508950E941A
:1003E000EE010895A5E0B0E0E8EFF1E00C94EA2416
:1003F00049835A833091B90189819A81311119C099
:10040000662399F0222389F00E940408182F682F90
:1004100089819A810E94E00769817A81812F0E94F7
:10042000EF0E2596E3E00C9406250E94F207182FA4
:10043000F3CF0E94040869817A81F1CFFC01262F55
:10044000408151816281738184810E94F20108950B
:1004500081E00895CF93DF93EC0160E00E941E02DB
:10046000BE010E94EF01DF91CF91089508950E948F
:10047000AF060E9436022FEF84E39CE021508040BB
:100480009040E1F700C0000008950E9437020E94EA
:10049000061E08950E9437020E94171E08950F93AA
:1004A0001F93CF93DF938C0161E00E941E02EC0149
:1004B000B8010E94EB01811106C080E0DF91CF916D
:1004C0001F910F910895B801CE010E94A0198823B1
:1004D000A1F3B801CE010E940817882371F3B80177
:1004E000CE010E941219882341F3F80182818823EA
:1004F00061F0C330FCE7DF07E9F058F4C115ECE721
:10050000DE07A9F0C130DC47B9F0C8010E94E7015D
:10051000D5CFCB358CE7D807A9F0CC35ECE7DE0793
:1005200071F0CA35DC4789F70E944E0CEECF0E946D
:100530004502C3CF0E94560C0E944A02BECF0E94C1
:10054000440CE3CF0E94520CE0CF0E941C1D0E947D
:10055000CC0208950E94D0020E94211D08950895A2
:1005600081E008950895CF93DF93D82F0E94B002C1
:10057000C82F882319F08D2F0E94B2028C2FDF9193
:10058000CF9108950895CF93C82F0E94AF028C2F6A
:100590000E94B302CF91089580E00E94C3020895A3
:1005A0000E94A81B0E94C3020895CF930E94A81B1B
:1005B000C82F8091B4018C1779F0C093B4010E94C8
:1005C000AB1D6093B5017093B6018093B701909312
:1005D000B8018C2F0E94C302CF910895ABE0B0E028
:1005E000E4EFF2E00C94EB244F83588769877A8715
:1005F0008B8761110E948F0B1E821D8285E0FE0198
:100600003796DE01119601900D928A95E1F78C8163
:100610009D81892B61F449815A816B817C818D8117
:100620009E810E94B70A2B96E2E00C9407258981EF
:100630009A8189238F3F79F3CE0101960E94280287
:100640008111E9CFF0CFFC01808191810E943608B1
:100650000895662329F00E94E3140E94B6150895B8
:100660000E943D15FACFCF93C82F8823C9F0823856
:10067000C9F40E94A81B81FD13C089E30E94470BA7
:100680000E94B00B2FEF87EE93E021508040904006
:10069000E1F700C0000089E30E944F0B0E94B00BFD
:1006A000CF9108958338A1F40E94A81B80FDF8CF54
:1006B00083E50E94470B0E94B00B2FEF81EE94E080
:1006C000215080409040E1F700C0000083E5E4CF76
:1006D0008438A1F40E94A81B82FDE2CF87E40E9427
:1006E000470B0E94B00B2FEF81EE94E02150804029
:1006F0009040E1F700C0000087E4CECF8CEF8C0F74
:10070000813AB8F48C2F0E9456188111C9CF6C2FF2
:1007100080910001909101010E94421C882329F0E0
:100720008C2F0E944F0B0E94B00B8C2F0E94470B06
:10073000B5CF80E28C0F883048F4C77081E001C0EB
:10074000880FCA95EAF70E94720BA8CFEBE5EC0F71
:10075000E33040F4F0E0E859FE4F808190E00E94E1
:10076000E41B9ECFE8E5EC0FEB3150F4F0E0EE0F28
:10077000FF1FEE5CFE4F808191810E94091C90CF8B
:1007800083E38C0F833108F08BCF61E08C2F0E94C4
:10079000290386CF882309F456C0823879F40E9451
:1007A000A81B81FF50C089E30E94470B0E94B00B39
:1007B00089E30E944F0B0E94B00B0895833859F4CF
:1007C0000E94A81B80FF3FC083E50E94470B0E9448
:1007D000B00B83E5EECF843859F40E94A81B82FF4A
:1007E00032C087E40E94470B0E94B00B87E4E1CF40
:1007F0009CEF980F913AE8F290E2980F983050F4FD
:10080000877091E001C0990F8A95EAF7892F0E94BD
:10081000780BD1CF9BE5980F933028F490E080E0DF
:100820000E94E41B089598E5980F9B3128F490E00E
:1008300080E00E94091C089593E3980F933118F407
:1008400060E00E94290308951F93CF93DF93182F30
:10085000EB010E943303209739F4812F0E94CA03D1
:10086000DF91CF911F9108958FE99FE00197F1F7F4
:1008700000C000002197EFCF70E060E0893311F4F1
:1008800060E570E00E9424040895882321F00E940E
:10089000720B0E94B00B0895882321F00E94780B00
:1008A0000E94B00B0895B0E0A0E0E9E5F4E00C94FC
:1008B000E4246C01D62FC72FFC011281058102951B
:1008C0000F700E94680BE82E8823E9F0E12E1123B7
:1008D000D1F08C2F807F803451F080E28D0F8830F2
:1008E000F8F0011104C08C2F807E8032C9F0809115
:1008F000E70282FF15C082E00E94130C0E94680B81
:1009000091E0E82EE926BC2EB2949FE0B922FBE0EC
:10091000FB15B8F1EB2DF0E0E058FA4D0C94D5241E
:10092000E12CF1CF0C2F0F70C07F11F00295007FEA
:10093000112399F0002359F080E28D0F883010F0D8
:10094000D11107C0802F0E94720B0E94B00B8D2F17
:1009500063C0802F0E94820BF8CF8D2F0E94CA03A4
:10096000002379F080E28D0F883010F0D11104C09F
:10097000802F0E94780B03C0802F0E94880B0E945A
:10098000B00B2B2D2850330B2430310520F40E945E
:10099000A81B0E94C302EE2089F00E94640B80FD18
:1009A0000DC0F60112820E945E0B0E943E07C60136
:1009B0000E946F060E945E0B0E944E07CDB7DEB705
:1009C000E9E00C9400252C2F2F70F22EC07FC0324E
:1009D00019F0F29480EFF822DD2381F0D13009F490
:1009E00049C0112309F451C0002309F448C0F6019D
:1009F000858180FFACCF8F70858341C08091E702F5
:100A000082FD15C0112359F0FF2029F08F2D0E947F
:100A1000720B0E94B00B80E00E943303B2CF80E0E3
:100A20000E94CA03FF2009F4ACCF8F2DA2CF11235F
:100A300081F0011106C00E94920B8F290E9445048B
:100A4000A0CF0130C1F70E94920B8F290E94990B11
:100A500098CF011106C00E94A60B8F2D0E944C0456
:100A600090CF013009F48DCF8F2D0E944C040E944D
:100A7000A60B87CF112329F0063008F082CF8F2DE7
:100A8000DDCF053008F07DCFE8CF002331F3D93337
:100A900049F4FFEF27EE33E0F15020403040E1F71A
:100AA00000C000008D2F0E94CA036BCF8C2F86954B
:100AB0008695837069F0813009F063CF8D2F9C2F6C
:100AC0009370111102C080E090E00E94091C59CF80
:100AD0008D2F9C2F9370111102C080E090E00E9436
:100AE000E41B4FCF612F8D2F0E9429034ACF8C2FFB
:100AF0008370A1F5111145CF4D2F42954695477052
:100B0000440F440F2D2F2F7030E0042E02C0220F0F
:100B1000331F0A94E2F790E080E0D4FF09C08FE031
:100B200090E002C0880F991F4A95E2F78095909552
:100B3000C695C695C370822B932BC23049F058F4EA
:100B4000C13019F00E940E071CCF0E94050719CF73
:100B50000E94170716CF0E94020713CF8695112314
:100B600011F08C2F8170882309F40BCF4D2F429503
:100B700046954770440F440F2D2F2F7030E0042E00
:100B800002C0220F331F0A94E2F790E080E0D4FF06
:100B900009C08FE090E002C0880F991F4A95E2F7E4
:100BA00080959095C695C695C370822B932BC230C5
:100BB00049F058F4C13019F00E947907E2CE0E9442
:100BC0007007DFCE0E948207DCCE0E942607D9CEB6
:100BD000CF70112329F08C2F0E943E078D2F2ECF2E
:100BE0008D2F0E944C048C2F0E944E07CACED23FFC
:100BF00041F160F4D03FB9F0D13F81F0112309F405
:100C000046C00111A4CE8C2F8F711FC0D33F01F1BC
:100C1000D43FA1F78091E70282FD24C08C2F8F7111
:100C2000112311F312C0112341F0053008F0A9CEB1
:100C30008C2F8F710E946007A4CE063008F0A1CEE1
:100C4000F7CF8C2F8F711111CFCF0E943E0799CE15
:100C5000112329F08C2F8F710E94320792CE0E94AF
:100C60002D078FCE112349F0CF718C2F0E943E07A4
:100C700063E08C2F0E94F50B84CE81E00E94130C60
:100C8000023008F47ECE82E00E94130C7ACE00235C
:100C900059F0D93309F006CF8FEF97EEE3E081509A
:100CA0009040E040E1F7FCCE8C2F8F719DCF0F93E9
:100CB0001F93CF93DF93EC01688179818A810E9431
:100CC00041088C010E948B070E940107B801CE01E8
:100CD0000E945304DF91CF911F910F910895CF93FC
:100CE000DF93EC018B819C81892B29F0888199818C
:100CF00089238F3F51F4DF91CF910895CE010E9457
:100D00005706CE010E942A02F6CFCE010E944F0262
:100D10008111F4CF0E94680B882369F38A818823AC
:100D200051F38091E70282FFE6CF82E00E94130C2C
:100D3000E2CF90E080E00E94E41B90E080E00E941F
:100D4000091C0E948F0B0E94B00B0E94D2150E94BA
:100D5000B61508950E94570B0E94990608950E94A7
:100D60007F0B0E94AA06089592959F70963091F08D
:100D700058F4925F9F70923058F4803F19F030F42D
:100D8000883E30F481E008959A5FF4CF843FD1F338
:100D900080E00895883EB0F3813FD1F7F3CFFC01A6
:100DA00083819481892B29F08081918189238F3FD0
:100DB00011F480E00895808191810E9436080E949C
:100DC000B4060895A5E0B0E0E8EEF6E00C94EB245C
:100DD0002596E2E00C940725A6E0B0E0E2EFF6E00D
:100DE0000C94EB242696E2E00C94072508950E94CB
:100DF000F60608950E94F7069093E1018093E001C2
:100E0000089508950E94FA0608952091E001309116
:100E1000E101822B932B0E94FA0608952091E001B4
:100E20003091E101822393230E94FA0608952091D4
:100E3000E0013091E101822793270E94FA0608958C
:100E40000E94F60608950E94200708950E94230735
:100E50009093DF018093DE01089590E080E00E948E
:100E60002607089521E030E0A90102C0440F551F74
:100E70008A95E2F7CA010E942607089521E030E032
:100E800002C0220F331F8A95E2F78091DE01909114
:100E9000DF01822B932B0E942607089521E030E08A
:100EA00002C0220F331F8A95E2F72095309580917A
:100EB000DE019091DF01822393230E94260708958B
:100EC00021E030E002C0220F331F8A95E2F78091C3
:100ED000DE019091DF01822793270E942607089563
:100EE0002091DE013091DF01822B932B0E94260797
:100EF00008952091DE013091DF01822393230E9427
:100F0000260708952091DE013091DF018227932783
:100F10000E94260708950895262F277091E001C0AA
:100F2000990F2A95EAF723E0769567952A95E1F7D8
:100F3000660F771F660F771FFA01E60FF71F50E065
:100F400040E0682F70E08191DF0111979B01042E32
:100F500002C0369527950A94E2F72170219528273B
:100F6000292328272C934F5F5F4F4430510559F7B1
:100F70000895A82FA77023E0969587952A95E1F705
:100F8000880F991F880F991FFB01E80FF91F50E088
:100F900040E080E0219130E00A2E02C0369527958E
:100FA0000A94E2F721703327042E01C0220F0A941D
:100FB000EAF7822B4F5F5F4F4430510559F7089590
:100FC000262F9C3070F4863060F4682F70E086E045
:100FD000989F600D711D11244AEB51E0822F0E94F1
:100FE0008C070895292F9C3068F4863058F490E0DF
:100FF0006AEB71E036E0239F800D911D11240E9461
:10100000B907089580E00895B0E0A0E0EAE0F8E0D4
:101010000C94E4247C010091DE011091DF018091A9
:10102000E0019091E101082B192BCFE0D0E0CC2416
:10103000C394D12CBC2EC6010C2E02C0880F991F60
:101040000A94E2F780239123892B49F4219790F7A2
:10105000B12C8B2DCDB7DEB7E9E00C940025B7019C
:101060008C2F0E94FB0E019789F3F3CFCF93DF9370
:10107000EC010E940408BE010E94FB0EDF91CF919B
:1010800008951F93CF93DF93EB019091B9019923BA
:1010900039F0CB010E943608DF91CF911F9108955E
:1010A000882369F0CB010E940408182F682FCE0115
:1010B0000E94E007BE01812F0E94FB0EEDCFCB0105
:1010C0000E94F207182FF6CF1F93CF93DF93C091A2
:1010D000E20116E08091E3018C1304C0DF91CF910F
:1010E0001F910895D0E01C9FF0011D9FF00D112469
:1010F000EC51FE4F408151816281738184819581E1
:101100000E94EC062196C770E5CF409114025091E1
:101110001502609116027091170280911802909149
:1011200019020E94EC0608952091E2019091E301DA
:1011300056E0291302C080E0089530E0529FF0018C
:10114000539FF00D1124EC51FE4F7181761306C0B0
:101150007081781303C07281741304C02F5F3F4FF6
:101160002770E7CF81E008951F93CF93DF9380919D
:101170001902807F09F04BC080911602882309F480
:1011800046C08091E201C091E30140911402509168
:1011900015026091170270911802D42FD52316E022
:1011A000C817A9F190E061157105A9F1DF3F99F128
:1011B000189FF001199FF00D1124DF01AC51BE4FB3
:1011C00011962C911197251326C02C91241323C01E
:1011D00012962C91129721111EC013962D913C91BD
:1011E000261B370B283C3105B0F4809119028F7013
:1011F000806180931902E751FE4F80818F7080617A
:10120000808384E192E00E946F060E946408DF916F
:10121000CF911F91089501968770C2CFA1E1B0E0F0
:10122000E4E1F9E00C94E1248C0185E0F801DE01B1
:101230001D9601900D928A95E1F7D8011296EC90D7
:10124000129784E1A82E82E0B82E409117025091A7
:1012500018024115510509F471C1909114022091B1
:101260001502892F82238F3F09F468C1CC90119613
:10127000DC90119713968D909C901497F090160225
:10128000F401E41BF50BFF2009F406C1809119025B
:10129000382F307FE83CF10508F0C0C031118BC019
:1012A000FE2C2D1117C09C1115C0E11013C08F70BA
:1012B0008061809319020E948508C5010E946F0613
:1012C00080911902D80115968C938F2D6196ECE0D0
:1012D0000C94FD2481149104E9F08C2D8D218F3F15
:1012E000C9F081E08E2580FF17C04E2D6D2D8C2D0D
:1012F0000E949408882381F084E192E00E946F06A6
:1013000086E0E4E1F2E0DF011D928A95E9F70E94B0
:1013100085084FC080E0E7CF8114910449F18C2DFE
:101320008D218F3F29F181E08E25B82FB170BB2E22
:1013300080FF37C04E2D6D2D8C2D0E949408A82E55
:1013400081112FC0CD86DE868D859E850E94360850
:10135000292F22952F70243068F49F70223098F046
:101360009923A9F0F8019581907F89F4FA2CADCFEB
:1013700080E0DBCF2A5F2F70223068F0C8010E9426
:101380006F06AB2CF3CF992311F0882379F3805E9D
:10139000883060F3F3CF803F48F3815F833070F78C
:1013A000E5CFEE2009F491CF8091190281608093FE
:1013B0001902F12C8ACF2D1105C09C1103C0EE201B
:1013C00009F487C0C8010E94CF06882319F1EE20D6
:1013D00009F180911902803270F02091140230914D
:1013E000150238872F8319869B868A868C87CE01C3
:1013F00007960E946F0686E0F801A4E1B2E0019032
:101400000D928A95E1F70E94B4080E948508FF2496
:10141000F3945BCFC8010E946F06F9CF311112C05F
:10142000782D998A888AA6016E2D89890E94E20604
:1014300084E192E00E946F0686E0F50111928A95A0
:10144000E9F765CF2D110FC09C110DC0E1100BC045
:1014500015968C93C8010E946F0686E0F5011192E3
:101460008A95E9F732CFC8010E94CF06882391F20E
:10147000EE2081F280911902803208F4BCCF2091D5
:101480001402309115023A8329831B829D828C823B
:101490008E83CE010196ADCFE83CF10508F040C047
:1014A000FE2CEE2009F4B6CF2D112CC09C112AC0C1
:1014B0008091190280FD1DC0982F907FD1F0159664
:1014C0008C931597903F39F0982F907F905F8F7095
:1014D000892B15968C93C8010E946F0686E0F8014F
:1014E000A4E1B2E001900D928A95E1F70E9485088F
:1014F000ECCE86E0F801A4E1B2E001900D928A956D
:10150000E1F7E3CEC8010E94CF06811174CF80912C
:101510001902816080931902C8010E946F06D5CE1E
:10152000782D998A888AA6016E2D89890E94E20603
:1015300086E0F50111928A95E9F7D8CFEE2009F4FB
:1015400069CFC8010E94CF06F82E882309F462CF24
:1015500086E0F801A4E1B2E001900D928A95E1F7EE
:1015600084E192E00E9423030E94B408BFCFACE064
:10157000B0E0EDEBFAE00C94EA244F8358876987DA
:101580007A878B879C87CE0107960E940E09882355
:10159000B1F08A859B85892B39F04F815885842F3E
:1015A00085238F3F09F06CC016E08091E201909195
:1015B000E301891343C02C96E3E00C94062586E0F2
:1015C000FE013796DE01119601900D928A95E1F7A2
:1015D0008A859B85892B41F38F81988589238F3F4D
:1015E00019F32091E30130E0C90101968770992732
:1015F0004091E2014817190671F40E94AF0610925B
:10160000E3011092E20186E0E4E1F2E0DF011D92E5
:101610008A95E9F7C9CF96E0929FD001939FB00DCC
:101620001124AC51BE4FFE01319601900D929A9556
:10163000E1F78093E3010E946408B6CF819FC00167
:1016400011248C519E4F0E940E09882309F4B3CFB8
:10165000E091E2011E9FF0011124EC51FE4F408108
:10166000518162817381848195810E94EC06809111
:10167000E20190E00196877099278093E20195CF6F
:1016800069857A858B859C850E94EC068DCF682FB5
:1016900080910001909101010E94C21C0895682F61
:1016A00080910001909101010E94D01C08958091C9
:1016B0000001909101010E94DE1C089580913A0280
:1016C000859585958595089580913A02877008954E
:1016D00090913A02977081E009F480E0089580913A
:1016E0005D02089590915D02892B80935D020895BB
:1016F000809590915D02982390935D0208951092D9
:101700005D02089590915C02892B80935C0208959C
:10171000809590915C02982390935C0208951092BA
:101720005C02089580913B02089508950E94950BF4
:1017300008959091E70292FF08C090913B0298179C
:1017400021F080933B020E94960B089580913B020A
:10175000882329F010923B0280E00E94960B0895A6
:10176000CF93DF93E0910001F091010180915D0240
:101770008083E0910001F0910101808190915C02F1
:10178000892B808390913B02992381F0E0910001A5
:10179000F09101018081892B8083809100019091DB
:1017A00001010E942E1C81110E94A60BC091000114
:1017B000D091010140E250E06AE172E0CE010E9466
:1017C0002625892B59F080E2FE01AAE1B2E00190C2
:1017D0000D928A95E1F7CE010E94BC1BDF91CF915B
:1017E000089508950E94F10B08959091E70292FFE9
:1017F00011C098E0899F90011124622B60933A02F6
:101800000E943E0780913A028595859585950E94B4
:10181000F20B08950E943E07089510923A0280E06C
:101820000E94F20B089590913A028095892380934B
:101830003A02282F277091F4282F082E000C330B22
:101840009217130659F09091E70292FF07C0859511
:10185000859585950E944E070E940D0C08959091E4
:10186000E70292FB222720F9281769F080FB92F902
:101870009093E7028091E6029091E7020E94770C34
:1018800082E00E94130C08958091E70282FB882772
:1018900080F991E089270E942F0C089581E00E9431
:1018A0002F0C089580E00E942F0C08956FEF7FEFBA
:1018B00090E080E00E946825089590E080E00E941A
:1018C000442521E0873E9E4F09F020E0822F0895B5
:1018D00082E090E00E943C25089583E090E00E9421
:1018E0003C25089584E090E00E9444250895BC01C1
:1018F00084E090E00E9468250895AB01BC018FE070
:1019000090E00E945C250895AB01BC0183E190E06A
:101910000E945C25089560E070E0CB010E94840C79
:10192000089560E070E0CB010E947D0C0E948B0C5A
:10193000089567EE7EEF90E080E00E94682560E009
:1019400082E090E00E944A2560E083E090E00E94FF
:101950004A251092E1011092E00160E074E184E018
:1019600090E00E94682560E086E090E00E944A25B1
:101970006FEF87E090E00E944A2540E050E0BA0116
:1019800088E090E00E945C2560E08DE090E00E949D
:101990004A2540E050E0BA0188E190E00E945C25D1
:1019A00060E087E190E00E944A2540E050E0BA0103
:1019B0008CE190E00E945C2570E060E080E290E0C5
:1019C0000E94682540E050E0BA0188E190E00E9462
:1019D0005C250E94910C08950E94990C0895682F2F
:1019E0008EE090E00E944A250895A5E0B0E0EBEF7C
:1019F000FCE00C94E9240E949F1D8C0180915E0202
:101A000090915F0280179107A1F08FEF89838A83FD
:101A10001B820E949F1D8160782F9D838C8349814A
:101A20005A816B818D810E94EE0210935F020093B8
:101A30005E022596E4E00C9405250E94AB1D6093A0
:101A4000700270937102809372029093730260939C
:101A50006C0270936D0280936E0290936F020895F2
:101A6000089508950E94310D089508950E94350D3E
:101A7000089581E0089585E290E10E949E1B0E94F6
:101A8000300D0E94320D08950E94041208950895A9
:101A900008950E94470D0E94480D08950E94281045
:101AA0000E94C20208950E94961D0E94E50F0E94A6
:101AB00047120E944E110E944E0D0E94F0160E9485
:101AC00051120E94360D0895A5E0B0E0EAE6FDE06F
:101AD0000C94E3240E94390D81110EC00E94F50C74
:101AE0000E9404120E942A120E94F4150E94D5023C
:101AF0002596EAE00C94FF240E94711180E6A82E3E
:101B000082E0B82E750110E0F70101917F01812F6D
:101B10000E944E101F5F1C3009F440C00817A1F34B
:101B20008091740281FD0E9454100E94440DC82EC1
:101B300010E0812F0E944E10082FF50181915F0166
:101B4000081731F1D02ED826F12CEE24E3948D2DF8
:101B50008E21B1F0CC20A1F0F9821A8391E0802F80
:101B60008E2109F490E09B830E949F1D8160782F55
:101B70009D838C8349815A816B818D810E94EE0205
:101B8000F394EE0CF6E0FF12E2CFF50131970083FB
:101B90001F5F1C3071F60E941D0DA2CF0813C0CF2D
:101BA0009DCF1F93CF93DF930E94000FEC01C115CF
:101BB00080E5D807F0F5C11580E4D80708F09CC08F
:101BC000C03ED10520F5CD3CD10508F082C0C83A11
:101BD000D10578F4C53AD10508F073C0C130D105FC
:101BE00019F1209709F1C430D105F0F4D0E0C0E03C
:101BF0001BC0C33CD105D0F7C85AD0E0CC0FDD1FC5
:101C0000C559DE4F0990D881C02DD4640DC0C115CF
:101C100080E2D80708F0D1C0C11581E0D80708F0EC
:101C20005AC0C83ED10510F7CE01DF91CF911F9168
:101C30000895C03682E5D80718F5C03482E5D80784
:101C400008F06BC0C03282E5D80708F05FC0C1154C
:101C500082E5D80708F497C02C2F2695269580E2B8
:101C6000289F900111248C2F8370C1E0D0E002C026
:101C7000CC0FDD1F8A95E2F7C22BD32BDD68D4CFC2
:101C8000C03A82E5D80760F4C03882E5D80708F486
:101C900059C0CF71D0E0DC2FCC27C46FD06AC4CF3D
:101CA000C03C82E5D80708F462C0C03E82E5D80790
:101CB00008F09CCFDC2FCC27CC27DF71C06FD06A17
:101CC000B3CFC55AD0E0CF55DE4FC881D0E0D06445
:101CD000ABCFD065A9CF8D2F0E94A20F182FCE01B8
:101CE00099270E94000FC12FD0E0DC2FCC27CC27F2
:101CF000DF71C82BD92B98CFCE0199270E94000FF6
:101D0000CC27DF70C82BD92BD06A8ECFCF71D0E013
:101D1000DC2FCC27C16FD06A87CF2C2F2695269534
:101D2000277080E2289F900111248C2F8370C1E0DE
:101D3000D0E002C0CC0FDD1F8A95E2F7C22BD32B77
:101D4000DC6872CF2C2F26952695277080E2289F7D
:101D5000900111248C2F8370C1E0D0E002C0CC0F21
:101D6000DD1F8A95E2F7C22BD32BDA685DCF8C2F6B
:101D70008F710E94A20FC82FD0E0DC2FCC27CC2778
:101D8000DF71D06251CF8C2F8F710E94A20F55E06E
:101D9000D695C7955A95E1F7CF70D0E0DC2FCC27C8
:101DA000282F30E084FF05C044E0220F331F4A95FE
:101DB000E1F7C22BD32BD06937CF8D2F8F710E94C3
:101DC000A20F182FCE0199270E94000FC12FD0E03B
:101DD000DC2FCC27CC27DF71C82BD92BD2CF462FB5
:101DE0007C3030F4663020F4672F0E94E4010895BF
:101DF00090E080E008950E94EF0E0E94D10D0895BA
:101E000082389105B9F1B0F48133910509F47DC0B0
:101E100048F48932910509F46DC08A32910509F4BC
:101E20007BC008958533910509F45FC0893391051E
:101E300009F10895833E9105D9F138F4803E91056A
:101E400029F1823E910579F10895863E9105D9F1F7
:101E5000873E910509F43EC0843E910541F52091ED
:101E6000E70221FF24C08091E60284FD19C087EEBD
:101E700090E008952091E602237009F05AC0209165
:101E8000E70223FF14C089E290E008952091E60262
:101E900020FD38C03091E70230FF09C024FF43C065
:101EA00090E080E008952091E60222FDF7CF0895AA
:101EB0002091E60222FD3AC03091E70230FD39C0A0
:101EC00024FFF5CFEDCF2091E60223FFF0CF24FDD4
:101ED000E7CFCDCF2091E60223FD2EC03091E7025F
:101EE00031FFEECF84EE90E008952091E60225FFC9
:101EF000DECFC9CF2091E60225FD21C02091E70267
:101F000023FFD5CF89E390E0D2CF2091E60226FFD0
:101F1000CECF8AE290E008952091E60226FFC7CF57
:101F200081E390E0089583EE90E0089582EE90E0E2
:101F3000089580EE90E0089586EE90E0089585E3A0
:101F400090E008959091E60292FF06C0282F287134
:101F50002830F9F4877F846093FF06C0282F28710A
:101F60002831F1F4877E84612091E70220FF06C0CA
:101F7000382F38713830D9F4877F816021FF06C04F
:101F8000282F28712831D1F4877E816194FD877EC6
:101F90000895282F24712430F9F68B7F8860DCCFD8
:101FA000282F2471243101F78B7E8861DDCF382FF3
:101FB0003171313019F78E7F8860E0CF282F217181
:101FC000213121F78E7E8861E1CF1092E2021092DA
:101FD000E3021092E4021092E5020895CF92DF929C
:101FE000EF92FF926B017C010E94041281110EC0DE
:101FF0000E94AB1DC61AD70AE80AF90AC092E2028B
:10200000D092E302E092E402F092E502FF90EF90BA
:10201000DF90CF9008950F931F930E94041288239E
:1020200029F00E94AB1D1F910F9108950E94AB1DD6
:102030000091E2021091E3022091E4023091E50266
:10204000600F711F821F931FEECF80E008950895E7
:102050000E945D0C811102C00E94EC0C0E94680C71
:10206000809374020E94720C9093E7028093E602C0
:102070000E9427100E946D0C90E00E940207809140
:10208000DE019091DF010E942307089508950E94C8
:102090004610089508950E944A100895E82FF0E030
:1020A000EB50FD4F80810895089580EA8A95F1F7FD
:1020B000089500C008950E945510089508950E9443
:1020C0005E100895A6E0B0E0E8E6F0E10C94E724A5
:1020D0000E940412F82E60910103882309F440C085
:1020E00086E0E82E8E010F5F1F4FF8018E2D1192B2
:1020F0008A95E9F7862F90E0B8018B509D4F0E949A
:1021000061128823B9F08091E80290E046E050E047
:10211000B8018B509D4F0E94262521E02093750227
:10212000892B91F4F12C0E944B108F2D2696E6E01E
:102130000C940325809175028823A1F3F801119274
:10214000EA94E9F710927502A091E802B0E0AB5072
:10215000BD4F86E0F80101900D928A95E1F7E3CF3B
:1021600070E06B507D4F8091E80290E08B509D4F66
:102170000E94E8120E945F10D8CFF894E82FE295F1
:10218000EF70F0E031A1282F2F7081E090E001C0C6
:10219000880F2A95EAF7982F9095932391A392A1FF
:1021A000892B82A378940895CF93DF93CAEAD1E074
:1021B00089918F3F11F00E94BD1081E0C03BD8078C
:1021C000B9F7C4EAD1E089918F3F11F00E94BD10A8
:1021D00081E0CA3AD807B9F7DF91CF910895B0E00E
:1021E000A0E0E5EFF0E10C94E524EC01D62E062FFB
:1021F00010E0C80186559E4F7C01FC0180818F3F15
:1022000009F445C0F894E82FE295EF70F0E091A151
:102210008F7021E030E001C0220F8A95EAF7892F04
:10222000822B81A382A12095282322A378940E9447
:102230005910E4EAF1E04AEA51E031E0C12C219181
:102240002F3F51F1A22FA295AF70B0E090968C91E4
:1022500090E02F7002C0959587952A95E2F780FD52
:102260001BC0832FC82A330F4E175F0741F7F701B2
:1022700080818F3F11F00E94BD1061E0C11001C04C
:1022800060E08D2D0E945B10C00FD11FC882CDB7BA
:10229000DEB7E8E00C94012580E0E4CF80910201F4
:1022A0008091020196E0811190E09093010386E015
:1022B000891B8093E8020E94D4108CE0E5EFF2E0E5
:1022C000DF01982F1D929A95E9F7E9EEF2E0DF0120
:1022D0001D928A95E9F786E00E94AF110E9447108F
:1022E0000895ACE0B0E0E7E7F1E10C94E8248E015A
:1022F0000F5F1F4F8CE0F80111928A95E9F7F12CDE
:102300006F2DC8010E94EF10F394F6E0FF12F8CF92
:102310004CE050E0B80189EE92E00E94262521E0D1
:10232000009709F420E0892B41F08CE0F801A9EE38
:10233000B2E001900D928A95E1F76091010370E09F
:102340006B507D4F46E089EE92E00E94B011182F4D
:102350000E946210812B2C96E5E00C9404250895D0
:10236000CF92DF92EF92FF920F931F93CF936C0166
:102370007B01042F222349F081E0809378020E94A0
:102380009F1D9093770280937602C0917802C111CD
:102390000AC0C0E08C2FCF911F910F91FF90EF905A
:1023A000DF90CF90089580917602909177020E94FD
:1023B000B71D059770F310E0A801B601C7010E9490
:1023C0002625892B41F0A801B601C7010E943325BB
:1023D00010927802DFCFC0E0FBCF0E94AB1D60936C
:1023E0007D0270937E0280937F0290938002089515
:1023F00080937C020895809181028A3010F01092BF
:102400007C0280917C020895CF93DF9380917B02C0
:10241000811117C0C8ECD0E00E94BB2481110EC00E
:102420008FE39CE90197F1F700C000002197A1F725
:1024300082E080937B020E94B62403C081E08093F7
:102440007B0281E090917B02913009F080E0DF9186
:10245000CF91089580917C02811115C00E940412D1
:10246000811111C060917D0270917E0280917F0286
:10247000909180020E94C61D6533784081059105C8
:1024800010F00E94171E08950E94041208950E94E1
:102490004412809302010E94041281110E9497123B
:1024A00008950E940412811104C00E949A120E9491
:1024B000ED11089581E0909181029A3008F080E05A
:1024C00008950F931F93CF93DF93EC018B018091BD
:1024D00081028A30B8F4B801CE010E94E512C82FFB
:1024E000811122C0809181028F3FB9F40E949F1D0B
:1024F00090937A02809379028C2FDF91CF911F9174
:102500000F9108958091790290917A020E94B71DEF
:10251000843F914000F7C0E0EFCF8F5F809381024E
:102520008A3020F7C1E0E8CF10928102E5CF0E9407
:102530003C1A08950E943F1A0895B0E0A0E0E3EA33
:10254000F2E10C94E6247901C82F880FDD0B4115C8
:102550005105A9F0FE0193E0EE0FFF1F9A95E1F7F8
:10256000ED5FFE4F818192818E579D4F208130E03B
:102570004217530708F49A01A9010E943325CE019E
:102580000E94281BD82E8823D1F001151105B9F01F
:1025900083E0CC0FDD1F8A95E1F7FE01ED5FFE4F72
:1025A000438150E00417150708F4A801CD5FDE4F02
:1025B0006C817D816E577D4FC7010E9433258D2D23
:1025C000CDB7DEB7E7E00C9402250E94F71308951B
:1025D0000E9418140895A1E0B0E0E1EFF2E10C943C
:1025E000E92481E089830E94FB1181110FC010E072
:1025F00000E030E020E041E050E0BE016F5F7F4F3F
:1026000083E00E949D1289830E94F811898121969E
:10261000E4E00C940525A4E0B0E0E1E1F3E10C94E2
:10262000E92460919C0270919D0280919E0290919C
:102630009F020E94C61D11E0643671058105910557
:1026400018F10E940B106E5F7F4F8F4F9F4F698371
:102650007A838B839C8310E000E030E020E044E04C
:1026600050E0BE016F5F7F4F82E00E949D12182FE5
:10267000882351F00E94AB1D60939C0270939D02D1
:1026800080939E0290939F02812F2496E4E00C9405
:102690000525B0E0A0E0EFE4F3E10C94E3247C0135
:1026A0005B016A010E945A1201E010E0882311F0D8
:1026B0000AE010E0C1E0D0E0B501C701F6010995DC
:1026C000811104C021960C171D072CF4CDB7DEB77D
:1026D000EAE00C94FF24CC9F9001CD9F300D300D8B
:1026E000112490E080E045E34A95F1F7000001965F
:1026F00082179307C1F7E0CFA7E0B0E0E2E8F3E18B
:102700000C94E3247B01C090B001D090B10101E0B2
:1027100010E09E01295F3F4F50E040E070E060E034
:1027200080E00E949D12182F882309F448C05601AA
:102730008FEFA81AB80A609198027091990280915F
:102740009A0290919B020E94C61D64367105810514
:10275000910568F106E010E09E012F5F3F4F50E0C9
:1027600040E070E060E081E00E949D12D82E66E0BB
:1027700070E0C5010E94F11611E09F81981310E0EE
:102780001D2141F10E94AB1D609398027093990244
:1027900080939A0290939B0286E0FE013196A2E913
:1027A000B2E001900D928A95E1F711E013C066E066
:1027B00070E0C5010E94F1169F818913CBCF86E09E
:1027C000F6013196DE01119601900D928A95E1F79E
:1027D0001111E2CF86E0E2E9F2E0D70101900D921B
:1027E0008A95E1F7812F2796EAE00C94FF240F9356
:1027F0001F93CF93DF93EC018B014CE753E10E94D1
:102800004913811106C080E0DF91CF911F910F9194
:1028100008954BE053E1B801CE010E94491388238B
:1028200091F34BEE52E1B801CE010E944913ECCF77
:102830000F931F93CF93DF93C091B001D091B1015B
:10284000CE01019626E0FB01DC0101900D922A9554
:10285000E1F766E070E00E94F11688836F81788569
:1028600089859A8500918E0210918F0220919002A5
:1028700030919102601771078207930751F06093BE
:102880008E0270938F0280939002909391020E9427
:10289000EE0F8B850E94F811DF91CF911F910F9160
:1028A00008950E948C1F0E94530D0E94991F089545
:1028B0000E949E1F0E94640D0E94B81F08950E94EE
:1028C000381D0E94721F0E943B0D0E9451140E94ED
:1028D00058140E94490DFBCF8091A80280FF0DC0C3
:1028E0006091270170E0660F771F6038710570F501
:1028F0006115710569F1862F089581FF07C0609108
:10290000270184E0689FB0011124EFCF6091270177
:1029100082FD0AC08091A7028823A9F02091260198
:1029200060912701821710F088E0ECCF869FC001EC
:10293000112433E0880F991F3A95E1F7622F70E078
:102940000E94C124D2CF68E070E0D5CF8FE7089510
:1029500081E008958091A80280FF0CC0609124015D
:1029600070E075956795759567956115710549F1E5
:10297000862F089581FF06C06091240170E075954F
:102980006795F3CF6091240182FD0BC09091A60260
:102990009923A1F06091230180912401961738F0CA
:1029A000682F70E06038710500F38FE70895899F04
:1029B000C001112470E00E94C124F4CF61E070E0F6
:1029C000D7CF81E008958D3C31F40E946C1481953D
:1029D0008093AC0208958E3C19F40E946C14F8CFD9
:1029E0008F3C31F40E946C1481958093AB02089562
:1029F000803D19F40E946C14F8CF893D29F40E949F
:102A0000AA148093AD0208958A3D21F40E94AA146D
:102A10008195F7CF8B3D31F40E94AA148195809364
:102A2000AE0208958C3D19F40E94AA14F8CF9FE2DB
:102A3000980F983070F4815D990B21E030E001C06F
:102A4000220F8A95EAF78091AA02822B8093AA022C
:102A500008958D3D31F48091A80281608093A80291
:102A600008958E3D21F48091A8028260F7CF8F3DBA
:102A7000B9F78091A8028460F1CF4091AB028D3C00
:102A800059F48091AC0287FF0DC01092AC02411145
:102A90000BC01092A70208C08E3C81F48091AC025A
:102AA00018169CF3442381F08091AD029091AE0200
:102AB000892B09F05AC01092A60208958F3C49F460
:102AC00047FFF0CF1092AB028091AC028111ECCFA6
:102AD000E0CF803D19F41416ACF3E4CF9091AD0231
:102AE000893D29F41916F4F61092AD02DBCF8A3D28
:102AF00019F497FFD7CFF8CF9091AE028B3D29F410
:102B000097FFD0CF1092AE02CDCF8C3D19F419169D
:102B1000CCF3C8CF9FE2980F983090F4815D990B69
:102B200021E030E0B90102C0660F771F8A95E2F715
:102B3000CB0180959091AA0289238093AA02B2CFFB
:102B40008D3D31F48091A8028E7F8093A802AACF98
:102B50008E3D21F48091A8028D7FF7CF8F3D09F043
:102B6000A1CF8091A8028B7FF0CF08950E949F1D76
:102B70009C019091AB028091AC02982B21F0309394
:102B8000A5022093A4029091AD028091AE02982BF1
:102B900021F03093A3022093A20289EA92E00E94DE
:102BA000D61B089586E0E9EAF2E0DF011D928A95DE
:102BB000E9F71092A7021092A6021092A8020895B7
:102BC000FC01828181110EC0838181110BC084813F
:102BD000811108C091E08581811101C090E0892FA9
:102BE0008170089581E0FCCFA6E0B0E0EAEFF5E166
:102BF0000C94EA2486E0E9EAF2E0DE011196019005
:102C00000D928A95E1F71092AB021092AC021092ED
:102C1000AD021092AE028B819C81892B89F080914C
:102C2000A4029091A5020E94B71DAC019091A70249
:102C30009923C9F1809128018417150608F440C032
:102C40008D819E81892B91F08091A2029091A302A7
:102C50000E94B71DAC019091A602992309F471C09E
:102C6000809125018417150608F479C0BE016F5FB5
:102C70007F4F89EA92E00E94F01C811105C089EA29
:102C800092E00E94E01581110E94B61586E0FE01D7
:102C90003196A9EAB2E001900D928A95E1F7269665
:102CA000E3E00C9406252091A1028AE0289F900180
:102CB00011242417350720F69F5F9093A70202C0C6
:102CC0009F3FD1F71B81112359F00E946C149FEF95
:102CD00011160CF491E0899F802D11248093AB0292
:102CE0001C81112359F00E946C149FEF11160CF4F3
:102CF00091E0899F802D11248093AC023091AB022A
:102D0000332309F49DCF2091AC02222309F498CFFC
:102D100045EB3403C0011124992359F09093AB0281
:102D200045EB240390011124332339F03093AC0296
:102D300087CF81E08093AB02F3CF81E08093AC0238
:102D40007FCF2091A0028AE0289F900111242417B0
:102D5000350708F08BCF9F5F9093A60202C09F3F7C
:102D6000D1F71D81112359F00E94AA149FEF11166B
:102D70000CF491E0899F802D11248093AD021E8177
:102D8000112359F00E94AA149FEF11160CF491E040
:102D9000899F802D11248093AE023091AD023323A0
:102DA00009F464CF2091AE02222309F45FCF45EBF2
:102DB0003403C0011124992359F09093AD0245EBDF
:102DC000240390011124332339F03093AE024ECF07
:102DD00081E08093AD02F3CF81E08093AE0246CFD5
:102DE0000895FC01680F791F8FEF91E36E177F073D
:102DF00009F408952191822728E030E087FF06C07A
:102E0000880F892721503109C9F7F0CF880FFACFF1
:102E1000CF93DF93EC01FB018281882309F4D2C0B8
:102E20009E0130572332310508F0B2C00E94720C67
:102E30009093E7028093E602FE01E150F047E23210
:102E4000F10520F4E457FA4D0C94D5248091E60264
:102E500081608093E60293C08091E702886080934E
:102E6000E7028DC08091E6028260F3CF8091E60296
:102E70008460EFCF8091E6028860EBCF8091E7021B
:102E80008160EDCF8091E7028260E9CF8091E60218
:102E90008061DFCF8091E6028062DBCF8091E60225
:102EA0008064D7CF0E94AF068091E6028068D1CFC0
:102EB0008091E6028C60CDCF8091E7028360CFCF16
:102EC0008091E6028E7FC5CF8091E702877FC7CFD2
:102ED0008091E6028D7FBDCF8091E6028B7FB9CFD6
:102EE0008091E602877FB5CF8091E7028E7FB7CFD2
:102EF0008091E7028D7FB3CF8091E6028F7EA9CFCC
:102F00008091E6028F7DA5CF8091E6028F7BA1CFD5
:102F10000E94AF068091E6028F779BCF8091E602F8
:102F2000837F97CF8091E7028C7F99CF8091E602D3
:102F300082FB992790F921E0922790FB82F990FB80
:102F400083F987CF8091E702982F909591708E7FBB
:102F5000892B90FB81F983CF9091E602892F8F7B9B
:102F600096FF806476CF0E94AF069091E602892F8B
:102F700097FB87F980586DCF81E00E94EF0C80911C
:102F8000E6029091E7020E94770C0E94AF0680E073
:102F9000DF91CF91089580E0F0CF9091E602892FE4
:102FA0008F7E94FF806155CF9091E602892F8E7FAE
:102FB00090FF81604ECF9091E702892F877F93FF2A
:102FC00088604DCF81E0E4CFEBEFE80FEF3308F0FE
:102FD00066C0F0E0E255FA4D0C94D5240E94EC0C4A
:102FE00081E0089580917402807F8093740281E073
:102FF0008093B20208950E944502F2CF909174022C
:10300000892F8E7F90FF81608093740280FDE8CFCE
:10301000817F80937402E4CF90917402892F8D7F19
:1030200091FF82608093740281FFDACF80917402F5
:103030008160EFCF90917402892F8B7F92FF846023
:103040008093740282FDF2CFCBCF90917402892FCE
:10305000877F93FF88608093740283FDE7CFC0CFA2
:103060000E94AF069091E602892F97FB87F980585E
:103070008093E602B5CF81E090E00E9402070E94B3
:10308000AF06AECF895321E030E0A90102C0440F62
:10309000551F8A95E2F7CA01F0CF8D51F4CF80E039
:1030A000089580E008950E9451180895CF93C82F85
:1030B0008091B2028130B9F0882331F08230A1F1E1
:1030C0001092B20280E00DC00E946F0B8232D1F7E5
:1030D0008C2F0E94511881111BC08C2F0E94E41765
:1030E0008170CF9108950E946F0B823289F38C2FEB
:1030F0000E94531881110AC0C43199F060F4CB309A
:1031000029F0C03169F782E08093B20281E0E8CF14
:1031100081E090E0E5CFC93221F0C833B9F380E017
:10312000DFCF1092B202FBCFC93209F43FC0E8F4FE
:10313000C431E1F128F4C73009F45BC081E0D1CF9C
:1031400082EE8C0F8A30D0F7CD51C093B102C330DC
:1031500009F446C0B0F5C13009F43FC088E291E0FF
:10316000C230B1F11092B102E9CFC03509F452C0BA
:10317000B8F48AE0CF3411F7E091AF02F091B002D9
:103180003097E1F22081082E000C990B820F911DDF
:103190008F3F910509F00CF441C08FEF8083CECFB3
:1031A000C135D1F181E0C23539F39BCF8091B102B5
:1031B000882321F21092B1021092B0021092AF0255
:1031C000BDCFC53099F078F083E291E0C63051F67A
:1031D0009093B0028093AF02B1CF81EA92E0F8CF32
:1031E00087E291E0F5CF86E291E0F2CF84E291E0D0
:1031F000EFCF1092A10284E180932801C0932701B0
:103200008CE38093260188E08093240188E28093F8
:10321000230194CF86EFB0CF8FEFAECF97FFBECF15
:1032200010828CCFCF93DF93EB0186319C4711F551
:103230000E946F0B9A81992399F08A7A91E009F4A0
:1032400090E09093B302811109C089E20E94470B7C
:103250000E94B00B80E0DF91CF91089585E3F6CF17
:103260008091B302811104C089E20E944F0BF0CF1C
:1032700085E3FBCF81E0EFCF0F931F93CF93DF93D5
:10328000C42FD22FFC0182818823C9F04093B6025B
:103290000E949F1D9093B5028093B40280E28C0F30
:1032A000883040F4C77081E001C0880FCA95EAF702
:1032B0000E944504DF91CF911F910F9108951091C5
:1032C000B602141332C08091B4029091B5020E94EC
:1032D000B71D883C910548F5C0E2CD0F1D17B9F028
:1032E00080E2810F883040F4177081E001C0880FC0
:1032F0001A95EAF70E944C04C83048F481E09D2FEB
:10330000977001C0880F9A95EAF70E944504802FB4
:103310000E943C04C83070F6D77081E001C0880F6D
:10332000DA95EAF70E944C04C5CF80E28C0F883012
:1033300008F6C77081E001C0880FCA95EAF7F2CF9E
:103340000F93DB0188519C4787309105A0F5FC0164
:10335000E351FA4D0C94D52406E221EE41EE6AE1E8
:103360007CE7CD010E943C1980E00F91089507E2AF
:1033700025EE45EE6BE17CE7F4CF06E221EE40EE70
:1033800068E17CE7EECF07E225EE44EE69E17CE7F9
:10339000E8CF06E221EE42EE6CE17CE7E2CF07E205
:1033A00025EE46EE6DE17CE7DCCF08E221E045EE5C
:1033B0006EE17CE7D6CF12968C91882319F010929B
:1033C000B602D3CF81E0D1CF8EE1489B02C08150BD
:1033D000E1F7489BFECF0895589880E28A95F1F76F
:1033E000589A0895FC013BE03A95F1F798E020E007
:1033F00080E031E040E14A95F1F7880F489B02C038
:103400008160232742E04A95F1F7000040E14A95A8
:10341000F1F7915079F790E19A95F1F799B132E08F
:103420003A95F1F7000040E14A95F1F79170922743
:103430002081920F90830895A1E0B0E0E2E2FAE1EA
:103440000C94E72419828C017C01E60EF11C0E1508
:103450001F0541F481E09981911180E02196E6E019
:103460000C9403250E94E419CE0101960E94F219E2
:10347000F80181938F01EBCF509A589A0895509894
:10348000589AE89AE9E6F0E080818C7F808308957D
:103490006150770B91E001C0990F6A95EAF720E03F
:1034A00031E0911108C0222391F0589A80E28A9568
:1034B000F1F758980895492F482339F0589A23274F
:1034C00040E24A95F1F79695ECCF5898F9CF589885
:1034D000EDCFFF920F931F93CF93DF93EC018C01FD
:1034E000060F111DC017D10729F4CDB7DEB7E5E0EF
:1034F0000C940425F9900E94EC1968E08F2D0E942D
:10350000481AF0CF1F920F920FB60F9211240F930B
:103510001F932F933F934F935F936F937F938F935B
:103520009F93AF93BF93EF93FF93CF93DF930F924C
:10353000CDB7DEB719820E94E419CE0101960E9430
:10354000F219082F069506950695282F22952570C5
:10355000902F9570290F922F937026952695920F94
:10356000982797708981982B09F05CC0053008F086
:1035700059C080E18A95F1F7589A509A82E08A956D
:10358000F1F700C0589888E0089F80011124D80105
:10359000AD5FBE4F1696ED91FC9117973097A9F04D
:1035A0006091B0017091B10114962D913C911597E5
:1035B000260F371F11968D919C911297680F791FD6
:1035C00013964C9113978C910995F801ED5FFE4F7E
:1035D0006381662351F02091B0013091B101848163
:1035E0009581820F931F0E94691A0E94EC1980E155
:1035F0008A95F1F758985098589A80E18A95F1F792
:10360000F801ED5FFE4F6081662351F02091B0011B
:103610003091B10181819281820F931F0E941C1A07
:103620000E94E4190F90DF91CF91FF91EF91BF912C
:10363000AF919F918F917F916F915F914F913F914A
:103640002F911F910F910F900FBE0F901F90189503
:103650000F931F93CF93DF93EC0105970CF04CC0B1
:10366000F894509A589885E08A95F1F700009C2FBD
:10367000969595708C2F8570980F892F83709695ED
:10368000969523E0CC0FDD1F2A95E1F7980F8E0168
:10369000092B0E94EC1900C068E0802F0E94481A94
:1036A00080E18A95F1F75098589A489B1EC087E0B0
:1036B00090E048991CC0FE01ED5FFE4F63816623D8
:1036C000F9F02091B0013091B10184819581820F90
:1036D000931F0E941C1A811113C0509A589A789413
:1036E000DF91CF911F910F91089500C0DECF019718
:1036F00029F4509A589A789480E0F2CF00C0D9CF3C
:103700000E94E41980E28A95F1F75898509A80E176
:103710008A95F1F7CD5FDE4F6881662351F02091E5
:10372000B0013091B10189819A81820F931F0E946B
:10373000691A0E94EC19789481E0D2CF9093B3017A
:103740008093B20108959093BD028093BC020895C6
:103750000E940412811103C08091B7020895E09184
:10376000BC02F091BD02309729F00190F081E02D6C
:103770000995089580E00895E091BC02F091BD02A2
:10378000309799F020913101222359F02091E602DF
:1037900027FF07C0DC012C9111962C93119726E08E
:1037A0002C930280F381E02D09950895E091BC02ED
:1037B000F091BD02309739F022E0DC012C930480B7
:1037C000F581E02D09950895A3E0B0E0EAEEFBE174
:1037D0000C94EB242091BA023091BB0228173907D0
:1037E000A1F09093BB028093BA02E091BC02F091E9
:1037F000BD02309751F023E029839B838A830680A2
:10380000F781E02DCE01019609952396E2E00C9414
:103810000725A3E0B0E0EFE0FCE10C94EB2420915D
:10382000B8023091B90228173907A1F09093B90274
:103830008093B802E091BC02F091BD02309751F044
:1038400024E029839B838A830680F781E02DCE01C3
:10385000019609952396E2E00C940725FC01329627
:1038600080913101882321F08091E6029EE187FF5B
:1038700096E080E0915008F4089521912223D1F33D
:103880008F5FF8CF662301F1209131012223F1F0FF
:103890002091E60227FF1AC0462F46954695469589
:1038A0004E3190F4677021E030E002C0220F331FE8
:1038B0006A95E2F7840F911DFC01828190E0282334
:1038C000392381E0232B69F480E00895FC013296CE
:1038D00008962191261721F0E817F907D1F7F4CFC0
:1038E00081E008959C01FC0132969FEF80E04191B8
:1038F000461751F09F3F19F4411101C0982F8F5F77
:103900008630A9F79F3F09F40895290F311D97FDCF
:103910003A95F90162830895FC0132960896219147
:10392000261303C0DF0111971C92E817F907B9F7B6
:103930000895E62FE695E695E695EE3168F4E80FF2
:10394000F92FF11D677021E030E001C0220F6A9568
:10395000EAF78281822B82830895E62FE695E69529
:10396000E695EE3170F4E80FF92FF11D677021E054
:1039700030E001C0220F6A95EAF720958281282362
:103980002283089520913101222339F02091E6020B
:1039900027FF03C00E94991C08950E94721C08957D
:1039A00020913101222339F02091E60227FF03C044
:1039B0000E94AD1C08950E948C1C0895FC01329653
:1039C00080913101882351F08091E60287FF06C083
:1039D0008EE1DF011D928A95E9F7089586E0F9CF1F
:1039E00046E050E00E94262521E0892B09F420E0E2
:1039F000822F089508950E94FA1C0895811106C02F
:103A000081E08093BE020E94FB1C089582E0F9CF02
:103A100083E08093BE020E94FB1C08950E94FE1C5E
:103A2000089581E08093BE020E94FB1C08950E94CD
:103A3000111D0895089508950E941B1D089508956D
:103A400008950E941A1D0895CF930E941F1D0E9481
:103A500071110E94201DC0E08C2F0E944E10811118
:103A600005C0CF5FCC30C1F7CF91089581E0FCCF86
:103A700085B7806885BF85B7806885BF08951F9228
:103A80001FB61F9211248F939F93AF93BF93809182
:103A9000BF02811113C08091020390910303A09192
:103AA0000403B09105034196A11DB11D809302034B
:103AB00090930303A0930403B0930503BF91AF91C8
:103AC0009F918F911F901FBE1F90189580910A03A0
:103AD000843031F10E94A5021092BF0288E190E08B
:103AE00020E40FB6F894A895809360000FBE209351
:103AF000600083B7817F846083BF83B7816083BFA9
:103B00007894889583B78E7F83BF0FB6F894A89575
:103B100080916000886180936000109260000FBE09
:103B200008950E94AF060E94AA02089582E084BD13
:103B300093E095BD9AEF97BD80936E0008952FB7DF
:103B4000F8948091020390910303A0910403B09133
:103B500005032FBF08952FB7F89460910203709169
:103B6000030380910403909105032FBF08959C01E6
:103B70004FB7F8948091020390910303A09104033E
:103B8000B09105034FBF821B930B0895CF92DF9234
:103B9000EF92FF922FB7F894C0900203D0900303E6
:103BA000E0900403F09005032FBFA7019601261BA8
:103BB000370B480B590BCA01B901FF90EF90DF900A
:103BC000CF90089578941F921FB61F9211248F935F
:103BD0009F93AF93BF938091020390910303A091B1
:103BE0000403B09105030196A11DB11D809302034A
:103BF00090930303A0930403B0930503BF91AF9187
:103C00009F918F911F901FBE1F90189587E797E790
:103C1000909301088093000888E19AE00FB6F89429
:103C2000A895809360000FBE90936000FFCF88E15D
:103C30009AE00FB6F894A895809360000FBE909319
:103C40006000FFCF8091E00208959B01BA0190913E
:103C50000A039430E9F48F708093E9009FEF80911C
:103C6000E800915085FD06C085ED8A95F1F70000CA
:103C70009111F5CF8091E80085FF0AC050E040E047
:103C8000C9010E942F208091E8008E778093E80080
:103C9000089543E050E0BC0182E00E94251E089593
:103CA00046E050E0BC0182E00E94251E0895CF93BB
:103CB000DF93EC0180913101811111C048E050E0A7
:103CC000BE0181E00E94251E80E2FE01A0ECB2E070
:103CD00001900D928A95E1F7DF91CF91089580913F
:103CE000E60287FF05C040E282E050E0BE01EACF75
:103CF00048E081E0FACF80910903811109C00E9458
:103D0000BF210E941C228091E20084608093E20027
:103D100008951092090308950E94111D089560915D
:103D2000060381E0611101C080E00E94081D089532
:103D300090910A0381E0943009F080E060910603DD
:103D40000E940E1D089542E061EC81E00E943B213B
:103D500042E261EC82E00E943B2190910A0381E003
:103D6000943009F080E0609106030E94FE1C0895E3
:103D700080910C03833009F461C030F48130D1F1BB
:103D8000823009F49EC008958A3009F48AC08B30CD
:103D900009F46FC0893009F050C080910B03813263
:103DA00009F04BC080910F0390911003029708F027
:103DB00044C08091E800877F8093E8008091E8000C
:103DC00082FF37C09091F3008091F200029731F4A6
:103DD0008091F100813011F0863021F48091F10062
:103DE0008093E0028091E8008B778093E8000E9446
:103DF0006F2123C080910B03813AF9F48091E80090
:103E0000877F8093E80080910F0390911003892BA6
:103E100061F460E280EC92E070E00E947E2080918C
:103E2000E8008B778093E800089560E090E080E000
:103E3000F3CF80910A038111C1CF089580910B03C4
:103E4000813AD9F780910F0390911003892BA9F73C
:103E50008091E800877F8093E8008091E80080FFF0
:103E6000FCCF809131018093F1008091E8008E7742
:103E7000BCCF80910B03813201F780910F039091A9
:103E80001003892BD1F68091E800877F8093E800AA
:103E90000E946F2180910D03809331010E94AF0633
:103EA000089580910B03813241F68091E800877F6D
:103EB0008093E8000E946F2180910E038093E102BD
:103EC000089580910B03813A09F0B7CF8091E80003
:103ED000877F8093E8008091E80080FFFCCF80918D
:103EE000E102C1CF84B7877F84BF0FB6F894A8954D
:103EF00080916000886180936000109260000FBE26
:103F000080E890E00FB6F894809361009093610090
:103F10000FBE0E94171D08950E94BF210E941C22FF
:103F2000E2EEF0E080818460808378940E949B249C
:103F3000089589E291E00E94A31B089580910A03ED
:103F4000853031F480910A03853019F00E94911D6B
:103F500008950E94661D80910803882399F30E94AA
:103F6000241D882379F30E9419200E94AF06EACF0E
:103F700008959A0140911103509112030E94C11FAC
:103F80000895492F55274330510519F168F4413000
:103F9000510509F444C04230510509F445C090E090
:103FA00080E050E040E025C04132510549F1423205
:103FB0005105A9F780E490E041E153E061157105F6
:103FC000C1F086EB90E04BE552E06130710589F07D
:103FD000E6CF99278130910581F0009729F002976B
:103FE000F1F6ECECF1E002C0EAE0F2E0849190E05E
:103FF000AF01F901518340830895EAEFF1E0F6CF74
:1040000089E090E040E252E06115710591F389E0AA
:1040100090E049E352E06130710559F3C0CF82E18D
:1040200090E049E452E0E5CF8BE390E04EE052E0CF
:10403000E0CF80E189BD82E189BD09B400FEFDCFFA
:104040008091D8008F7D8093D8008091E0008260BD
:104050008093E0008091E00081FDFCCF0895AF9255
:10406000BF92CF92DF92FF920F931F93CF93DF9374
:104070006C01EB018A010E948E21F82E811123C070
:104080000115110539F0F80180819181C81BD90B08
:10409000C80ED91EB12CA12C2097A9F08091E80060
:1040A00085FD22C08091E8008E778093E80001159D
:1040B0001105A1F0F80180819181A80EB91EB1828D
:1040C000A08285E0F82E8F2DDF91CF911F910F9167
:1040D000FF90DF90CF90BF90AF9008950E948E2107
:1040E0008823D1F2F82EEFCFF60181916F018093F2
:1040F000F1002197FFEFAF1ABF0ACECFFC018091EC
:1041000011039091120386179707A0F061157105AE
:1041100029F49091E8009E779093E80090E0611573
:10412000710551F4911108C08091E80082FF34C0FC
:1041300080E00895BC01F2CF80910A038823C1F189
:104140008530C1F18091E80083FD30C08091E800A6
:1041500082FDEACF8091E80080FFE1CF8091F300FB
:104160002091F200382F6115710519F028303105C2
:1041700058F091E02830310509F090E02091E800F6
:104180002E772093E800CBCF81918093F10061508E
:1041900071092F5F3F4FE7CF80910A03882341F0D9
:1041A000853041F08091E80083FFBECF81E0089523
:1041B00082E0089583E00895FC01809111039091BD
:1041C000120386179707A0F06115710529F48091F5
:1041D000E8008E778093E80090E06115710551F456
:1041E000911108C08091E80082FF35C080E00895F9
:1041F000BC01F2CF80910A038823C9F18530C9F14F
:104200008091E80083FD31C08091E80082FDEACF13
:104210008091E80080FFE1CF8091F3002091F200CF
:10422000382F6115710519F02830310558F091E0EB
:104230002830310509F090E08091E8008E77809376
:10424000E800CBCF84918093F100319661507109E1
:104250002F5F3F4FE6CF80910A03882341F08530DE
:1042600041F08091E80083FFBDCF81E0089582E0B6
:10427000089583E00895982F973028F08F708093E9
:10428000E90081E008959093E900242F762F50E013
:10429000981731F07091EC002091ED005091F000F2
:1042A00021FD02C09F5FE8CF3091EB003E7F30934D
:1042B000EB003091ED003D7F3093ED003091EB004D
:1042C00031603093EB007093EC002093ED0050933D
:1042D000F0002091EE0027FDE5CF80E00895809169
:1042E0000B0387FF13C08091E80082FF06C0809116
:1042F000E8008B778093E80004C080910A03811165
:10430000F2CF089580910A038823D9F38091E800C1
:1043100080FFF8CF8091E8008E77ECCF2091E40009
:104320003091E50095E6A9012091EC00822F817083
:1043300020FF06C08091E80080FF06C080E008955D
:104340002091E80022FD1AC080910A03882389F099
:10435000853089F08091EB0085FD0FC02091E4004D
:104360003091E50042175307F9F29150E1F684E0ED
:10437000089582E0089583E0089581E008950E9401
:104380002E220E943622E0EEF0E080818160808360
:10439000E8EDF0E080818F77808319BCA7EDB0E075
:1043A0008C918E7F8C9380818F7E80831092090305
:1043B00008950F931F93CF93DF930E942E220E94A4
:1043C0003622C8EDD0E088818F7788838881806825
:1043D000888388818F7D888319BC10920A0310928C
:1043E0000603109208031092070300EE10E0F80194
:1043F00080818B7F808388818160888342E060E058
:1044000080E00E943B21E1EEF0E080818E7F80839E
:10441000E2EEF0E08081816080838081886080832B
:10442000F80180818E7F8083888180618883DF911D
:10443000CF911F910F910895E8EDF0E080818F7E7C
:104440008083E7EDF0E080818160808384E082BF3B
:1044500081E0809309030E94D9210895E8EDF0E0FE
:1044600080818E7F80831092E20008951092DA009E
:104470001092E10008951F920F920FB60F9211242F
:104480002F933F934F935F936F937F938F939F935C
:10449000AF93BF93EF93FF938091E10082FF0BC036
:1044A0008091E20082FF07C08091E1008B7F8093C2
:1044B000E1000E949A248091DA0080FF19C0809167
:1044C000D80080FF15C08091DA008E7F8093DA00DB
:1044D0008091D90080FF96C080E189BD82E189BDCD
:1044E00009B400FEFDCF81E080930A030E947B1E89
:1044F0008091E10080FF19C08091E20080FF15C02B
:104500008091E2008E7F8093E2008091E2008061E2
:104510008093E2008091D80080628093D80019BC1B
:1045200085E080930A030E948F1E8091E10084FF42
:104530002BC08091E20084FF27C080E189BD82E129
:1045400089BD89B5982F917080FFFBCF8091D800ED
:104550008F7D8093D8008091E1008F7E8093E10071
:104560008091E2008F7E8093E2008091E200816082
:104570008093E20080910603882309F449C084E017
:1045800080930A030E94981E8091E10083FF29C056
:104590008091E20083FF25C08091E100877F8093B6
:1045A000E10082E080930A03109206038091E1000B
:1045B0008E7F8093E1008091E2008E7F8093E20005
:1045C0008091E20080618093E20042E060E080E060
:1045D0000E943B218091F00088608093F0000E944F
:1045E0008C1EFF91EF91BF91AF919F918F917F9121
:1045F0006F915F914F913F912F910F900FBE0F9050
:104600001F90189519BC10920A030E94891E70CF42
:104610008091E30087FD93E090930A03B3CF1F924C
:104620000F920FB60F9211242F933F934F935F93E6
:104630006F937F938F939F93AF93BF93CF93DF93AA
:10464000EF93FF93D091E900DF708091EC00C82FC9
:10465000C17080FDC0E81092E9008091F000877F72
:104660008093F00078940E9453231092E900809187
:10467000F00088608093F000CD2BCF70C093E900EC
:10468000FF91EF91DF91CF91BF91AF919F918F916A
:104690007F916F915F914F913F912F910F900FBE3E
:1046A0000F901F901895AAE2B0E0E9E5F3E20C94B0
:1046B000EA248BE093E02091F100FC012193CF01EB
:1046C000F3E083319F07B9F70E94B81E8091E8009C
:1046D00083FF1EC180910B0390910C039A3008F068
:1046E00017C1E92FF0E0EC50FA4D0C94D524803836
:1046F00099F0823809F00CC180910F038F708730D8
:1047000008F006C18093E9008091EB0085FB8827C3
:1047100080F91092E90006C0809107039091080388
:10472000911182609091E800977F9093E8008093C8
:10473000F1001092F1008091E8008E77E5C08823A7
:1047400009F4D3C0823009F0E3C080910D038111D8
:10475000D6C080910F038F702FEF280F263008F0FE
:10476000D7C08093E9002091EB0020FFC8C09330B0
:1047700031F48091EB0080628093EB00C0C0909197
:10478000EB0090619093EB0021E030E001C0220F3C
:104790008A95EAF72093EA001092EA008091EB00F4
:1047A0008860EACF8111B4C010910D031F7780910A
:1047B000E3008078812B8093E3008091E800877F7D
:1047C0008093E8000E946F218091E80080FFFCCF79
:1047D0008091E30080688093E30082E0111183E020
:1047E00080930A0395C08058823008F091C0809170
:1047F0000D0390910E038C3D23E09207A1F583E019
:104800008A838AE289834FB7F894DE01139620E009
:104810003EE051E2E32FF0E050935700E49120FF97
:1048200003C0E295EF703F5FEF708E2F90E0EA30AB
:10483000C0F0C7968D939D932F5F243159F74FBFDA
:104840008091E800877F8093E8006AE270E0CE0103
:1048500001960E947E208091E8008B778093E8008B
:1048600057C0C096E7CF60910F0370911003AE015F
:104870004F5F5F4F0E94B91FBC01892B09F448C0EC
:104880009091E800977F9093E80089819A810E9437
:10489000DC20E1CF8038E1F58091E800877F8093CC
:1048A000E800809106038093F10045CF811130C06C
:1048B00090910D03923060F58091E800877F80939E
:1048C000E800909306030E946F21809106038823DD
:1048D00011F084E005C08091E30087FDFACF81E00C
:1048E00080930A030E94A31E13C080910D038130A0
:1048F00079F481E0933009F080E08093080310920E
:10490000E9008091E800877F8093E8000E946F2192
:104910008091E80083FF0AC08091E800877F809340
:10492000E8008091EB0080628093EB00AA96E3E0C0
:104930000C9406250895CF9380910A038823A1F053
:10494000C091E900CF709091EC00892F817090FDAB
:1049500080E8C82B1092E9008091E80083FD0E9456
:104960005323CF70C093E900CF9108950E94BF21D7
:1049700010920A0308958091E300881F8827881FFA
:10498000089597FB072E16F4009407D077FD09D001
:104990000E94122507FC05D03EF4909581959F4F0B
:1049A0000895709561957F4F0895EE0FFF1F059054
:1049B000F491E02D09942F923F924F925F926F9263
:1049C0007F928F929F92AF92BF92CF92DF92EF929F
:1049D000FF920F931F93CF93DF93CDB7DEB7CA1B20
:1049E000DB0B0FB6F894DEBF0FBECDBF09942A884B
:1049F000398848885F846E847D848C849B84AA84F3
:104A0000B984C884DF80EE80FD800C811B81AA817F
:104A1000B981CE0FD11D0FB6F894DEBF0FBECDBF4A
:104A2000ED010895AA1BBB1B51E107C0AA1FBB1FC4
:104A3000A617B70710F0A61BB70B881F991F5A952A
:104A4000A9F780959095BC01CD010895FB01DC018B
:104A500004C08D910190801921F441505040C8F755
:104A6000881B990B0895FB01DC0102C001900D9297
:104A700041505040D8F70895F999FECF92BD81BDBD
:104A8000F89A992780B50895A8E1B0E042E050E097
:104A90000C947025262FF999FECF92BD81BDF89A0E
:104AA000019700B4021639F01FBA20BD0FB6F89472
:104AB000FA9AF99A0FBE08950396272F0E944B2564
:104AC0000E944A25252F0E944B25242F0C944B250C
:104AD0000196272F0E944B250C944A25DC01CB011F
:104AE000FC01F999FECF06C0F2BDE1BDF89A3196FE
:104AF00000B40D9241505040B8F70895F894FFCF9C
:104B000092049204E304E30456057205C104C1044F
:104B10007705E805F705F7056017D417681732170A
:104B200036176C173A1770177C174617CD174A17A8
:104B300080174E178417AC1752178817B3175817DA
:104B40008E1796173E177417421778175C1792172F
:104B5000A217BC17CB172C176417DB17FB17F2171C
:104B6000FE17F0174F184F18F0174F184F181A1854
:104B70004F18251830184F184F184F184F18F017A6
:104B80004F184F18F0174F180C184F184F184D1892
:104B90004D184D184D184D184D184D184D184D18ED
:104BA0003B184F18FB17EE174F184F184F184F1898
:104BB0004F184F184F184F184F184F183B184F18D1
:104BC0004F18F0174F18421842184218421842184E
:104BD00042184218421842183B18BD19C319AC19A3
:104BE000B719C919CF19D51977239F2388249F2373
:0C4BF0008824D223F32388244A2456246E
:104BFC003C02010000000100000000000000060162
:104C0C000000000407000000000000010B00000081
:104C1C000000002808503C0714221E571E501E4945
:104C2C001E01E200E900EA00B500B600B700CD00B5
:104C3C008301CC008A0192019401210223022402F7
:104C4C002502260227022A02B300B4006F0070006E
:104C5C009F01CB019F02A002818283E200E900EA5E
:104C6C0000B500B600B700CD008301CC008A0192DC
:104C7C000194012102230224022502260227022A82
:104C8C0002B300B4006F0070009F01CB019F02A023
:104C9C0002818283946697C63435F6F73133323607
:024CAC00820282
:00000001FF
