:100000000C94F1010C94231B0C940E020C940E0220
:100010000C940E020C940E020C940E020C940E0220
:100020000C940E020C940E020C94F5220C94C8232E
:100030000C94E81D0C940E020C940E020C940E020B
:100040000C940E020C940E020C940E020C940E02F0
:100050000C940E020C94A01E0C940E020C940E0232
:100060000C940E020C940E020C940E020C940E02D0
:100070000C940E020C940E020C940E020C940E02C0
:100080000C940E020C940E020C940E020C940E02B0
:100090000C940E020C940E020C940E020C940E02A0
:1000A0000C940E020C940E020C940E02010001003E
:1000B00001000100010001002B0014001A000800DB
:1000C00015001700E00004001600070009000A00F0
:1000D000E1001D001B0006001900050000000000E3
:1000E0000100010021522C0000000000010001006D
:1000F00028000100010001000100010001000100D1
:100100001C0018000C00120013002D000B000D0045
:100110000E000F00330034001100100036003700CD
:10012000380031002A000100010001000000000039
:100130000100E225010001000000000001000100B3
:10014000010001000100010029001E001F00200025
:10015000210022000100E30035004B004E00460064
:10016000010001000100010001002F00000000005B
:100170000100010001000100000000000100010079
:100180000100010001000100010001000100010067
:10019000230024002500260027002E0050005100D7
:1001A00052004F004C00010030000100010001002E
:1001B00001000100225201000100010000000000C6
:1001C0000100E20001000100000000000100010048
:1001D000010001000100010045003A003B003C0025
:1001E0003D003E000100010001000100010001008E
:1001F00001000100010001000100010000000000F9
:1002000001000100010001000000000001000100E8
:1002100001000100010001000100010001000100D6
:100220003F00400041004200430044000100010043
:1002300001000100010001000100010001000100B6
:1002400001000100010001000100010000000000A8
:100250000100010001000100000000002C03440027
:1002600061006300740079006C002D004D00610096
:100270006E00750066006F0072006D00200028009F
:10028000350078003600290000000E03740073006A
:1002900068006F0072007400000004030904090282
:1002A0003B00020100A0FA09040000010301010063
:1002B0000921110100012240000705810308000106
:1002C00009040100010300000009211101000122BD
:1002D000B6000705820320000112010002000000A1
:1002E000084D44363501000102000105010902A153
:1002F0000185020901A10005091901290815002538
:100300000195087501810205010930093115812522
:100310007F95027508810609381581257F9501753D
:10032000088106050C0A38021581257F950175089C
:100330008106C0C005010980A101850319012AB702
:1003400000150126B700950175108100C0050C0944
:1003500001A101850419012AA002150126A0029518
:100360000175108100C005010906A1018506050778
:1003700019E029E715002501950875018102050797
:10038000190029EF1500250195F075018102050876
:1003900019012905950575019102950175039101D2
:1003A000C005010906A101050719E029E715002587
:1003B00001950875018102950175088101050719EC
:1003C0000029FF150026FF00950675088100050825
:1003D0001901290595057501910295017503910192
:1003E000C00011241FBECFEFDAE0DEBFCDBF11E0A9
:1003F000A0E0B1E0ECE9FDE402C005900D92AC3A5A
:10040000B107D9F723E0ACEAB1E001C01D92AD30ED
:10041000B207E1F70E94EC140C943B260C94000008
:100420008330B8F46C30A8F4463098F4E42FF0E050
:1004300096E0699FE00DF11D112498E4899FE00D7D
:10044000F11D1124EE0FFF1FE455FF4F859194918C
:10045000089581E090E008950E941002089581E0DF
:10046000089581E008950E943102089508950E9440
:1004700036020895A5E0B0E0E0E4F2E00C94A72590
:1004800049835A833091B30189819A81311119C00E
:10049000662399F0222389F00E945508182F682FAF
:1004A00089819A810E94310869817A81812F0E9415
:1004B000210F2596E3E00C94C3250E944308182FD2
:1004C000F3CF0E94550869817A81F1CFFC01262F74
:1004D000408151816281738184810E943A02089532
:1004E00081E00895CF93DF93D82FC92F60E00E9459
:1004F00066026D2F7C2F0E943702DF91CF91089505
:1005000008950E94FD060E9480022FEF84E39CE084
:10051000215080409040E1F700C0000008950E9403
:1005200081020E94C41E08950E9481020E94D51E6D
:1005300008950F931F93CF93DF938C0161E00E9486
:100540006602EC01B8010E9433028823B1F1B801C0
:10055000CE010E94401A882381F1B801CE010E9489
:100560009217882351F1B801CE010E94A619882361
:1005700021F1F8018281882381F0CA35FCE7DF0789
:1005800039F178F4C130ECE7DE07F9F0C330FCE76D
:10059000DF07C9F0C115DC4771F0C8010E942F02C6
:1005A0000DC0CB35ECE7DE07B1F0CC35DC47A9F761
:1005B0000E947D0CF2CF0E948F0280E0DF91CF91EC
:1005C0001F910F9108950E948F0C0E949402F5CF05
:1005D0000E94870CE2CF0E948B0CDFCF0E94C51DCA
:1005E0000E94150308950E9419030E94CA1D0895D0
:1005F000089581E008950895CF93DF93D82F0E9446
:10060000F902C82F882319F08D2F0E94FB028C2F2E
:10061000DF91CF9108950895CF93C82F0E94F802DB
:100620008C2F0E94FC02CF91089580E00E940C0361
:1006300008950E94481C0E940C030895CF930E94C5
:10064000481CC82F8091AE018C1779F0C093AE0181
:100650000E94541E6093AF017093B0018093B1016A
:100660009093B2018C2F0E940C03CF910895ABE0C0
:10067000B0E0EDE3F3E00C94A8254F835887698739
:100680007A878B8761110E94C60B1E8285E0FE016E
:100690003796DE01119601900D928A95E1F79981C6
:1006A0008A812C813D81232B61F449815A816B81A0
:1006B0007C818D819E810E94EC0A2B96E2E00C9455
:1006C000C42589238F3F89F3CE0101960E947002D1
:1006D0008111EBCFF2CFFC01808191810E948708CC
:1006E0000895662329F00E947D150E943E16089504
:1006F0000E94C615FACFCF93C82F8823C9F082383D
:10070000C9F40E94481C81FD13C089E30E947B0B41
:100710000E94E70B2FEF37EE83E0215030408040FE
:10072000E1F700C0000089E30E94830B0E94E70B01
:10073000CF9108958338A1F40E94481C80FDF8CF22
:1007400083E50E947B0B0E94E70B9FEF21EE34E0D4
:10075000915020403040E1F700C0000083E5E4CF35
:100760008438A1F40E94481C82FDE2CF87E40E94F5
:100770007B0B0E94E70B8FEF91EE24E081509040BD
:100780002040E1F700C0000087E4CECF8CEF8C0F53
:10079000813AB8F48C2F0E94E0188111C9CF6C2FD8
:1007A00080910001909101010E94E81C882329F0AA
:1007B0008C2F0E94830B0E94E70B8C2F0E947B0BD7
:1007C000B5CF80E28C0F883048F4C77081E001C05B
:1007D000880FCA95EAF70E94A70BA8CF8BE58C0F6C
:1007E000833038F42C2F2452330BC9010E94861C0D
:1007F0009FCFE8E5EC0FEB3150F4F0E0EE0FFF1F78
:10080000EE5CFE4F808191810E94AC1C91CF83E30E
:100810008C0F833108F08CCF61E08C2F0E94710324
:1008200087CF882309F456C0823879F40E94481C87
:1008300081FF50C089E30E947B0B0E94E70B89E394
:100840000E94830B0E94E70B0895833859F40E949D
:10085000481C80FF3FC083E50E947B0B0E94E70B92
:1008600083E5EECF843859F40E94481C82FF32C0E1
:1008700087E40E947B0B0E94E70B87E4E1CF9CEFAB
:10088000980F913AE8F290E2980F983050F4877000
:1008900091E001C0990F8A95EAF7892F0E94AD0B6C
:1008A000D1CF9BE5980F933028F480E090E00E9430
:1008B000861C089598E5980F9B3128F480E090E01D
:1008C0000E94AC1C089593E3980F933118F460E0F4
:1008D0000E94710308951F93CF93DF93182FEB01AC
:1008E0000E947B03209739F4812F0E941104DF912D
:1008F000CF911F9108958FE99FE00197F1F700C014
:1009000000002197EFCF60E070E0893311F460E5DB
:1009100070E00E946B040895882321F00E94A70BC9
:100920000E94E70B0895882321F00E94AD0B0E94DE
:10093000E70B0895A0E0B0E0E0EAF4E00C94A22513
:100940006C01D62FC72FFC011281058102950F7013
:100950000E949C0BE82E8823E9F0E12E1123D1F0B0
:100960008C2F807F803451F080E28D0F8830E8F04A
:10097000011104C08C2F807E8032B9F08091E10299
:1009800082FF13C082E00E944A0C0E949C0B91E0FF
:10099000E82EE926EC2FE295EF70C03C08F062C02B
:1009A000F0E0E35CF94D0C949225E12CF3CF0C2F91
:1009B0000F70C03110F00295007F112399F00023D1
:1009C00059F080E28D0F883010F0D11107C0802FD0
:1009D0000E94A70B0E94E70B8D2F42C0802F0E9420
:1009E000B80BF8CF8D2F0E9411040023D9F180E2BB
:1009F0008D0F883010F0D11104C0802F0E94AD0BF4
:100A000003C0802F0E94BE0B0E94E70B2BC0FC2F5F
:100A1000FF70FF2EC07FC03219F0F29480EFF822F1
:100A2000DD2381F0D13009F45EC0112309F466C0E2
:100A3000002309F45DC0F601858180FFCDCF8F7062
:100A4000858356C08091E10282FD2BC0112311F1F4
:100A5000FF2029F08F2D0E94A70B0E94E70B80E05A
:100A60000E947B03EE2089F00E94980B80FD0DC050
:100A7000F60112820E94920B0E948E07C6010E940C
:100A8000BE060E94920B0E949E07CDB7DEB7E8E03B
:100A90000C94BE2580E00E941104FF2019F38F2DD5
:100AA000ADCF112381F0011106C00E94C90B8F291F
:100AB0000E948C04D7CF0130C1F70E94C90B8F2947
:100AC0000E94D00BCFCF011106C00E94DD0B8F2DED
:100AD0000E949304C7CF013029F28F2D0E94930406
:100AE0000E94DD0BBFCF112329F0063008F0BACFEA
:100AF0008F2DDECF053008F0B5CFE9CF002339F3D5
:100B0000D93349F4FFEF27EE83E0F15020408040D5
:100B1000E1F700C000008D2F0E941104A3CF8C2F9D
:100B2000869586958370882369F0813009F09ACF85
:100B30008D2F9C2F9370111102C080E090E00E94D5
:100B4000AC1C90CF8D2F9C2F9370111102C080E0B0
:100B500090E00E94861C86CF612F8D2F0E9471032A
:100B600081CF8C2F8370811139C0111129C04D2F75
:100B7000429546954770440F440F2D2F2F7030E05B
:100B8000042E02C0220F331F0A94E2F780E090E0A7
:100B9000D4FF09C08FE090E002C0880F991F4A95EA
:100BA000E2F780959095C695C695C370822B932BDE
:100BB000C23071F0C33079F0C13039F00E945E0765
:100BC0000E94481C0E940C034DCF0E945507F8CF8D
:100BD0000E946707F5CF0E945207F2CF112361F1FF
:100BE000C0FFEECF4D2F429546954770440F440FFE
:100BF0002D2F2F7030E0042E02C0220F331F0A94D5
:100C0000E2F780E090E0D4FF09C08FE090E002C0FE
:100C1000880F991F4A95E2F780959095C695C695DD
:100C2000C370822B932BC23069F0C33071F0C13096
:100C300031F00E94C907C4CF823010F2D3CF0E9496
:100C4000C007BECF0E94D207BBCF0E947607B8CFA5
:100C5000CF70112339F08C2F0E948E078D2F0E94A8
:100C60008C04AECF8D2F0E9493048C2F0E949E0780
:100C7000A7CFD23F31F170F4D03FB9F0D13FB1F1FD
:100C8000112309F451C0002309F44BC08D2F0E9499
:100C90007B0396CFD33FE1F0D43F21F11111F3CF85
:100CA000011150C08C2F8F71E1CF112341F005301D
:100CB00008F086CF8C2F8F710E94B00781CF05304E
:100CC000F7CF8C2F8F711111D1CF0E948E0778CF63
:100CD000112329F08C2F8F710E94820771CF0E94FF
:100CE0007D076ECF8091E10282FD06C08C2F8F714F
:100CF000112309F4BBCFE9CF112349F0CF718C2F19
:100D00000E948E0763E08C2F0E942C0C59CF81E04B
:100D10000E944A0C023008F453CF82E00E944A0C31
:100D20004FCF8C2F8F71D1CF002309F4BBCFD93394
:100D300049F49FEFE7EEF3E09150E040F040E1F737
:100D400000C000008D2F0E9411043ACF0F931F9313
:100D5000CF93DF93EC01688179818A810E949408A6
:100D60008C010E94DB070E945107B801CE010E944E
:100D70009A04DF91CF911F910F910895CF93DF9344
:100D8000EC01988189812B813C81232BB1F089234F
:100D90008F3F99F0CE010E949902811111C00E94EB
:100DA0009C0B882351F08A81882339F08091E102DD
:100DB00082FF03C082E00E944A0CDF91CF91089528
:100DC000CE010E94A606CE010E947202F6CF80E0FC
:100DD00090E00E94861C80E090E00E94AC1C0E9483
:100DE000C60B0E94E70B0E945B160E943E160895F8
:100DF0000E948B0B0E94E70608950E94B50B0E948B
:100E0000F8060895282F92959F70963091F060F41F
:100E1000925F9F70923030F481E0203F79F030F49F
:100E2000283E30F080E008959A5FF3CF243FD1F759
:100E3000089581E0283EE0F3213FF9CF0895FC01B9
:100E400083819481892B61F08181908189238F3FF7
:100E500039F0808191810E9487080E9402070895DD
:100E600080E00895A5E0B0E0E8E3F7E00C94A82561
:100E70002596E2E00C94C425A6E0B0E0E2E4F7E0B9
:100E80000C94A8252696E2E00C94C42508950E94AF
:100E9000460708950E9447079093DB018093DA018B
:100EA000089508950E944A0708952091DA0130912B
:100EB000DB01822B932B0E944A0708952091DA01CF
:100EC0003091DB01822393230E944A0708952091E9
:100ED000DA013091DB01822793270E944A070895A7
:100EE0000E94460708950E94700708950E947307A4
:100EF0009093D9018093D801089580E090E00E94FA
:100F00007607089521E030E0A90102C0440F551F83
:100F10008A95E2F7CA010E947607089521E030E041
:100F200002C0220F331F8A95E2F78091D801909179
:100F3000D901822B932B0E947607089521E030E09F
:100F400002C0220F331F8A95E2F7209530958091D9
:100F5000D8019091D901822393230E9476070895A6
:100F600021E030E002C0220F331F8A95E2F7809122
:100F7000D8019091D901822793270E94760708957E
:100F80002091D8013091D901822B932B0E947607B2
:100F900008952091D8013091D901822393230E9492
:100FA000760708952091D8013091D901822793279F
:100FB0000E947607089508959B01677091E001C033
:100FC000990F6A95EAF763E0369527956A95E1F7F8
:100FD000220F331F220F331FFA01E20FF31F40E0ED
:100FE00050E0682F70E08191DF0111979B01042E82
:100FF00002C0369527950A94E2F72170219528279B
:10100000292328272C934F5F5F4F4430510559F710
:1010100008959C01982F977083E0369527958A95BF
:10102000E1F7220F331F220F331FFB01E20FF31FE3
:1010300040E050E080E0219130E0092E02C036957A
:1010400027950A94E2F721703327042E01C0220F5E
:101050000A94EAF7822B4F5F5F4F4430510559F7EE
:101060000895282F862F9C3068F4263058F4622F7C
:1010700070E026E0929F600D711D112444EB51E059
:101080000E94DC070895292F9C3068F4863058F4BC
:1010900090E064EB71E036E0239F800D911D1124F8
:1010A0000E940908089580E00895A0E0B0E0EBE513
:1010B000F8E00C94A1258C01E090D801F090D901C2
:1010C0008091DA019091DB01E82AF92ACFE0D0E0A3
:1010D000CC24C394D12CC6010C2E02C0880F991FBA
:1010E0000A94E2F78E219F21892B49F4219798F7E2
:1010F000B12C8B2DCDB7DEB7E9E00C94BD25BC2E0D
:10110000B8018C2F0E942D0F019781F3F2CFCF935E
:10111000DF93D82FC92F0E9455086D2F7C2F0E9476
:101120002D0FDF91CF9108951F93CF93DF93162F4B
:10113000D72F9091B301992341F0862F972F0E94CA
:101140008708DF91CF911F910895882381F0862F22
:10115000972F0E945508C82F682F812F9D2F0E941E
:101160003108612F7D2F8C2F0E942D0FEACF862F03
:10117000972F0E944308C82FF4CF0F931F93CF934C
:10118000E091DC01C6E08091DD018E1304C0CF91B7
:101190001F910F9108950E2F10E0CE9FF0011124A2
:1011A000E252FE4F40815181628173818481958139
:1011B0000E943C07F8013196E770E5CF40910E029E
:1011C00050910F02609110027091110280911202F1
:1011D000909113020E943C0708951F93CF93DF93D1
:1011E00080911302803108F04CC080911002882356
:1011F00009F447C08091DC012091DD0130910E029D
:1012000060910F02C0911102D0911202732F7623C8
:101210002817B9F190E0209709F443C016E07F3F0A
:1012200009F43FC0189FF001199FF00D1124DF0150
:10123000A252BE4F11964C91119746132CC04C915F
:10124000431329C012964C91129741111EC0139658
:101250004D915C914C1B5D0B483C5105E0F4809135
:1012600013028F70806180931302ED51FE4F8081D5
:101270008F70806180838EE092E00E94BE060E94A3
:10128000BD08DF91CF911F9108950196877099272E
:101290002813C8CFF6CF0196877099272813BFCFA0
:1012A000F0CF01968770B4CFABE0B0E0EAE5F9E0AB
:1012B0000C94A0258C0185E0F801DE0117960190C1
:1012C0000D928A95E1F7D8011296EC901297139639
:1012D000CD90DC9014975EE0A52E52E0B52E2091C3
:1012E0000E0230910F02809111029091120200972C
:1012F00009F453C1422F43234F3F09F44EC1F090EC
:101300001002A601481B590BFF2009F409C1809166
:101310001302483C510508F0DBC011969C911197CF
:10132000803108F096C0391314C03C91321311C0BB
:10133000E1105AC08F708061809313020E94DE0812
:10134000C5010E94BE0680911302F8018583F12C2D
:101350002CC08F81C114D10409F443C0282F292344
:101360002F3F09F43EC0E1103FC0A091DC01309155
:10137000DD01EA2F46E0E42EA3131CC02F3F39F312
:1013800026E0E31337C08F8198850E948708292FB4
:1013900022952F70903408F441C02A5F2F702230BC
:1013A00008F451C0C8010E94BE068F2D2B96EAE0BA
:1013B0000C94BC254A2F50E0EA9ED0011124A25281
:1013C000BE4F11966C911197691307C06C91681309
:1013D00004C012966C916111F4C0DA011196A770E5
:1013E000CBCFEE2009F4B3CF8091130281608093BC
:1013F0001302ADCF4E2F50E02E9FF0011124E25288
:10140000FE4F6181961306C06081861303C062811E
:1014100061119DCFFA013196E770B3CF9F702230F2
:1014200040F0992359F0D80115969C91903130F4F1
:101430008ECF992319F0882309F489CF805E8830F4
:1014400008F485CFAFCF803F08F481CF815F823031
:10145000F7CF391317C0F8019081921313C0E11030
:1014600011C08583C8010E94BE0686E0F801AEE087
:10147000B2E001900D928A95E1F70E94DE08FF2408
:10148000F39493CFC8010E941F07882309F479C001
:10149000EE2009F476C080911302803270F0209122
:1014A0000E0230910F023A8329831B82DD82CC82A7
:1014B0008E83CE0101960E94BE0686E0F801AEE062
:1014C000B2E001900D928A95E1F70E94ED08D5CF28
:1014D000803198F44F81588569857A858B850E9483
:1014E00032078EE092E00E94BE0686E0D5011D9292
:1014F0008A95E9F70E94DE082ACFF80191819313BB
:10150000C1CF90819213BECFE110BCCF8583C801BB
:101510000E94BE0686E0D5011D928A95E9F7AFCFFD
:10152000483C510590F5EE2061F1F801818183136B
:101530001EC0808182131BC08091130280FD0EC0EB
:10154000803160F08583807F803F09F48BCF858177
:10155000982F907F905F8F70892B83CF86E0F80162
:10156000AEE0B2E001900D928A95E1F788CFC80114
:101570000E941F078111A1CF809113028160809387
:101580001302C8010E94BE067ACF4F815885698533
:101590007A858B850E943207A8CFEE2091F3C8018F
:1015A0000E941F07882369F386E0F801AEE0B2E0ED
:1015B00001900D928A95E1F78EE092E00E946B0314
:1015C00084CF8EE092E00E94BE06EEE0F2E0DF0102
:1015D0001D92EA94E9F78ECFACE0B0E0E2EFFAE0DA
:1015E0000C94A7254F83588769877A878B879C87B8
:1015F000CE0107960E9454098823D9F08A859B85DD
:10160000892B61F04F815885842F85238F3F31F0DE
:1016100069857A858B859C850E943C0716E08091C0
:10162000DC019091DD01891344C02C96E3E00C9419
:10163000C32586E0FE013796DE01119601900D92DA
:101640008A95E1F78F8198852091DD014091DC0139
:101650006A857B85672B11F389238F3FF9F230E090
:10166000C90101968770992750E08417950771F496
:101670000E94FD061092DD011092DC0186E0EEE092
:10168000F2E0DF011D928A95E9F7C8CF96E0929FBC
:10169000D001939FB00D1124A252BE4FFE0131968E
:1016A00001900D929A95E1F78093DD010E94BD08AB
:1016B000B5CF189FC001112482529E4F0E94540939
:1016C000882309F4B2CFE091DC011E9FF0011124C0
:1016D000E252FE4F40815181628173818481958104
:1016E0000E943C078091DC0190E001968770992769
:1016F0008093DC0194CF682F8091000190910101CB
:101700000E946F1D0895682F809100019091010142
:101710000E947D1D089580910001909101010E9419
:101720008B1D089580913402859585958595089542
:10173000809134028770089590913402977081E00F
:10174000911101C080E00895809157020895909111
:101750005702982B909357020895982F9095809157
:1017600057028923809357020895109257020895D3
:1017700090915602982B909356020895982F909529
:101780008091560289238093560208951092560242
:10179000089580913502089508950E94CC0B089514
:1017A0009091E10292FF08C090913502981721F0C4
:1017B000809335020E94CD0B0895809135028823D5
:1017C00029F01092350280E00E94CD0B0895CF934E
:1017D000DF93E0910001F091010180915702808335
:1017E000E0910001F0910101808190915602892BD6
:1017F000808390913502992381F0E0910001F0916E
:1018000001018081892B80838091000190910101E9
:101810000E94D21C81110E94DD0BC0910001D09169
:10182000010140E250E064E172E0CE010E94E32554
:10183000892B59F080E2FE01A4E1B2E001900D9203
:101840008A95E1F7CE010E945C1CDF91CF9108954B
:1018500008950E94280C08959091E10292FF11C012
:1018600098E0899F90011124622B609334020E94BA
:101870008E07809134028595859585950E94290C67
:1018800008950E948E0708951092340280E00E940D
:10189000290C08952091340280958223809334028C
:1018A000982F9770911113C030E0482F082E000C2C
:1018B000550B2417350759F09091E10292FF07C0AC
:1018C0008595859585950E949E070E94440C0895F4
:1018D0009091E10292FB222720F9281769F080FB02
:1018E00092F99093E1028091E0029091E1020E94CE
:1018F000B00C82E00E944A0C08958091E10282FBC4
:10190000882780F991E089270E94680C089581E07A
:101910000E94680C089580E00E94680C08956FEFA3
:101920007FEF80E090E00E942526089580E090E01F
:101930000E9401269C0181E0273E3E4F09F080E095
:10194000089582E090E00E94F925089583E090E0F8
:101950000E94F925089584E090E00E9401260895F0
:10196000BC0184E090E00E9425260895AB01BC01F3
:101970008FE090E00E9419260895AB01BC0183E13D
:1019800090E00E941926089560E070E0CB010E946B
:10199000BD0C089560E070E0CB010E94B60C0E947F
:1019A000C40C089567EE7EEF80E090E00E9425264B
:1019B00060E082E090E00E94072660E083E090E033
:1019C0000E9407261092DB011092DA0160E074E1B8
:1019D00084E090E00E94252660E086E090E00E948E
:1019E00007266FEF87E090E00E94072640E050E076
:1019F000BA0188E090E00E94192660E08DE090E056
:101A00000E94072640E050E0BA0188E190E00E9481
:101A1000192660E087E190E00E94072640E050E050
:101A2000BA018CE190E00E94192660E070E080E24B
:101A300090E00E94252640E050E0BA0188E190E065
:101A40000E9419260E94CA0C08950E94D20C089583
:101A5000682F8EE090E00E9407260895A5E0B0E090
:101A6000E4E3FDE00C94A6250E94481E8C018091C1
:101A70005802909159028017910791F08FEF898356
:101A80008A831B820E94481E8160782F49815A8177
:101A90006B81892F0E9437031093590200935802DB
:101AA0002596E4E00C94C2250E94541E60936A02BD
:101AB00070936B0280936C0290936D026093660248
:101AC0007093670280936802909369020895089565
:101AD00008950E94680D089508950E946C0D089560
:101AE00081E0089582E890E10E943E1C0E94670D0B
:101AF0000E94690D08950E94711208950895089535
:101B00000E947E0D0E947F0D08950E9485100E9404
:101B10000B0308950E943F1E0E9419100E94C012DC
:101B20000E94B5110E94850D0E9478170E94CA126A
:101B30000E946D0D0895A5E0B0E0E1EAFDE00C948F
:101B4000A0250E94700D81110EC00E942E0D0E94D2
:101B500071120E9498120E947C160E941E03259604
:101B6000EAE00C94BC250E94D9118AE5A82E82E0F7
:101B7000B82E750110E0F70101917F01812F0E94BD
:101B8000AB101F5F1C3009F440C00817A1F380910F
:101B90006E0281FD0E94B1100E947B0DC82E00E0F4
:101BA000802F0E94AB10182FF50191915F018917CA
:101BB00031F1D82ED926F12CEE24E3948E2D8D21EF
:101BC0008823A9F0CC2099F0F9820A8391E08E2D28
:101BD0008123811101C090E09B830E94481E816097
:101BE000782F49815A816B81892F0E943703F394A2
:101BF000EE0CF6E0FF12E2CFF501319710830F5F94
:101C00000C3071F60E94540DA2CF0813C0CF9DCFA7
:101C10001F93CF93DF930E94320FEC01811522E5D1
:101C2000920708F053C0811540E5940708F0DDC025
:101C3000803E9105F8F48D3C910508F0AEC0883ADD
:101C4000910580F4853A910508F099C0813091059D
:101C500021F00497813A910550F4CE01DF91CF91A4
:101C60001F910895885A91094B9708F48BC0C0E0E2
:101C7000D0E0F3CF811550E49507F8F4C11580E268
:101C8000D80708F0CBC0C83ED10538F3CE019A95ED
:101C900081159F4160F78D2F0E94D60F182FCE011E
:101CA00099270E94320F212F30E0322F2227E9019D
:101CB000CC27DF71C82BD92BD0CF99270E94320FA8
:101CC000CC27DF70C82BD92BD06AC7CF803842E52C
:101CD0009407C8F5803652E5950708F067C0C03410
:101CE00082E5D807B0F08C2F86958695877020E224
:101CF000829FC0011124C37021E030E0A90102C01D
:101D0000440F551FCA95E2F7EA01C82BD92BDC68AE
:101D1000A4CFC03252E5D50708F041C08C2F86957C
:101D2000869520E2829FC0011124C37021E030E03B
:101D3000A90102C0440F551FCA95E2F7EA01C82B5A
:101D4000D92BDD688ACF803C52E5950760F48F710E
:101D5000C03AD24508F03FC090E0982F8827EC01A8
:101D6000C46FD06A7ACF805C9245809708F07FCFAD
:101D7000DC2FCC27CC27DF71C06FD06A6ECFA49741
:101D8000D0646BCFC85AD0E0CC0FDD1FC859DE4FEE
:101D90000990D881C02DD46460CFD0655ECFCF715B
:101DA000D0E0DC2FCC27C16FD06A57CF86958695BF
:101DB000877020E2829FC0011124C37021E030E0CF
:101DC000A90102C0440F551FCA95E2F7EA01C82BCA
:101DD000D92BDA6842CF0E94D60FC82FD0E0DC2F73
:101DE000CC27CC27DF71D06238CF8F710E94D60FFD
:101DF00065E0D695C7956A95E1F7CF70D0E0DC2F06
:101E0000CC27282F30E084FF05C054E0220F331F79
:101E10005A95E1F7C22BD32BD0691FCF8D2F8F712D
:101E20000E94D60F182FCE0199270E94320F212F22
:101E300030E0322F222722273F71282B392BE9014E
:101E4000D2CF462F672F7C3028F4463018F40E94FA
:101E50002C02089580E090E008950E94210F0E94D6
:101E6000080E0895803E9105D1F1C8F481339105A3
:101E700009F47FC048F48932910509F46FC08A32B1
:101E8000910509F47DC0089589339105E1F0823808
:101E90009105C9F08533910509F45BC00895843E2E
:101EA0009105D1F148F4823E910531F1833E9105CF
:101EB00041F181EE90E00895863E9105C1F1873EA3
:101EC0009105E1F108952091E0022370211165C090
:101ED0002091E10223FF14C089E290E0089520914F
:101EE000E00220FD43C03091E10230FF09C024FF31
:101EF0004EC080E090E008952091E00222FDF7CFEF
:101F000008952091E00222FD45C03091E10230FDAC
:101F100044C024FFF5CFEDCF2091E10221FFF0CFA7
:101F20008091E00284FDE5CF87EE90E00895209156
:101F3000E00223FFE5CF24FDDCCFF6CF2091E002C5
:101F400023FD2EC03091E10231FFE3CF84EE90E01B
:101F500008952091E00225FFD3CFBECF2091E0026B
:101F600025FD21C02091E10223FFCACF89E390E043
:101F700008952091E00226FFC3CF8AE290E0089501
:101F80002091E00226FFBCCF81E390E0089583EE2C
:101F900090E0089582EE90E0089580EE90E008953C
:101FA00086EE90E0089585E390E0AACF9091E0025C
:101FB00092FF06C0282F28712830F9F4877F8460AB
:101FC00093FF06C0282F28712831F1F4877E8461A1
:101FD0002091E10220FF06C0382F38713830D9F443
:101FE000877F816021FF06C0282F28712831D1F416
:101FF000877E816194FD877E0895282F2471243087
:10200000F9F68B7F8860DCCF282F2471243101F70B
:102010008B7E8861DDCF382F3171313019F78E7F9B
:102020008860E0CF282F2171213121F78E7E8861D1
:10203000E1CF1092DC021092DD021092DE021092CB
:10204000DF020895CF92DF92EF92FF92CF93DF935A
:1020500000D000D0CDB7DEB76B017C010E947112B9
:10206000811112C00E94541E69837A838B839C83E2
:10207000C61AD70AE80AF90AC092DC02D092DD0239
:10208000E092DE02F092DF020F900F900F900F901F
:10209000DF91CF91FF90EF90DF90CF900895A4E073
:1020A000B0E0E5E5F0E10C94A8250E9471128823C8
:1020B00071F00E94541E69837A838B839C836981AB
:1020C0007A818B819C812496E2E00C94C4250E9445
:1020D000541E69837A838B839C838091DC02909168
:1020E000DD02A091DE02B091DF0229813A814B81AD
:1020F0005C81280F391F4A1F5B1F29833A834B835A
:102100005C83DDCF80E0089508950E94960C8111D4
:1021100002C00E94250D0E94A10C80936E020E94B5
:10212000AB0C9093E1028093E0020E9484100E9425
:10213000A60C90E00E9452078091D8019091D9019D
:102140000E947307089508950E94A31008950895AA
:102150000E94A7100895E82FF0E0E151FD4F808123
:102160000895089580EA8A95F1F7089500C00895CA
:102170000E94B210089508950E94BB100895A6E031
:10218000B0E0E5ECF0E10C94A3250E947112182F49
:102190006091FB02882309F445C01A821982FE016E
:1021A000339684E0DF011D928A95E9F7862F90E04F
:1021B00032977F01BF0181519D4F0E94DA12DE2CC0
:1021C0000F2D8823B9F08091E20290E046E050E0C4
:1021D000B70181519D4F0E94E32521E020936F02BA
:1021E000892B99F410E00E94A810812F2696E7E031
:1021F0000C94BF2580916F028823A1F386E0D7015C
:102200001D928A95E9F710926F02A091E202B0E068
:10221000A151BD4F86E0ED2DF02F01900D928A95D2
:10222000E1F7E1CF70E061517D4F8091E20290E0F3
:1022300081519D4F0E9463130E94BC10D6CFF89429
:10224000E82FE295EF70F0E041A18F7021E030E0DF
:10225000B90102C0660F771F8A95E2F7CB01962F6E
:102260009095942391A392A1892B82A378940895A9
:102270000F931F93CF93DF93C4EAD1E089918F3FEF
:1022800011F00E941F1181E0CA3AD807B9F7CEE9D0
:10229000D1E004EA11E089918F3F11F00E941F11F3
:1022A0000C171D07C1F7DF91CF911F910F91089572
:1022B000A0E0B0E0EEE5F1E10C94A225EC01D62E11
:1022C000062F10E0C8018C559E4F7C01FC018081D7
:1022D0008F3F09F445C0F894E82FE295EF70F0E0E5
:1022E00091A18F7021E030E001C0220F8A95EAF7BA
:1022F000892F822B81A382A12095282322A3789461
:102300000E94B610EEE9F1E091E0C12C81918F3F7F
:1023100081F0A82FA295AF70A05EB0E02C9130E0C4
:102320008F7002C0359527958A95E2F72170892F25
:10233000211180E0C82A990F81E0E43AF80731F7CB
:10234000F70180818F3F11F00E941F1161E0C110E1
:1023500001C060E08D2D0E94B810C00FD11FC8824F
:10236000CDB7DEB7E8E00C94BE25809102018091E4
:10237000020190E0811101C096E09093FB0286E09B
:10238000891B8093E2020E9438118CE0EFEEF2E0AC
:10239000DF01982F1D929A95E9F7E3EEF2E0DF0155
:1023A0001D928A95E9F786E00E941A120E94A410F5
:1023B0000895ACE0B0E0EFEDF1E10C94A5251A82B0
:1023C0001982FE0133968AE0DF011D928A95E9F7B2
:1023D000F12C8E010F5F1F4F6F2DC8010E94581105
:1023E000F394B6E0FB12F8CF4CE050E0B80183EE76
:1023F00092E00E94E32521E0892B99F420E060918E
:10240000FB0270E061517D4F46E083EE92E00E9456
:102410001B12182F0E94BF10812B2C96E5E00C9404
:10242000C1258CE0F801A3EEB2E001900D928A95EF
:10243000E1F7E5CF0895A0E0B0E0E1E2F2E10C942D
:10244000A325D82EE92EF62E072FC42F222349F0DC
:1024500081E0809372020E94481E909371028093E3
:10246000700210917202111107C010E0812FCDB7D8
:10247000DEB7E7E00C94BF25809170029091710265
:102480000E94711E059788F3D0E0AE016D2D7E2D60
:102490008F2D902F0E94E325892B51F0AE016D2DD9
:1024A0007E2D8F2D902F0E94F02510927202DECF8C
:1024B00010E0FBCF0E94541E609377027093780265
:1024C0008093790290937A0208958093760208951A
:1024D00080917B028A3010F0109276028091760211
:1024E0000895CF93DF9380917502811114C0C8ECD9
:1024F000D0E00E947825811117C08FE39CE90197F5
:10250000F1F700C000002197209799F782E08093AF
:1025100075020E94732581E090917502913009F057
:1025200080E0DF91CF91089581E080937502F3CF31
:10253000A4E0B0E0EEE9F2E10C94A82580917602E7
:10254000811117C00E947112811113C0809177020E
:1025500090917802A0917902B0917A02BC01CD01EC
:102560000E94801E653378408105910510F00E941D
:10257000D51E2496E2E00C94C4250E9471120895A1
:102580000E94BD12809302010E94711281110E946B
:10259000101308950E947112811104C00E94131338
:1025A0000E945A12089581E090917B029A3008F0BF
:1025B00080E008950F931F93CF93DF93EC01162FC4
:1025C000072F80917B028A3090F4612F702FCE010B
:1025D0000E946013811121C080917B028F3FB1F472
:1025E0000E94481E909374028093730209C08091E8
:1025F0007302909174020E94711E843F914028F7EB
:1026000080E0DF91CF911F910F9108958F5F8093AC
:102610007B028A3028F781E0F4CF10927B02FBCF57
:102620000E94DB1A08950E94DE1A0895A0E0B0E02F
:10263000ECE1F3E10C94A225FA0169017801C82FBD
:10264000880FDD0B3097B1F0DE0193E0AA0FBB1FBE
:102650009A95E1F7AD5FBE4F11968D919C911297BF
:1026600084589D4F4C9150E0E417F50708F4AF01F2
:102670000E94F025CE010E94C91B182F8823D1F09B
:10268000E114F104B9F083E0CC0FDD1F8A95E1F786
:10269000FE01ED5FFE4F438150E0E416F50608F4BD
:1026A000A701CD5FDE4F6C817D8164587D4FC601EF
:1026B0000E94F025812FCDB7DEB7E8E00C94BE254F
:1026C0000E94811408950E94A5140895A1E0B0E02D
:1026D000ECE6F3E10C94A62581E089830E94681260
:1026E00081110FC000E010E020E030E041E050E058
:1026F000BE016F5F7F4F83E00E94161389830E94A3
:10270000651289812196E4E00C94C225A8E0B0E02E
:10271000ECE8F3E10C94A625809196029091970243
:10272000A0919802B0919902BC01CD010E94801E37
:1027300011E0643671058105910520F10E944F106A
:10274000DC01CB010296A11DB11D89839A83AB8365
:10275000BC8300E010E020E030E044E050E0BE0147
:102760006F5F7F4F82E00E941613182F882351F06D
:102770000E94541E60939602709397028093980271
:1027800090939902812F2896E4E00C94C225ABE047
:10279000B0E0EDECF3E10C94A0257B01A090AA0140
:1027A000B090AB0101E010E09E01295F3F4F40E097
:1027B00050E060E070E080E00E941613182F88233C
:1027C00009F44DC065018FEFC81AD80A80919202B2
:1027D00090919302A0919402B0919502BC01CD0119
:1027E0000E94801E688779878A879B876436710577
:1027F0008105910560F106E010E09E012F5F3F4FDB
:1028000040E050E060E070E081E00E941613182F75
:1028100066E070E0C6010E9479179F8198132AC074
:10282000112341F10E94541E60939202709393020F
:10283000809394029093950286E0FE013196ACE875
:10284000B2E001900D928A95E1F781E014C066E054
:1028500070E0C6010E9479179F818913CCCF86E072
:10286000F5013196DE01119601900D928A95E1F7FE
:102870001111E2CF80E096E0ECE8F2E0D7010190A0
:102880000D929A95E1F72B96EAE00C94BC25A0E016
:10289000B0E0EDE4F4E10C94A025F82EE92EB62E7C
:1028A000A72E8A010E94D312CC24C394D12C882352
:1028B00019F08AE0C82ED12CC1E0D0E06B2D7A2D22
:1028C0008F2D9E2DF8010995811116C02196CC16E9
:1028D000DD0694F0CC9FC001CD9F900D900D11248A
:1028E00020E030E045E34A95F1F700002F5F3F4FCD
:1028F00028173907B9F7E2CFCDB7DEB7EAE00C9475
:10290000BC250F931F93CF93DF93D82FC92F8B0133
:1029100047EC53E10E944714811106C080E0DF912B
:10292000CF911F910F91089546E853E1B8018D2F83
:102930009C2F0E944714882389F346E653E1B8018F
:102940008D2F9C2F0E944714EACF0F931F93CF9394
:10295000DF93FB01C091AA01D091AB01CE0101969A
:1029600026E0DC0101900D922A95E1F766E070E027
:102970000E94791788836F81788589859A8500916F
:1029800088021091890220918A0230918B0260178F
:1029900071078207930751F0609388027093890250
:1029A00080938A0290938B020E9422108B850E9452
:1029B0006512DF91CF911F910F9108950E944D20D4
:1029C0000E948A0D0E945A2008950E945F200E9452
:1029D0009B0D0E94792008950E94E11D0E943320E2
:1029E0000E94720D0E94DE140E94E5140E94800D68
:1029F000FBCF8091A20280FF0DC06091270170E0A3
:102A0000660F771F60387105C0F561157105B9F162
:102A1000862F089581FF07C06091270184E0689F99
:102A2000B0011124EFCF82FF04C06091270188E03C
:102A3000F6CF8091A1028823E9F090912601609160
:102A4000270170E0891730F093E0660F771F9A95A1
:102A5000E1F7D8CF869F9001879F300D112483E046
:102A6000220F331F8A95E1F7692F70E0C9010E9498
:102A70007E25C8CF68E070E0CBCF8FE7089581E076
:102A800008958091A20280FF0CC06091240170E043
:102A900075956795759567956115710561F1862F37
:102AA000089581FF06C06091240170E075956795D7
:102AB000F3CF6091240170E082FD15C02091A00247
:102AC0002223B1F0909123016091240170E0291735
:102AD00050F4269FA001279F500D1124692F70E00C
:102AE000CA010E947E2560387105B0F28FE7089513
:102AF00061E070E0D4CF81E00895E3E3E80FE331D3
:102B0000E0F5F0E0E75BF94D0C9492250E94F91492
:102B100081958093A60208950E94F914FACF0E942D
:102B2000F91481958093A50208950E94F914FACFB3
:102B30000E9441158093A70208950E944115819536
:102B4000F9CF0E94411581958093A80208950E94B3
:102B50004115FACF815D990B21E030E001C0220FD1
:102B60008A95EAF78091A402822B8093A4020895AB
:102B70008091A20281608093A20208958091A202B6
:102B80008260F9CF8091A2028460F5CF4091A502C6
:102B90008D3C59F48091A60287FF0DC01092A602C9
:102BA000442359F41092A10208C08E3C81F4809114
:102BB000A60218169CF3442381F08091A7029091FD
:102BC000A802892B811159C01092A00208958F3C50
:102BD00041F447FFF0CF1092A5028091A60288230E
:102BE000E0CF803D19F41416B4F3E5CF9091A7021D
:102BF000893D29F41916FCF61092A702DCCF8A3D14
:102C000019F497FFD8CFF8CF9091A8028B3D29F403
:102C100097FFD1CF1092A802CECF8C3D19F4191690
:102C2000CCF3C9CF9FE2980F983090F4815D990B57
:102C300021E030E0B90102C0660F771F8A95E2F704
:102C4000CB0180959091A40289238093A402B3CFF5
:102C50008D3D31F48091A2028E7F8093A202ABCF92
:102C60008E3D21F48091A2028D7FF7CF8F3D09F038
:102C7000A2CF8091A2028B7FF0CF08950E94481EC0
:102C80002091A5023091A602232B222321F08093CC
:102C90009E0290939F022091A7023091A802232BBD
:102CA000222321F080939C0290939D0283EA92E07C
:102CB0000E94771C089586E0E3EAF2E0DF011D92AE
:102CC0008A95E9F71092A1021092A0021092A20236
:102CD0000895FC01828181110DC0838181110AC098
:102CE0008481811107C081E09581911101C080E04C
:102CF0008170089581E0FCCFA6E0B0E0E2E8F6E163
:102D00000C94A52586E0E3EAF2E09E012F5F3F4F99
:102D1000D90101900D928A95E1F71092A5021092C7
:102D2000A6021092A7021092A8028B819C81892B87
:102D30008901882391F080919E0290919F020E94C8
:102D4000711E9C018091A1028823C9F14091280144
:102D500050E04217530708F43FC08D819E81892BB4
:102D6000882399F080919C0290919D020E94711E8F
:102D70009C018091A002882309F46DC04091250137
:102D800050E04217530708F474C0B80183EA92E098
:102D90000E949D1D811105C083EA92E00E94691680
:102DA00081110E943E1686E0F801A3EAB2E001908C
:102DB0000D928A95E1F72696E5E00C94C1254091A5
:102DC0009B029AE0499FA00111244217530728F65D
:102DD0008F5F8093A10202C08F3FD1F7FB80FF205D
:102DE00059F00E94F91491E01F140CF09FEF899F95
:102DF000802D11248093A502FC80FF2059F00E94B1
:102E0000F91491E01F140CF09FEF899F802D11247D
:102E10008093A6023091A502332309F49ECF20911E
:102E2000A602222309F499CF45EB3403C0011124F3
:102E3000892F911101C081E08093A50245EB240305
:102E400090011124332319F03093A60286CF81E03C
:102E50008093A60282CF40919A029AE0499FA001F6
:102E600011244217530708F090CF8F5F8093A00280
:102E700002C08F3FD1F7FD80FF2059F00E9441151D
:102E800091E01F140CF09FEF899F802D11248093F7
:102E9000A702FE80FF2059F00E94411591E01F1407
:102EA0000CF09FEF899F802D11248093A802309110
:102EB000A702332309F469CF2091A802222309F441
:102EC00064CF45EB3403C0011124892F911101C057
:102ED00081E08093A70245EB240390011124332362
:102EE00019F03093A80251CF81E08093A8024DCF12
:102EF0000895FC01680F791F8FEF91E3E617F7073C
:102F000009F408952191822728E030E087FF08C066
:102F1000880F89272150310921153105B9F7EECFE6
:102F2000880FF8CFCF93DF93EC01FB0182818823D8
:102F300009F4D2C09E0130572332310508F0B2C0E7
:102F40000E94AB0C9093E1028093E002FE01E150FD
:102F5000F047E232F10520F4E45AF94D0C94922541
:102F60008091E00281608093E00293C08091E10251
:102F700088608093E1028DC08091E0028260F3CF8F
:102F80008091E0028460EFCF8091E0028860EBCF17
:102F90008091E1028160EDCF8091E1028260E9CF12
:102FA0008091E0028061DFCF8091E0028062DBCF20
:102FB0008091E0028064D7CF0E94FD068091E002FC
:102FC0008068D1CF8091E0028C60CDCF8091E1020A
:102FD0008360CFCF8091E0028E7FC5CF8091E102E8
:102FE000877FC7CF8091E0028D7FBDCF8091E002C7
:102FF0008B7FB9CF8091E002877FB5CF8091E102CE
:103000008E7FB7CF8091E1028D7FB3CF8091E002B8
:103010008F7EA9CF8091E0028F7DA5CF8091E002C5
:103020008F7BA1CF0E94FD068091E0028F779BCF1E
:103030008091E002837F97CF8091E1028C7F99CFCE
:103040008091E00282FB992790F921E0922790FB82
:1030500082F990FB83F987CF8091E102982F9095B8
:1030600091708E7F892B90FB81F983CF9091E00244
:10307000892F8F7B96FF806476CF0E94FD0690910A
:10308000E002892F97FB87F980586DCF81E00E947D
:10309000280D8091E0029091E1020E94B00C0E9404
:1030A000FD0680E0DF91CF91089580E0F0CF909110
:1030B000E002892F8F7E94FF806155CF9091E002CE
:1030C000892F8E7F90FF81604ECF9091E102892FF2
:1030D000877F93FF88604DCF81E0E4CFEBEFE80F6F
:1030E000EF3308F066C0F0E0E258F94D0C949225F9
:1030F0000E94250D81E0089580916E02807F80936B
:103100006E0281E08093AC02F5CF0E948F02F2CF75
:1031100090916E02892F8E7F90FF816080936E0266
:1031200080FDE8CF817F80936E02E4CF90916E02A4
:10313000892F8D7F91FF826080936E0281FFDACFAD
:1031400080916E028160EFCF90916E02892F8B7F0C
:1031500092FF846080936E0282FDF2CFCBCF90917C
:103160006E02892F877F93FF886080936E0283FDB4
:10317000E7CFC0CF0E94FD069091E002892F97FB18
:1031800087F980588093E002B5CF81E090E00E94FB
:1031900052070E94FD06AECF895321E030E0A9011D
:1031A00002C0440F551F8A95E2F7CA01F0CF8D5136
:1031B000F4CF80E0089580E008950E94DB18089520
:1031C000CF93C82F8091AC028130A1F08230A9F159
:1031D0008111B8C00E94A40B823209F0B5C08C2FB7
:1031E0000E94DB18811111C08C2F0E946E18817013
:1031F000CF9108950E94A40B823289F38C2F0E94F4
:10320000DD18882329F081E0F2CF81E090E0EFCF54
:10321000C43161F030F4CB30B1F3C03151F080E013
:10322000E6CFC93219F0C83371F3F9CF1092AC026E
:10323000F6CF82E08093AC02E6CFCF3409F46FC0C2
:1032400068F4C83248F4CE3150F5C73009F44BC0A9
:10325000C431D1F081E0CCCFC932FBCFC13509F404
:1032600053C091E0C23509F45BC0C03599F7E091D5
:10327000A902F091AA02309769F380818A50990BD4
:1032800097FF5EC01082E6CF8091AB02882311F3D6
:103290001092AB021092AA021092A902DBCFCD517C
:1032A000C093AB02C430C9F078F488E291E0C23038
:1032B00031F087E291E0C33011F08BE992E0909316
:1032C000AA028093A902C6CFC53051F083E291E0F3
:1032D000C630A9F31092AB02BDCF86E291E0EFCFEA
:1032E00084E291E0ECCF10929B0284E1809328016C
:1032F000C09327018CE38093260188E0809324010A
:1033000088E280932301A6CFE091A902F091AA025E
:10331000309709F49FCF80818150990BB1CF9AE00B
:10332000E091A902F091AA02309709F493CF80812D
:10333000890F9927991F8F3F910511F00CF08FEF9E
:10334000808388CF1092AC0280E052CFCF93DF937E
:10335000EB0186319C4719F50E94A40B9A819923B1
:10336000A1F08A7A91E0811101C090E09093AD02C2
:10337000882349F085E30E947B0B0E94E70B80E0E5
:10338000DF91CF91089589E2F6CF8091AD02882335
:1033900021F085E30E94830BF0CF89E2FBCF81E02F
:1033A000EFCF0F931F93CF93DF93C42FD22FFC0146
:1033B00082818823C9F04093B0020E94481E9093F6
:1033C000AF028093AE0280E28C0F883040F4C77069
:1033D00081E001C0880FCA95EAF70E948C04DF9152
:1033E000CF911F910F9108951091B00214133CC01A
:1033F0008091AE029091AF020E94711E883C9105AF
:1034000098F5C0E2CD0F1D1741F180E2810F8830A1
:1034100040F4177081E001C0880F1A95EAF70E9406
:103420009304C83020F0802F0E948304D8CF91E00D
:103430008D2F877001C0990F8A95EAF7892F0E9416
:103440008C04802F0E948304D77081E001C0880F14
:10345000DA95EAF70E949304C2CF802F0E9483047A
:10346000C83008F0BCCFF0CF80E28C0F883008F075
:10347000B6CFC77081E001C0880FCA95EAF7EACFDE
:103480000F93FC01CB01E851FC47E730F10590F5C3
:10349000E354F94D0C94922506E221EE41EE6AE1E7
:1034A0007CE70E94D11980E00F91089507E225EE94
:1034B00045EE6BE17CE7F5CF06E221EE40EE68E1F8
:1034C0007CE7EFCF07E225EE44EE69E17CE7E9CF48
:1034D00006E221EE42EE6CE17CE7E3CF07E225EE67
:1034E00046EE6DE17CE7DDCF08E221E045EE6EE1DE
:1034F0007CE7D7CFFB01828181111092B00281E07D
:10350000D3CF8EE1489B03C081508111FBCF489BF4
:10351000FECF0895589880E28A95F1F7589A089559
:10352000FC012BE02A95F1F728E090E080E031E003
:1035300040E14A95F1F7880F489B02C081609327CC
:1035400042E04A95F1F7000040E14A95F1F7215039
:103550002111EECF20E12A95F1F729B132E03A9519
:10356000F1F7000040E14A95F1F7217092272081A0
:10357000920F90830895A1E0B0E0E1ECFAE10C94A1
:10358000A42519828C017C01E60EF11C0E151F0585
:1035900041F481E09981911180E02196E6E00C945C
:1035A000C0250E94811ACE0101960E94901AF8014E
:1035B00081938F01EBCF509A589A08955098589A5A
:1035C000E89AE9E6F0E080818C7F8083089561507D
:1035D000770B91E001C0990F6A95EAF7692F90E0A7
:1035E00021E0611108C0992399F0589A80E28A95E8
:1035F000F1F758980895362F3823332339F0589A25
:10360000922730E23A95F1F76695EBCF5898F9CFCB
:103610005898ECCFFF920F931F93CF93DF93EC0159
:103620008C01060F111DC017D10729F4CDB7DEB7E5
:10363000E5E00C94C125F9900E948A1A68E08F2D6C
:103640000E94E71AF0CF1F920F920FB60F9211242B
:103650000F931F932F933F934F935F936F937F939A
:103660008F939F93AF93BF93EF93FF93CF93DF938A
:103670000F92CDB7DEB719820E94811ACE01019652
:103680000E94901A082F069506950695982F9295F8
:103690009570202F2570920F292F2370969596955F
:1036A000920F982797708981892B81115CC0053012
:1036B00008F059C080E18A95F1F7589A509A82E053
:1036C0008A95F1F700C0589888E0089F800111247E
:1036D000D801AD5FBE4F1696ED91FC9117973097CC
:1036E000A9F06091AA017091AB0114962D913C91C3
:1036F0001597260F371F11968D919C911297680F81
:10370000791F13964C9113978C910995F801ED5FF1
:10371000FE4F6381662351F02091AA013091AB01E5
:1037200084819581820F931F0E940A1B0E948A1A2E
:1037300080E18A95F1F758985098589A80E18A95D7
:10374000F1F7F801ED5FFE4F6081662351F02091A3
:10375000AA013091AB0181819281820F931F0E9457
:10376000BB1A0E94811A0F90DF91CF91FF91EF91C8
:10377000BF91AF919F918F917F916F915F914F9189
:103780003F912F911F910F910F900FBE0F901F909F
:1037900018950F931F93CF93DF938C0105970CF02F
:1037A00065C0F894509A589885E08A95F1F7000022
:1037B000C02FC695C570802F8570C80F8C2F837061
:1037C000C695C69593E0000F111F9A95E1F7C80FB3
:1037D000C8018C2BEC010E948A1A00C068E08C2F73
:1037E0000E94E71A90E19A95F1F75098589A489BF1
:1037F00035C087E090E0489933C0F801ED5FFE4F97
:103800006381662361F02091AA013091AB0184812C
:103810009581820F931F0E94BB1A882321F10E9479
:10382000811A80E28A95F1F75898509A90E19A951A
:10383000F1F7F801ED5FFE4F6081662351F02091B2
:10384000AA013091AB0181819281820F931F0E9466
:103850000A1B0E948A1A789481E009C000C0C7CF71
:103860000197009749F4509A589A789480E0DF9134
:10387000CF911F910F91089500C0BDCF9093AD01DE
:103880008093AC0108959093B7028093B602089597
:103890000E947112811103C08091B1020895E091DC
:1038A000B602F091B702309729F00190F081E02D37
:1038B0000995089580E00895DC01E091B602F09149
:1038C000B702309799F080913101882351F08091AF
:1038D000E00287FF06C08C9111968C93119786E0C9
:1038E0008C930280F381E02DCD0109950895DC01D0
:1038F000E091B602F091B702309739F082E08C93F4
:103900000480F581E02DCD0109950895A3E0B0E094
:10391000ECE8FCE10C94A8259C018091B402909104
:10392000B50282179307A1F03093B5022093B40239
:10393000E091B602F091B702309751F083E08983AD
:103940003B832A830680F781E02DCE0101960995FD
:103950002396E2E00C94C425A3E0B0E0E2EBFCE1A6
:103960000C94A8259C018091B2029091B302821719
:103970009307A1F03093B3022093B202E091B60214
:10398000F091B702309751F084E089833B832A831A
:103990000680F781E02DCE01019609952396E2E09D
:1039A0000C94C4259C012E5F3F4F809131018823E8
:1039B00021F08091E0029DE187FF95E080E0F90130
:1039C00040812F5F3F4F41118F5F9150C0F70895A5
:1039D0009C01662301F1809131018823F1F08091EF
:1039E000E00287FF1AC0462F469546954695603FF0
:1039F00090F4677081E090E002C0880F991F6A958B
:103A0000E2F7240F311DF901228130E02823392308
:103A100081E0232B71F480E00895F9013296285F4C
:103A20003F4F8191861721F0E217F307D1F7F3CFCB
:103A300081E008959C01FC0132968FEF90E0419166
:103A4000461751F08F3F19F4411101C0892F9F5F34
:103A50009630A9F78F3F09F40895280F311D87FD8F
:103A60003A95F901628308959C01FC013296285F22
:103A70003F4F8191861303C0DF0111971C92E2171B
:103A8000F307B9F70895FC01862F869586958695EC
:103A9000603F60F4E80FF11D677021E030E001C085
:103AA000220F6A95EAF78281822B82830895FC01B6
:103AB000862F869586958695603F80F4E80FF11DE8
:103AC000677081E090E09C0102C0220F331F6A956D
:103AD000E2F7B9016095828168236283089520919D
:103AE0003101222339F02091E00227FF03C00E9418
:103AF000431D08950E941A1D08952091310122232B
:103B000039F02091E00227FF03C00E94571D08955D
:103B10000E94341D0895FC01329680913101882362
:103B200051F08091E00287FF06C08EE1DF011D9217
:103B30008A95E9F7089586E0F9CF46E050E00E94C3
:103B4000E3259C0181E0232B09F480E0089508958A
:103B50000E94A71D08958F5F8093B8020E94A81D40
:103B6000089583E08093B8020E94A81D08950E94E2
:103B7000AB1D089581E08093B8020E94A81D0895AE
:103B80000E94BA1D0895089508950E94C41D0895C5
:103B9000089508950E94C31D0895CF930E94C81DE3
:103BA0000E94D9110E94C91DC0E08C2F0E94AB1049
:103BB000811105C0CF5FCC30C1F7CF91089581E06E
:103BC000FCCF85B7806885BF85B7806885BF0895BD
:103BD0001F921FB61F9211248F939F93AF93BF9391
:103BE0008091B902811113C08091FC029091FD0275
:103BF000A091FE02B091FF024196A11DB11D8093DC
:103C0000FC029093FD02A093FE02B093FF02BF91CD
:103C1000AF919F918F911F901FBE1F90189580911B
:103C20000403843031F10E94EE021092B90288E15F
:103C300090E020E40FB6F894A895809360000FBE42
:103C40002093600083B7817F846083BF83B78160E6
:103C500083BF7894889583B78E7F83BF0FB6F8941F
:103C6000A895809160008861809360001092600048
:103C70000FBE08950E94FD060E94F302089582E09F
:103C800084BD93E095BD9AEF97BD80936E00089533
:103C90002FB7F8948091FC029091FD02A091FE0252
:103CA000B091FF022FBF0895A4E0B0E0EAE5FEE185
:103CB0000C94A8258FB7F8942091FC023091FD0256
:103CC0004091FE025091FF0229833A834B835C832B
:103CD0008FBF69817A818B819C812496E2E00C946C
:103CE000C4259C014FB7F8948091FC029091FD028D
:103CF000A091FE02B091FF024FBF821B930B08956B
:103D0000A4E0B0E0E6E8FEE10C94A625462F572F8C
:103D1000BC012FB7F8948091FC029091FD02A09114
:103D2000FE02B091FF022FBF8C019D01041B150BF9
:103D3000260B370BC901B8012496E4E00C94C22588
:103D400078941F921FB61F9211248F939F93AF9365
:103D5000BF938091FC029091FD02A091FE02B09170
:103D6000FF020196A11DB11D8093FC029093FD02FC
:103D7000A093FE02B093FF02BF91AF919F918F91EC
:103D80001F901FBE1F90189587E797E79093010833
:103D90008093000888E19AE00FB6F894A895809384
:103DA00060000FBE90936000FFCF88E19AE00FB6ED
:103DB000F894A895809360000FBE90936000FFCFA9
:103DC0008091DA020895282FCB01BA0130910403C3
:103DD0003430E1F42F702093E9002FEF3091E800A8
:103DE00035FD07C035ED3A95F1F70000215021115E
:103DF000F5CF2091E80025FF09C040E050E00E9487
:103E0000F1208091E8008E778093E8000895BC014E
:103E100043E050E082E00E94E31E0895BC0146E0CA
:103E200050E082E00E94E31E0895CF93DF93D82FE5
:103E3000C92F80913101811113C048E050E06D2FEE
:103E4000792F81E00E94E31E80E2ED2FFC2FAAEB88
:103E5000B2E001900D928A95E1F7DF91CF9108953C
:103E60008091E00287FD06C048E081E050E06D2FC0
:103E70007C2FE8CF40E282E0F9CF809103038111EB
:103E800009C00E9479220E94D6228091E2008460BB
:103E90008093E20008951092030308950E94BA1DD2
:103EA00008956091000381E0611101C080E00E94EB
:103EB000B11D08959091040381E0943009F080E0F1
:103EC000609100030E94B71D089542E061EC81E01B
:103ED0000E94F52142E261EC82E00E94F52190917E
:103EE000040381E0943009F080E0609100030E94B7
:103EF000AB1D089580910603893089F148F4823022
:103F000009F4A0C0833009F45AC0813041F008950B
:103F10008A3009F487C08B3009F46CC00895809111
:103F20000503813A09F04AC08091E800877F8093B9
:103F3000E8008091090390910A03892B61F060E009
:103F400080E090E070E00E9440218091E8008B7753
:103F50008093E800089560E28AEB92E0F3CF8091CD
:103F60000503813259F58091090390910A03029764
:103F700028F58091E800877F8093E8008091E80031
:103F800082FF18C09091F3008091F200029731F403
:103F90008091F100813011F0863021F48091F100A0
:103FA0008093DA028091E8008B778093E8000E948A
:103FB000292204C0809104038111E0CF08958091EB
:103FC0000503813AD9F78091090390910A03892B5F
:103FD000A9F78091E800877F8093E8008091E8004E
:103FE00080FFFCCF809131018093F1008091E80047
:103FF0008E77DBCF80910503813201F78091090331
:1040000090910A03892BD1F68091E800877F8093F5
:10401000E8000E94292280910703809331010E94C9
:10402000FD06089580910503813241F68091E800F4
:10403000877F8093E8000E94292280910803809363
:10404000DB02089580910503813A09F0B7CF809192
:10405000E800877F8093E8008091E80080FFFCCF34
:104060008091DB02C1CF84B7877F84BF0FB6F894FD
:10407000A895809160008861809360001092600034
:104080000FBE80E890E00FB6F894809361009093A3
:1040900061000FBE0E94C01D08950E9479220E94F7
:1040A000D622E2EEF0E080818460808378940E94E2
:1040B0005925089589E291E00E94431C089580915A
:1040C0000403853031F480910403853019F00E9497
:1040D0003A1E08950E940F1E80910203882399F3CF
:1040E0000E94CD1D882379F30E94DB200E94FD06EB
:1040F000EACF08959A0140910B0350910C030E945E
:1041000082200895AC01CB01D901252F332723301C
:104110003105E1F058F421303105C9F12230310583
:10412000D9F180E090E020E030E01EC0213231057E
:1041300021F122323105A9F7892BC1F161307105D6
:1041400081F786EB90E02BEE32E00EC0CA01992792
:10415000413069F08230910569F0EAE9F2E0892B9B
:1041600001F7849190E09F012D933C930895EAE834
:10417000F2E0F7CFECE5F2E0F4CF892B91F061307B
:10418000710579F689E090E029EC32E0EDCF82E12B
:1041900090E029ED32E0E8CF8BE390E02EE932E0C9
:1041A000E3CF89E090E020EB32E0DECF80E490E0E6
:1041B00021EA33E0D9CF80E189BD82E189BD09B42C
:1041C00000FEFDCF8091D8008F7D8093D800809134
:1041D000E00082608093E0008091E00081FDFCCFF0
:1041E0000895AF92BF92CF92DF92FF920F931F93E9
:1041F000CF93DF936C01EB018A010E944822F82ED5
:10420000811123C00115110539F0F80180819181D8
:10421000C81BD90BC80ED91EA12CB12C2097A9F010
:104220008091E80085FD22C08091E8008E77809320
:10423000E80001151105A1F0F801808191818A0D36
:104240009B1D9183808385E0F82E8F2DDF91CF9188
:104250001F910F91FF90DF90CF90BF90AF90089586
:104260000E9448228823E1F2F82EEFCFF6018191D7
:104270006F018093F1002197FFEFAF1ABF0ACECFF5
:10428000FC019B0180910B0390910C03861797070B
:1042900018F0672B61F0C90140E0009771F44111FB
:1042A0000CC08091E80082FF35C080E008958091C5
:1042B000E8008E778093E800EECF2091040322235C
:1042C000A9F12530A9F12091E80023FD2DC020910E
:1042D000E80022FDE6CF2091E80020FFDECF3091FC
:1042E000F3002091F200009719F02830310558F0C2
:1042F00041E02830310509F040E02091E8002E77B8
:104300002093E800CACF41914093F10001972F5FBD
:104310003F4FE9CF80910403882341F0853041F07D
:104320008091E80083FFBDCF81E0089582E0089589
:1043300083E00895FC019B0180910B0390910C0395
:104340008617970718F0672B61F0C90140E00097C6
:1043500071F441110CC08091E80082FF36C080E00A
:1043600008958091E8008E778093E800EECF209149
:1043700004032223B1F12530B1F12091E80023FD9F
:104380002EC02091E80022FDE6CF2091E80020FF1A
:10439000DECF3091F3002091F200009719F0283021
:1043A000310558F041E02830310509F040E0209116
:1043B000E8002E772093E800CACF44914093F100A3
:1043C000319601972F5F3F4FE8CF809104038823F8
:1043D00041F0853041F08091E80083FFBCCF81E05F
:1043E000089582E0089583E00895982F973028F08B
:1043F0008F708093E90081E008959093E900242F65
:10440000762F50E0981731F07091EC002091ED007C
:104410005091F00021FD02C09F5FE8CF3091EB008A
:104420003E7F3093EB003091ED003D7F3093ED0007
:104430003091EB0031603093EB007093EC002093EF
:10444000ED005093F0002091EE0027FDE5CF80E0D5
:1044500008958091050387FF13C08091E80082FFD3
:1044600006C08091E8008B778093E80004C08091BB
:1044700004038111F2CF0895809104038823D9F3B6
:104480008091E80080FFF8CF8091E8008E77ECCF34
:104490002091E4003091E50095E6A9018091EC00BF
:1044A0008170882331F08091E80080FF06C080E0B1
:1044B00008952091E80022FD1BC080910403882309
:1044C00091F0853091F08091EB0085FD10C0209136
:1044D000E4003091E5004217530701F39150911128
:1044E000DCCF84E0089582E0089583E0089581E0C0
:1044F00008950E94E8220E94F022E0EEF0E0808120
:1045000081608083E8EDF0E080818F77808319BC43
:10451000A7EDB0E08C918E7F8C9380818F7E80831D
:104520001092030308950F931F93CF93DF930E947C
:10453000E8220E94F022C8EDD0E088818F7788833E
:1045400088818068888388818F7D888319BC1092D8
:10455000040310920003109202031092010300EE74
:1045600010E0F80180818B7F80838881816088835F
:1045700042E060E080E00E94F521E1EEF0E0808121
:104580008E7F8083E2EEF0E0808181608083808195
:1045900088608083F80180818E7F8083888180613C
:1045A0008883DF91CF911F910F910895E8EDF0E09E
:1045B00080818F7E8083E7EDF0E080818160808361
:1045C00084E082BF81E0809303030E9493220895D8
:1045D000E8EDF0E080818E7F80831092E200089504
:1045E0001092DA001092E10008951F920F920FB618
:1045F0000F9211242F933F934F935F936F937F9369
:104600008F939F93AF93BF93EF93FF938091E100BC
:1046100082FF0BC08091E20082FF07C08091E10021
:104620008B7F8093E1000E9458258091DA0080FF03
:1046300019C08091D80080FF15C08091DA008E7F6C
:104640008093DA008091D90080FF94C080E189BD19
:1046500082E189BD09B400FEFDCF81E080930403AF
:104660000E943D1F8091E10080FF19C08091E2000F
:1046700080FF15C08091E2008E7F8093E2008091E0
:10468000E20080618093E2008091D8008062809394
:10469000D80019BC85E0809304030E94511F8091CB
:1046A000E10084FF29C08091E20084FF25C080E101
:1046B00089BD82E189BD09B400FEFDCF8091D8009B
:1046C0008F7D8093D8008091E1008F7E8093E10000
:1046D0008091E2008F7E8093E2008091E200816011
:1046E0008093E20080910003882309F449C084E0AC
:1046F000809304030E945A1F8091E10083FF29C028
:104700008091E20083FF25C08091E100877F809344
:10471000E10082E080930403109200038091E100A5
:104720008E7F8093E1008091E2008E7F8093E20093
:104730008091E20080618093E20042E060E080E0EE
:104740000E94F5218091F00088608093F0000E9423
:104750004E1FFF91EF91BF91AF919F918F917F91EC
:104760006F915F914F913F912F910F900FBE0F90DE
:104770001F90189519BC109204030E944B1F72CF12
:104780008091E30087FF02C083E0B2CF81E0B0CF29
:104790001F920F920FB60F921124FF920F931F9347
:1047A0002F933F934F935F936F937F938F939F9339
:1047B000AF93BF93CF93DF93EF93FF9309EE10E096
:1047C000F8018081C091EC00C795CC27C7958F7008
:1047D000FC2EF82A1082C0EFD0E08881877F888382
:1047E00078940E941124F80110828881886088835F
:1047F000CF2DCF70C083FF91EF91DF91CF91BF910B
:10480000AF919F918F917F916F915F914F913F9168
:104810002F911F910F91FF900F900FBE0F901F903F
:104820001895AAE2B0E0E7E1F4E20C94A72585E050
:1048300093E0FC0101962091F100208323E08D306C
:104840009207B9F70E947A1F8091E80083FF38C071
:1048500080910503909106039A3090F5E92FF0E0DE
:10486000EC53F94D0C949225803889F0823841F54B
:10487000809109038F70873018F58093E90080914B
:10488000EB0085FB882780F91092E90006C0809133
:10489000010390910203911182609091E800977F4B
:1048A0009093E8008093F1001092F1008091E8006D
:1048B0008E7723C0811116C080910703813011F1DA
:1048C0008091E80083FF0AC08091E800877F809391
:1048D000E8008091EB0080628093EB00AA96E3E011
:1048E0000C94C325823061F780910703882389F0F7
:1048F0001092E9008091E800877F8093E8000E9491
:104900002922DECF81E0933009F080E0809302031A
:10491000EFCF809109038F702FEF280F263080F69C
:104920008093E9002091EB0020FFE2CF933031F437
:104930008091EB0080628093EB00DACF9091EB00E6
:1049400090619093EB0021E030E0A90102C0440F98
:10495000551F8A95E2F74093EA001092EA00809191
:10496000EB008860E8CF8111ABCF109107031F7770
:104970008091E3008078812B8093E3008091E800B0
:10498000877F8093E8000E9429228091E80080FFC1
:10499000FCCF8091E30080688093E30083E01111F5
:1049A00001C082E0809304038BCF8058823008F0EE
:1049B00087CF80910703909108038C3D53E09507C2
:1049C00099F583E08A838AE289834FB7F894DE0100
:1049D000139620E03EE051E2E32FF0E050935700C1
:1049E000849120FF03C082958F703F5F8F708A3063
:1049F000C8F0895C90E08D939D932F5F243161F71F
:104A00004FBF8091E800877F8093E8006AE270E002
:104A1000CE0101960E9440218091E8008B7780931F
:104A2000E8004ECF805DE6CF6091090370910A03E4
:104A3000AE014F5F5F4F0E947A20BC01892B09F4C1
:104A40003FCF8091E800877F8093E80089819A8139
:104A50000E949A21E1CF803809F032CF8091E8009E
:104A6000877F8093E800809100038093F1001ECF40
:104A7000811126CF90910703923008F021CF8091C9
:104A8000E800877F8093E800909300030E9429222A
:104A900080910003882331F084E0809304030E9416
:104AA000651F0ECF8091E30087FDF6CF81E0F5CF43
:104AB0000895CF9380910403882399F08091E900B1
:104AC000C091EC00C795CC27C7958F70C82B10926A
:104AD000E9008091E80083FD0E941124CF70C0930B
:104AE000E900CF9108950E9479221092040308955D
:104AF0008091E300881F8827881F089597FB072E61
:104B000016F4009407D077FD09D00E94CF2507FC4A
:104B100005D03EF4909581959F4F089570956195CD
:104B20007F4F0895EE0FFF1F0590F491E02D09943B
:104B30002F923F924F925F926F927F928F929F92AD
:104B4000AF92BF92CF92DF92EF92FF920F931F939B
:104B5000CF93DF93CDB7DEB7CA1BDB0B0FB6F8944C
:104B6000DEBF0FBECDBF09942A88398848885F848C
:104B70006E847D848C849B84AA84B984C884DF80FD
:104B8000EE80FD800C811B81AA81B981CE0FD11DE1
:104B90000FB6F894DEBF0FBECDBFED010895AA1B7E
:104BA000BB1B51E107C0AA1FBB1FA617B70710F018
:104BB000A61BB70B881F991F5A95A9F7809590954A
:104BC000BC01CD010895FB01DC0104C08D91019071
:104BD000801921F441505040C8F7881B990B089563
:104BE000FB01DC0102C001900D9241505040D8F70A
:104BF0000895F999FECF92BD81BDF89A992780B5A5
:104C00000895A8E1B0E042E050E00C942D26262F54
:104C1000F999FECF92BD81BDF89A019700B40216B2
:104C200039F01FBA20BD0FB6F894FA9AF99A0FBE60
:104C300008950396272F0E9408260E940726252FF5
:104C40000E940826242F0C9408260196272F0E94E4
:104C500008260C940726DC01CB01FC01F999FECF54
:104C600006C0F2BDE1BDF89A319600B40D924150F4
:104C70005040B8F70895F894FFCFD704D70407053C
:104C800007058F05AC0532053205B1052806390642
:104C9000390686158C158F159515AA15AA15AA150E
:104CA000AA15AA15AA15AA15AA1598159D15A11534
:104CB000A715B815BE15C215EA175E18F217BC176E
:104CC000C017F617C417FA170618D0175718D417B5
:104CD0000A18D8170E183618DC1712183D18E217E4
:104CE00018182018C817FE17CC170218E6171C183A
:104CF0002C1846185518B617EE17651885187C1825
:104D000088187A18D918D9187A18D918D918A4185F
:104D1000D918AF18BA18D918D918D918D9187A18B3
:104D2000D918D9187A18D9189618D918D918D7189F
:104D3000D718D718D718D718D718D718D718D718FB
:104D4000C518D91885187818D918D918D918D918A4
:104D5000D918D918D918D918D918D918C518D918DF
:104D6000D9187A18D918CC18CC18CC18CC18CC185B
:104D7000CC18CC18CC18CC18C5185C1A621A4C1A6E
:104D8000561A681A6E1A741A34245A2460245A2443
:0C4D90006024B324D52460242B25382592
:104D9C0036020100000001000000000000000601C6
:104DAC000000000407000000000000010B000000E0
:104DBC000000002808503C0714E01E151F0E1F07AA
:104DCC001F01E200E900EA00B500B600B700CD0013
:104DDC008301CC008A019201940121022302240256
:104DEC002502260227022A02B300B4006F007000CD
:104DFC009F01CB019F02A002E200E900EA00B5008E
:104E0C00B600B700CD008301CC008A019201940159
:104E1C002102230224022502260227022A02B300C1
:104E2C00B4006F0070009F01CB019F02A00294663A
:0C4E3C0097C63435F6F7313332367C026D
:00000001FF
